:020000040800F2
:1000000000500020F1080108F9990008FB99000848
:10001000FD990008FF990008019A000800000000FF
:10002000000000000000000000000000039A00082B
:10003000059A000800000000079A0008099A0008C5
:100040003909010839090108390901083909010884
:100050003909010839090108390901083909010874
:10006000390901083909010839090108119A0008FC
:100070003909010839090108219A0008319A000854
:10008000390901083909010839090108419A0008AC
:10009000519A0008619A0008719A0008819A000834
:1000A00039090108A19A000839090108390901082C
:1000B00039090108A99A0008B19A0008390901080C
:1000C0003909010839090108390901083909010804
:1000D00039090108B99A00083909010839090108E4
:1000E000390901083909010839090108000000002F
:1000F0000000000000000000000000000000000000
:0C01000000000000000000005FF808F1A3
:1001100010B5054C237833B9044B13B10448AFF341
:1001200000800123237010BD100A00200000000091
:10013000DCA8010808B5034B1BB103490348AFF322
:10014000008008BD00000000140A0020DCA801089F
:10015000F0B44D1E04464F2D40D8DFE805F02828A6
:1001600028283F3F3F3F3D3D283D3D3D3D3D3D3DF6
:100170003D3D3D3D3D3F2A2A2A2A2A2A2A2A283D5A
:100180003D3D3D3D3F3D2A29283F282A2A3D293F24
:100190003F3D3D3D28282828283D28283D283F3F31
:1001A0003D3D3D3F3F3F3D3D3D282A282A2AAAB1FB
:1001B000A3B1D4E90550854210DA4FF0000C26694E
:1001C0006F1C06EB05102D01C0F804C06761715566
:1001D000C0E90223F0BC7047002AEAD10020F0BC3D
:1001E000704700BF10B4C3680A46197852290DD071
:1001F0004F2902D0104610BC70472021C46A033436
:10020000C4620133C36010BC0023A1E7C46A1F218C
:100210000234C462F5E700BF002963D038B5054653
:100220000C462378013B4F2B37D8DFE803F0313100
:10023000315036363B3B3131313131313131313171
:100240003131313131363131313131313131313199
:100250002828313136313131313731313131313690
:100260003B3131313131313131313131313136366A
:100270003137373737363131313131313131A368A8
:100280001B78052B04D1D5F838310133C5F8383146
:10029000D5F81C31B3F5006F08DD38BDA468002C1B
:1002A000BFD138BDE468002CBBD1FAE70133C5F8F3
:1002B0001C312846A168FFF7AFFF2846E168FFF729
:1002C000ABFFD5F81C31013BC5F81C3138BDD5F862
:1002D00044310133C5F84431D5F81C31B3F5006F12
:1002E000DBDCE3E7704700BF7AB32DE9F0410D4650
:1002F0000A4404464FF00008D0F80011571E013D93
:1003000009E00B46BD4201F10101C4F80011E654B9
:1003100084F8046117D0FF2915F8016FF1D1D4E9F1
:100320004232204684F8FF80984701210023D4F808
:100330002821BD420A44C4F82821C4F80011E6541B
:1003400084F80461E7D1BDE8F0817047F0B5016839
:1003500006460A786E2A29D0A2F13003092B30D83C
:100360004FF0000C00206FF00047DFF85CE005E084
:10037000AEFB0434B0EBD40F2A4614DC01313160FB
:100380000D7800EB8000A5F13003FC1ADBB202EB24
:100390004002092BA2F13000EAD9BCF1000F01D0D4
:1003A000C2F13000F0BD4FF0FF30F0BD4B1C0360D8
:1003B0004A78A2F13001092903D819464FF0010CFF
:1003C000D0E70020F0BD00BFCDCCCCCCD0E90532C9
:1003D000934270B50FDA4221002602695D1C02EBE0
:1003E00003141B0166600C308560D154FFF7AEFF2B
:1003F000A060204670BD0024204670BD10B5C368C3
:1004000004461A785F2A0DD06E2A0DD00C30FFF703
:100410009DFF013008D4E3681A785F2A04D10133C4
:10042000E36010BD0020FAE74FF0FF3010BD00BFC1
:10043000F8B5C3681A78542A16D10133C36004464C
:10044000FFF7DCFF021E0FDBD4E905318B420BDA2C
:100450000027052521695E1C01EB03101B01476085
:100460006661CD548260F8BD0020F8BD70B50446C9
:100470000C30FFF76BFF051E3EDDE66863689B1BD3
:100480009D4237DCA26873195207E36004D5725DA0
:10049000242A04BF0133E360092D12DCD4E90503EB
:1004A000984227DA00222169431C01EB00104260C8
:1004B0006361FEB10023C0E9026543600370A0627E
:1004C00070BD082230461A4912F0DEF830B9337A8E
:1004D0002E2B13D05F2B11D0242B0FD0D4E9050382
:1004E000834207DD00222169431C01EB00104260BA
:1004F0006361DFE70020E2E7002070BD737A4E2BD6
:10050000ECD1E26A6369A1691632551B8B42E56240
:10051000F0DA0021152522695E1C6661054E02EBAA
:1005200003101B014160D154C0E90265C7E700BF59
:1005300064BC010870BC010870B5C36804461A7831
:100540000D46422A866A0FD10133E3602046FFF749
:100550008DFF2A4603464C212046FFF7F9FDE3684C
:1005600005461A78422AEFD02846A66270BD00BF21
:100570002DE9F843C3681A78532A30D15A1CC26057
:100580005A78044692B39A1CC2605A785F2A42D0C5
:10059000A2F13000C3B2092B24D800210DE0303B7A
:1005A00099421CD8E1680A78481C1AB1E0600A78C0
:1005B0005F2A39D01946A2F13000C0B201EBC10365
:1005C0000928A2F1410502EB8303E8D9192D06D8C9
:1005D00001EBC10302EB8303373B9942E2D90020D0
:1005E000BDE8F883A2F14103192BD6D9A36803F023
:1005F0000803002B14BF0125002500D1B1B9364BEB
:10060000742103F1A80001E013F81C1F914214D0DB
:100610008342F9D1E3E70023226A9A42DFD9E269F3
:1006200052F82300BDE8F8830133F5E7E3681B784F
:10063000433B012B98BF0D46E1E75E69002E44D095
:10064000D4E905208242D3F818C043DA4FF00009FC
:100650004FF0180827694FEA021E07EB021101321A
:10066000C1F80490626107F80E80C1E9026CA162D2
:1006700045B3D3E90351E36A82420B44E36227DACC
:100680004FF0000C18262369571C03EB02101201CF
:10069000C0F804C067619E54C0E90251E3681B784A
:1006A000422B9DD101462046FFF746FF002896D0F9
:1006B000D4E90832934292DAE1695A1C41F82300E6
:1006C00022628DE7D3E90151D5E7D4E90520CFE7D0
:1006D0000020E3E70021CAE7F8A8010838B504467E
:1006E00029B9C3681A787AB15A1CC2601978682986
:1006F00019D0762908D104F10C052846FFF726FE0B
:10070000E3681A785F2A01D0002038BD01332846FB
:10071000E360FFF71BFEE3681A785F2AF4D101203B
:100720000344E36038BD04F10C00FFF70FFEF2E76D
:10073000C3681A785F2A01D00120704710B55A1C8F
:10074000C2605A7804465F2A05D00C30FFF7FEFDE0
:10075000C043C00F10BD023340F80C3FFFF7F6FD59
:10076000002809DB092805DDE3681A785F2A03D130
:100770000133E360012010BD002010BD28B909E05D
:10078000002908DDC068013940B103782F2BF7D06C
:10079000002070477047FBD180687047704700BFEA
:1007A0000346D0F8100130B1096843680029D868C1
:1007B00000DBE3E770470122C3F81821704700BF50
:1007C000002943D038B505460C4623784C2B33D846
:1007D000DFE803F03032323232273038383232320A
:1007E00032323232323232323232323230323232EB
:1007F00032323232323232323232323032323232DB
:1008000030323232323230383232323232323232C6
:1008100032323232323030323232303030323230C4
:100820003000284604F10801FFF7BAFF10B1037841
:100830002F2B00D0002038BD2846A168FFF7C0FF4D
:100840000028F8D1E468002CBFD1F3E700207047FE
:10085000F0B514465268A5684B1C1344AB420E46D3
:10086000074683B011D8E5686DB9D4E9000339466D
:100870003246184408F09EF9D4E9003233449D54BE
:1008800061683144616003B0F0BDE268002AFAD1CA
:1008900055B16D00AB42FCD82946206812F078F8BB
:1008A00038B12060A560DEE7022B4FF00205F0D8DA
:1008B000F2E70190206811F0F1FB0122019BC4E9ED
:1008C0000033C4E90232DEE72DE9F04F0F46002382
:1008D000C26885B011780446B942039300F02782BC
:1008E00099464FF0010803AED4F830A0C4F8308028
:1008F00013784C2B7FD0542B00F09C80732B4DD061
:10090000662B24D15378702B00F09980204601F09B
:100910003DFD0546002800F087800378322B00F06B
:10092000B280342B00F061810AD8332B08D1836860
:10093000032B05D8DFE813F032015E010400040048
:100940000025C4F830A0284605B0BDE8F08FA3F11B
:100950003001092935D8204601F0E0FE054600287F
:1009600062D0E3681A78492A00F0A180C4F830A068
:100970002A4600232E212046FFF7EAFB306000289C
:1009800041D0E26800F10C061378BB42ACD1039D64
:1009900001322846E26005B0BDE8F08F5378722B33
:1009A00000F0E580702BB1D10232E260204600F009
:1009B0000BFA002302464B212046FFF7C9FB0546F0
:1009C0001DE06F2B24D0692B7ED153786C2B9DD1E9
:1009D00000250232E2605078002800F0978145211E
:1009E0002046FFF771FF2A46034631212046FFF7D4
:1009F000AFFB054603E0204601F0DEFF0546C4F8E4
:100A000030A0002DB4D10025284605B0BDE8F08FF8
:100A100053786E2B7FF47AAF02322046E26001F009
:100A20007DFE054600289CD12846C4F830A005B0BC
:100A3000BDE8F08F2046FFF7FBFC0546DFE7931C7F
:100A4000E3609378542B5FD02046FFF7D7FC6FF01C
:100A5000004398423FF474AF431C3FF471AF013040
:100A6000D4E905329342BFF66BAF0621226903F148
:100A7000010C02EB03151B01C5F80490C4F814C067
:100A8000D154A86072E78068E26A8168036802391D
:100A90000A44E2621A78732A25D0D0F80CB0BBF170
:100AA000030F3FF64DAFDFE80BF0793381B0013330
:100AB000E360204600F0BCFB2A46034604212046A2
:100AC000FFF746FB05469AE7742B7FF41FAF537878
:100AD0006C2B7FF41BAF0232E260204601F044F839
:100AE000E268054677E759787429D6D199780029C4
:100AF000D3D1204601F038F803462A463721204654
:100B0000FFF726FB05467AE703320020E260A7E7FD
:100B10001978702920D06D291ED04FF0000B732A50
:100B200012D15A78502A0FD19B786BB9204600F029
:100B30007FFB0346BBF1000FDFD01A463921204668
:100B4000FFF706FB0346D8E7204600F03DF90346D1
:100B5000BBF1000FF1D1D0E758788842DDD1E168D0
:100B600008785F28DBD10131E1601A78D5E70232DD
:100B7000E260204600F0F8FF0546204601F0CEFD79
:100B8000E36883461A78492A00F0C48003462A465F
:100B900001212046FFF7DCFA054630E72A4600230C
:100BA00036212046FFF7D4FA054628E7AA681268DE
:100BB0005178632900F0CC801A78662A00F0D8803A
:100BC0002046019300F000F98346019B1A78632ABE
:100BD00072D159786C296FD1997800296CD145214F
:100BE0002046FFF771FE024675E0E3681A785F2A37
:100BF00000F0A680204600F0E7F82A460346372199
:100C00002046FFF7A5FA0546F9E6712A17D15A786A
:100C1000752A14D19A7892B9204600F0D5F8834607
:100C2000204600F0D1F802462046019200F0CCF8B0
:100C3000019A034670BB0546C4F830A083E61A78D3
:100C4000662A00F09C806E2A7FF47AAE5B78772B60
:100C500002D0612B7FF474AE5F212046FFF734FE93
:100C60008346204600F080FFE36802461978452954
:100C700000F0A580702900F0948069297FF460AEAF
:100C80005B786C2B7FF45CAE0190204600F09CF802
:100C90000346019A3C212046FFF75AFA5A4603467A
:100CA0003B212046FFF754FA2A4603463A212046C4
:100CB000FFF74EFA0546A2E6642A1AD1597874293C
:100CC00017D19978A9B9204601F028FDE3680246BA
:100CD0001978492957D0134639215A462046FFF73B
:100CE00037FA2A46034638212046FFF731FA0546EF
:100CF00085E6702A05D15A78742A02D19B78002B98
:100D0000E1D0204600F060F80246E4E70546C4F86A
:100D100030A018E60133E360204600F089FA5A4615
:100D2000034604212046FFF713FA03462FE701325A
:100D3000C2602E211A4605B0BDE8F04FFFF708BA91
:100D40000133E36045212046FFF7BEFD0346D4E6AC
:100D50001278A2F16301012903D9723A012A3FF600
:100D60002BAF2046019300F0FFFE019B83462DE749
:100D70002046019301F00AFB019B834626E72046AB
:100D800001F004FB4BE701330190E360204600F0E3
:100D90004FFA019A034604212046FFF7D9F902468B
:100DA00099E7597869297FF4CBAD02330190E3606C
:100DB00045212046FFF788FD019A03466AE7013383
:100DC000E360002366E700BFC26813784C2B00F095
:100DD0009280542B00F09180732B2DE9F041044652
:100DE00053D0662B31D0A3F1300109290CD820460D
:100DF00001F094FC0546002879D0E3681A78492A66
:100E00007DD02846BDE8F0816F2B4FD0692B40F094
:100E1000838053786C2B00F0A280204601F0B6FA54
:100E20000546002863D00378322B45D0342B00F0E0
:100E300093815CD8332B5AD18368032B57D8DFE8D2
:100E400013F0CF000301560056005378702BE4D105
:100E5000931CC3609378542B00F02481FFF7CEFAE3
:100E6000C34333F0004342D00130D4E9053293420A
:100E70003DDA0027062122695E1C02EB03151B01E7
:100E80006F606661D154A860BBE75378722B51D074
:100E9000702BC2D10232C260FFF796FF00230246D8
:100EA0004B212046BDE8F041FFF752B953786E2B35
:100EB000B3D10232C2609AE78168E36A8A680E6839
:100EC000023A1344E3623378732B5AD17278742A4E
:100ED00057D1B278002A54D1204600F045FE03468F
:100EE0002A462046BDE8F0413721FFF731B90025F9
:100EF0002846BDE8F08101F05FBDFFF799BA0133E4
:100F0000E360204600F094F92A4603460421204677
:100F1000BDE8F041FFF71CB9742B7FF47EAF537826
:100F20006C2B7FF47AAF0232E26000F01DFEE268C3
:100F3000054617E00232C26000F016FE0546204664
:100F400001F0ECFBE36806461A78492A20D00346F4
:100F50002A462046BDE8F0410121FFF7F9B80025F7
:100F60000232E2605378002BC1D045212046FFF7C2
:100F7000ABFC2A46034631212046BDE8F041FFF78D
:100F8000E7B8CF68032FB2D8DFE807F02A0F326343
:100F90000133E360204600F04BF93246034604215A
:100FA0002046FFF7D5F80346D2E73278702A00F0E2
:100FB00082806D2A7FD00027732B77D17378502BD6
:100FC00074D1B378002B71D1204600F031F903467B
:100FD000002F85D01A4639212046FFF7B9F87EE761
:100FE0002A462046BDE8F04100233621FFF7B0B87D
:100FF000AB681B685A78632A00F0C2803378662B8E
:1010000000F0CC802046FFF7DFFE07463378632BE5
:1010100040F0858072786C2A40F08180B278002A96
:101020007DD145212046FFF74FFC064633463A4620
:1010300039212046FFF78CF82A46034638212046FE
:10104000BDE8F041FFF784B82046FFF7BDFE034638
:1010500046E7712B3CD17378752B39D1B378BBBB84
:101060002046FFF7B1FE06462046FFF7ADFE0746D5
:101070002046FFF7A9FE034600283FF438AF3A4662
:101080003C212046FFF764F8324603463B212046C8
:10109000FFF75EF82A4603463A212046BDE8F041B4
:1010A000FFF756B80332C2600020DEE62046FFF7A5
:1010B0008BFE03468CE7717891427FF47CAFE26847
:1010C00011785F297FF478AF0132E260337872E7FC
:1010D0003378662B6ED06E2B7FF409AF7378772B45
:1010E00002D0612B7FF403AF5F212046FFF7ECFBBA
:1010F0000646204600F038FDE36807461A78452A80
:1011000068D0702A5AD0692A7FF4F1AE5B786C2BD4
:101110007FF4EDAE2046FFF757FE0346AFE7642BA2
:1011200027D17278742A24D1B27812BB204601F0FC
:10113000F5FAE36806461A78492A7FF477AF013357
:10114000E360204600F074F832460346042120464E
:10115000FEF7FEFF064669E7E3681A785F2A7FF428
:1011600073AF0133E36045212046FFF7ADFB034633
:10117000B6E6702B17D02046FFF726FE064655E749
:101180001B78A3F16302012A03D9723B012B3FF6BE
:1011900035AF204600F0E8FC074637E7204601F06F
:1011A000F5F8074632E77378742BE4D1B378002B57
:1011B000BCD0E0E7204601F0E9F854E75A78692A04
:1011C0007FF495AE0233E36045212046FFF77CFBB8
:1011D000034654E70133E360002350E738B5C268A3
:1011E00013784C2B1DD0044605D8493B012B13D84E
:1011F000BDE838404EE0582B0ED101231A44056B50
:10120000C2600363FFF7E0FDE36825631A78452AAF
:101210000BD10133E36038BD2046BDE8384000F013
:10122000A3BCBDE8384001F0C7BB002038BD00BFFB
:1012300070B5C26804461378866A452B82B04FF0B9
:1012400000031ED001AD01930CE000232F212046A6
:10125000FEF77EFF286000F10C0548B1E3681A78BC
:10126000452A08D02046FFF7B9FF02460028ECD1F6
:10127000002002B070BD01980133E360A66202B0A5
:1012800070BD0132C2602F211A4602B0BDE8704025
:10129000FEF75EBFC1680A78493A012A02D80131D7
:1012A000C160C5E7002070472DE9F047C2680446D9
:1012B0001378472B01D0542B34D1E16A01F1140388
:1012C000E3621378542B5BD0472B40F09E80531C75
:1012D000E3605378002B00F09880931CE360537810
:1012E000562B00F29080402B40F28F80413B152B13
:1012F00000F28B80DFE813F0C700890089008900C5
:101300008900890089008900890089008900890095
:1013100089008900890089008900D3008900E200E2
:101320008900F6000E4600F057FA054600286CD0FA
:10133000002E6ED0A368DB076BD42B784D2BA3F166
:101340001C01A3F14F0200F083807FD804297FD9CC
:10135000022B5BD1EA6813784D2BA3F11C00A3F19B
:101360004F0103D000F2E08104284FD89268EA6070
:1013700013784D2BA3F11C00A3F14F01F2D1F5E737
:10138000531CE3605378002B3FD0931CE3605378E9
:10139000413B352B39D8DFE813F0490138002901EA
:1013A000380038001E0138001301BC01B1013800BB
:1013B0003800380038003800380038003800A601FE
:1013C000990138008C01810138003800380038005C
:1013D000380038003800380038003800380067011D
:1013E0003800380038003800540138003800380020
:1013F000380038003800380038003800380038002D
:10140000380038000001722B77D000252846BDE84F
:10141000F087E3681B78002BF8D0452BF6D02946DF
:101420000B78042B00F0B0810AD94D2BA3F14F02A9
:1014300002D00FD9012A10D889680029F0D10DE017
:10144000022B0AD1C9680029EAD107E0012ADDD8B8
:10145000AD6872E71C3B042BEED90021204601F059
:1014600003F903460028D0D036B92A78022A03D1DE
:101470000278292A08BF86602A462046BDE8F04740
:101480000321FEF765BE00212046FFF70DFF002374
:10149000024617212046BDE8F047FEF759BE204618
:1014A00000F09AF905462046FEF790FF2A460346CB
:1014B00016212046BDE8F047FEF74ABE937800218A
:1014C00020462BB1D31CE36093786E2B00F07A8119
:1014D000FFF7EAFE0023024649212046BDE8F04717
:1014E000FEF736BE204600F077F9002302461321AE
:1014F0002046BDE8F047FEF72BBE04F10C00FEF7D6
:1015000025FF012881DDE3681A78002A3FF47DAFCA
:101510005F1CE7601B785F2B7FF477AF00224FF0F2
:1015200041099046451E3B78002B3FF46EAF242BBB
:1015300040F0FE807B78532B00F03D815F2B00F064
:101540003881242B7FF461AF1946D4E90503984212
:1015500080F233812669471C06EB00130001C3F8B3
:101560000480676106F80090E768023D02379960E1
:10157000E760002A00F0FD8040212046FEF7E8FDEC
:10158000024600283FF441AF002DCCDC2046BDE8E8
:10159000F04700233F21FEF7DBBD76212046FFF711
:1015A0009DF800283FF431AF00212046FFF77CFE74
:1015B0000023024610212046BDE8F047FEF7C8BDD3
:1015C000204600F009F90023024614212046BDE818
:1015D000F047FEF7BDBD204600F0C6FA00230246E4
:1015E0000E212046BDE8F047FEF7B2BD204600F0D0
:1015F000BBFA054604F10C00FEF7A8FE0028FFF632
:1016000004AFE3681A785F2A7FF4FFAE0133E3602A
:10161000204600F0A9FAE36A0246591DE1622B4612
:101620002046BDE8F0470B21FEF792BD2046FFF7AC
:10163000D5FD0023024630212046BDE8F047FEF7E5
:1016400087BD68212046FFF749F800283FF4DDAE4A
:1016500000212046FFF728FE002302460F212046E6
:10166000BDE8F047FEF774BD00212046FFF736F8CD
:1016700000283FF4CAAE00212046FFF72FF80028CB
:101680003FF4C3AE00212046FFF70EFE00230246C2
:1016900011212046BDE8F047FEF75ABD204600F074
:1016A0009BF80023024615212046BDE8F047FEF7CF
:1016B0004FBD0F31E162204600F056FA002302468A
:1016C00009212046BDE8F047FEF742BD0A31E1623C
:1016D000204600F049FA002302460A212046BDE8D0
:1016E000F047FEF735BD204600F03EFA00230246E3
:1016F0000D212046BDE8F047FEF72ABD204600F048
:1017000033FA0023024612212046BDE8F047FEF7D7
:101710001FBD204600F028FA002302460C21204677
:10172000BDE8F047FEF714BD01293FF66FAE1DE698
:101730003E46002104E016F8013FE3B1242B1AD005
:101740000131A942F7DBD4E90530984217DD206961
:101750005E1C00EB0313C3F80480666183F800800D
:10176000E0689F604718C3F80480D9606D1AE7608D
:10177000FFE61A4608E7D4E905308342E7DBE36871
:1017800000250B44E36041E68B6863B119780829B2
:1017900001F1FF3209D806293FF65FAE012A02D8CF
:1017A000DB68002BF2D1012158E6353918BF012141
:1017B00054E62E21C9E62F21C7E6E368002502334F
:1017C000E36023E6FFF770FD002302464A2120462E
:1017D000BDE8F047FEF7BCBC2DE9F047C2680446FF
:1017E000137884B04E3B0C2B08D8DFE803F02807B1
:1017F00007070713072107070707760000F08EFF8A
:10180000E36805461B78492B00F0A980284604B000
:10181000BDE8F0875378742B00F0AB800021FEF711
:10182000A7FEE36805461B78492BEFD12046F0E080
:1018300000F074FF0546284604B0BDE8F087013289
:10184000C26003A9012200F05BFE0746002800F0F9
:101850008B8000212046FEF7C5FCE16880460E78AB
:101860002EB34FF0000ADFF8FC92442E6AD0A6F1A6
:101870003003DBB21C2B40F2FD80A6F16103192B73
:1018800000F2FA80204600F049FF0546BAF1000F49
:1018900006D001212B4652462046FEF759FC05464C
:1018A000532E08D1AA46E1680E78002EDDD100251E
:1018B0003D60ABE70546E1680E78452E00F08C8070
:1018C000002DF4D0D4E908329342F0DAE269581CD2
:1018D00042F82350AA462062E6E701320021C260A6
:1018E000FFF7E2FC054600283ED0E3681978452959
:1018F0003AD15A1CE2605978732900F0F4806429C7
:1019000000F091802046FFF767FF034650B1027850
:10191000462A07D0482A05D001902046FEF708FF46
:10192000019B08B32A78032A05D1EA68117829298E
:1019300004BF002191602A4620460221FEF708FCE0
:10194000054663E74B78204603F0DF03542B52D063
:1019500000F0E4FE0546BAF1000F9AD1ABE718B1EA
:10196000D4E9083293424EDB0025284604B0BDE896
:10197000F0870232D0E905318B42C26080F2B1803B
:101980000021032022695E1C6661744E02EB031580
:101990001B016960D154C5E90260204600F0BEFE1B
:1019A0002A46034601212046FEF7D2FBE36AE2689D
:1019B0000333E36213780546492B7FF427AF0028F1
:1019C000D2D0D4E908329342CEDAE1695A1C41F808
:1019D0002300204622621CE0152329FA03F3DB07CB
:1019E00058D5204600F09AFE002D3FF463AFAA467A
:1019F000012105464EE700F0B7F80546BAF1000FA1
:101A00007FF447AF57E7E1695A1C41F823002046AD
:101A10002262FFF73FFC2A46034604212046FEF7D8
:101A200097FB0546F2E602332046E360FEF7E6FC4C
:101A3000071E99DB2046FFF7CFFE064628B1037844
:101A4000462B02D0482B40F08280D4E905239A42ED
:101A500063DA4FF0000E4720216902F1010C01EB1F
:101A600002131201C3F804E0C4F814C08854C3E997
:101A7000026757E75546B0E7552E30D0532E64D154
:101A800001212046FEF774FD0546BAF1000F7FF4F0
:101A900000AF07E7492E42D0542E4CD0452E09D036
:101AA0004D2E7FF404AF002D3FF401AF0131AA4663
:101AB000E160F9E63D60002D3FF456AFB8F1000F4C
:101AC00004D0039BCDF80C80C8F80830E3681A787E
:101AD000452A7FF449AF0133039DE36096E65546FE
:101AE0007FE7002559E702332046E360FEF720FE3A
:101AF00000283FF439AFD4E905239A420DDA0020DB
:101B00000E262169571C6761154F01EB0213120164
:101B100058608854C3E9027604E7002302E7002DE9
:101B20003FF4C5AE0131E1602046FFF781FBAA46D4
:101B300004210546AEE62046FEF77AFCAA46054695
:101B4000BAF1000F7FF4A5AEB5E65546A4E72046EE
:101B5000FEF7EEFD00287FF478AF05E798BC01089A
:101B600088BC0108FF0308102DE9F041C168044654
:101B70000B7882B0722B58D0562B56D04B2B54D0AA
:101B8000442B00F09E80A3F130024A2A00F290809C
:101B9000DFE812F02D012D012D012D012D012D0168
:101BA0002D012D012D012D018E008E008E008E0045
:101BB0008E008E008E0001028E0044018E008E0089
:101BC000600166018E008E008E008E008E00410244
:101BD0002D01740182018E0090019E01C201E90174
:101BE0008E008E008E008E002D018E008E008E00E5
:101BF0008E008E008E0010011001100110011001E6
:101C0000100110011001100110018E0010011001CF
:101C1000100110018E008E008E0010011001520183
:101C2000100110011001100110010022204601A92D
:101C300000F066FC054600283AD0E36820461B7891
:101C4000462B3AD0FFF790FF2860002830D0037869
:101C50001F3B012B05D8019A836882602A68019294
:101C60002B60019D25B3D4E90832934220DA28463F
:101C7000E1695A1C41F82350226202B0BDE8F081AC
:101C80000123056B0363FFF79FF8256302460023DA
:101C900043212046FEF75CFA0546019040B1E36817
:101CA0001A782AB15A1CE2601B78452B00F0A780F5
:101CB0000025284602B0BDE8F08100F0F9FC28605C
:101CC000C3E74B7803F0DF024F2AAED0773B012BFE
:101CD000ABD94B1CC3604B78002BE9D08B1CC36085
:101CE0004B78463B302BE3D801A252F823F000BFDB
:101CF00047200008B11C0008B11C0008B11C0008F6
:101D0000B11C0008B11C0008B11C0008B11C00087F
:101D1000B11C0008B11C0008B11C0008B11C00086F
:101D2000B11C0008B11C0008811C0008B11C00088F
:101D3000B11C0008B11C0008B11C0008B11C00084F
:101D4000B11C0008B11C0008B11C0008B11C00083F
:101D5000B11C0008B11C0008B11C0008E3200008F9
:101D6000B11C0008BD200008872100085D21000883
:101D700033210008B11C0008092100087D22000859
:101D8000B11C0008B11C0008B11C0008B11C0008FF
:101D900055220008B11C00083F220008B11C0008B1
:101DA000B11C000815220008811C0008EB21000866
:101DB000B1210008C048613B03EB8303D4E905254A
:101DC000AA4200EB830380F2C58200272726206900
:101DD000013100EB02156F60571C120167618654D8
:101DE0005868E26AAB600244E160E26261E7204663
:101DF000FFF7F2FC05460190002D3FF459AFD4E9FE
:101E000008329342BFF654AFE1695A1C41F823509F
:101E1000019D2262284602B0BDE8F0810131E160F7
:101E20002046FFF7A1FE0023024625212046FEF7AB
:101E30008FF905460190DFE70131E1602046FEF7AA
:101E400015FB0023024628212046FEF781F90546AE
:101E50000190D1E7204600F02BFC05460190CBE72E
:101E60000131E1602046FFF77FFE00230246262174
:101E70002046FEF76DF905460190BDE70131E160AE
:101E80002046FFF771FE0023024624212046FEF77C
:101E90005FF905460190AFE70131E1602046FFF7A9
:101EA00063FE0023024622212046FEF751F9054633
:101EB0000190A1E70131E1602046FFF755FE0023C4
:101EC000024623212046FEF743F90546019093E799
:101ED0004B78A3F13002092A05D95F2B03D0413B8F
:101EE000192B00F2FC8100212046FEF741FBE3683C
:101EF00001901A780546492A7FF4DBAE0133E3608E
:101F00002046FFF795F92A46034604212046FEF7AE
:101F10001FF9054601906FE72046FEF789FAE6684B
:101F2000019033780546492B7FF466AF636B002B35
:101F300040F0E28100283FF4BBAED4E908218A4298
:101F4000BFF6B6AEE069511C40F8225021623278EB
:101F5000493A012A05D801362046E660FFF768F9BC
:101F600003462A46D1E701312046E160FEF77EFABA
:101F7000E36801901A780546492A00F095812046C9
:101F8000FFF7F2FD21210246019B2046FEF7E0F813
:101F90000546019030E74D1CE5604B785F2B00F063
:101FA0008181303B092B00F28C812B46194601338D
:101FB000E3601A78303A092AF8D9D4E90520824238
:101FC000A3EB0507BFF674AE0020D4F810C002F1F1
:101FD000010E0CEB0216874270604FEA0212C4F841
:101FE00014E07FF765AE70600CF80200C6E9025796
:101FF0004A785F2A7FF45CAE1D460135E5602046D5
:10200000FFF7B2FD324603462A212046FEF7A0F82C
:1020100005460190F0E601312046E160FFF7A4FD9E
:10202000054600283FF444AE2046FFF79DFD0346D9
:1020300000283FF43DAE2A462B212046FEF788F8C3
:1020400005460190D8E6D0E90532934280F28681B8
:1020500000272C2500695E1C00EB03121B01576052
:1020600001926661C5548B78303BDBB2092B94BF7B
:1020700001233B46938103D804F10C00FEF766F977
:102080002046019DFFF770FD019BA8609B68002B17
:102090003FF40EAE04F10C00FEF758F9E268137835
:1020A00013B1531CE3601378A3F17302019D5342F3
:1020B0005341EB81FDE500BFBCA90108D0E9053221
:1020C0009342BFF6F5AD00210E2022695E1C6661C9
:1020D000A44C02EB03151B016960D154C5E9024011
:1020E000E7E5D0E905329342BFF6E2AD04200021D6
:1020F00022695E1C66619C4C02EB0315834069609B
:10210000D154C5E90240D4E5D0E90532934280F2CA
:102110002181002627210269581C02EB03151B01AF
:102120006E606061D154E36A904A0433AA60E3624E
:10213000BFE5D0E90532934280F20C8100262721C9
:102140000269581C02EB03151B016E606061D154DB
:10215000E36A874A0933AA60E362AAE5D0E9053257
:10216000934280F2F780002627210269581C02EB77
:1021700003151B016E606061D154E36A7D4A0A3326
:10218000AA60E36295E5D0E90532934280F2E280ED
:10219000002627210269581C02EB03151B016E6003
:1021A0006061D154E36A744A0933AA60E36280E54E
:1021B0008B785F2B00F0C480FEF708F90546002DF0
:1021C0003FF476ADE3681A785F2A7FF471AD01338E
:1021D000E3602046FFF7C8FC2A4603462D2120462F
:1021E000FDF7B6FF0546019006E6D0E905329342B9
:1021F00080F2B080002627210269581C02EB0315EB
:102200001B016E606061D154E36A5C4A0733AA60C7
:10221000E3624EE5D0E90532934280F29B800026CE
:1022200027210269581C02EB03151B016E606061D7
:10223000D154E36A524A0833AA60E36239E5FFF7F2
:1022400093FC002302464B212046FDF781FF054603
:102250000190D1E5D0E9053293427BDA00262721AF
:102260000269581C02EB03151B016E606061D154BA
:10227000E36A444A1133AA60E3621AE5D0E9053201
:10228000934267DA002627210269581C02EB0315E6
:102290001B016E606061D154E36A3B4A0833AA6057
:1022A000E36206E50026A8E60133E3602046FEF778
:1022B000BFFF2A46034604212046FDF749FF01904F
:1022C0005DE60123256B20462363FEF77DFD256334
:1022D000064600283FF4ECACE3681A7889E620460D
:1022E000FFF77AFA0546019000283FF4E1AC037845
:1022F000182B7FF484ADDCE4731CE3602046D4F833
:102300001480276AE56AFEF793FFE26803461278B5
:10231000492A06D0E562E660019DC4F81480276270
:102320006AE5019A002A3FF4C3ACD4E9081081425F
:10233000BFF6BEACE569481C45F821202062E4E503
:1023400001230331056BC1600363FEF73DFD256387
:10235000054634E7002301939B68FFDE00231B70D2
:10236000FFDE00BFA4BC01089CBC010800AC010852
:10237000C4AB0108ECAB0108D8AB010814AC0108F0
:1023800028AC010850AC01083CAC0108F8B5C368A2
:1023900006461F785FBB4FF0000E43210022384DE8
:1023A0008B1A03EBD37302EB630318012C5805EB74
:1023B000031C2078B84206D08CBF19465A1C8A42AA
:1023C000EED10020F8BD60787045F5D1D6E9053230
:1023D0009342F6DA0025322132695C1C02EB0310CD
:1023E0001B0145607461D154C0F808C0F8BD5A1C87
:1023F000C26093F801E01F78BEF1000F02D1762F82
:10240000CBD0C8E79A1CC260762F93F801E01BD1AD
:10241000AEF13004E3B2092BBFD8FEF727F8D6E9B6
:1024200005318B420246CCDA002531695F1C01EB95
:10243000031045601B017761002AC2D03326456036
:10244000CE54C0E90242F8BD632FA6D1BEF1760F8B
:10245000A3D1D0E90C34B3FA83F35B094363FFF7EC
:1024600083FB736B024633B1002335213046FDF701
:102470006FFE7463F8BD34213046FDF769FEF8E75E
:1024800064AC0108002330B5C26883B001931378AF
:1024900023B3044601AD12E04F2B16D02046FFF7C0
:1024A00063FB0246D0B100232E212046FDF750FEEB
:1024B000286098B1E26800F10C05137843B1452B10
:1024C00006D02E2B04D0522BE6D15378452BE5D1E4
:1024D000019818B1C36823B103B030BD002003B028
:1024E00030BD826811782729F6D19268117C0929BC
:1024F000F2D15168E26A521AE2628360ECE700BFEF
:102500002DE9F04F0D46171E044615BF4FF01E0A69
:102510004FF01B0A4FF01D094FF01A0914BF4FF07E
:102520001C084FF019082E464FF0010BC16883B00C
:102530000B78722B14D0562B12D04B2B10D0442B6F
:1025400006D00FB9462B55D0304603B0BDE8F08F0A
:102550004A7802F0DF004F2802D0773A012AF0D8FB
:102560004A1C722BE26013D0562B27D04B2B1FD066
:102570004B78002B39D08B1CE360497878294ED0FA
:102580006F2921D1E26A002309324F21E26204E07F
:10259000E36A41460933E362002300222046FDF747
:1025A000D7FD306008B3E16800F108060B78C0E79A
:1025B000E36A51460633E3620023EEE7E36A4946E5
:1025C0000933E3620023E8E74F293BD1D4E90B321A
:1025D0000933C4E90B3B204601910092FEF7F4FB5E
:1025E000009A03460199226328BB0026304603B0B7
:1025F000BDE8F08FAE42A7D01D241E201C2105E0AF
:10260000192A15D003F10805AE429DD02B681A781F
:102610001A2A0AD01B2AF3D118702B68F2E7E26A53
:10262000002311324D21E262B7E71C702B68E9E705
:1026300019702B68E6E7E26810784528D5D1013299
:10264000E260AAE77729D0D1E36A20460633E36245
:10265000FFF718FF03460028C7D0E2681178452924
:10266000C3D15021EBE700BF70B5C36805461A78A7
:102670004A2A1AD081B12846FFF776FA044690B16B
:102680002846FFF7FFFE034668B122462846BDE80C
:1026900070402921FDF75CBD28460C46FFF7F2FE8D
:1026A00003460028F1D1002070BD0133C360E2E78A
:1026B00010B50446806810F480200BD1A26BB2F5EF
:1026C000006F06D8511CE368A1631978462907D02A
:1026D000A26310BDE3681A78462A01D0002010BD1D
:1026E0005A1CE2605A780121592A04BF0233E36080
:1026F0002046FFF7B9FF01462046FDF773FDE3686A
:102700001A78452A04BF0133E360A36818BF00208C
:102710005B03DED4A26B013ADAE700BFF8B5C2680A
:1027200004461378A3F1300109294FD9A3F16101BF
:10273000192914D86F2B04D153786E2B04BF0232A1
:10274000C2602046FFF722FE054610B10378322B07
:1027500049D0E368197842293FD02846F8BDA3F153
:10276000430101296CD94C2B5AD0552B63D1537896
:102770006C2B00F0D080742B5DD1531CC36051785A
:1027800074295BD10232C260FDF738FE0028C0F226
:10279000EF80D4E90532934280F2EA800021482696
:1027A00022695F1C02EB03151B0169606761D65447
:1027B000D4E908329342A86080F2DA80E069E268E6
:1027C000591C40F8235021621178C4E7FDF74EFEF2
:1027D000E368054619784229BFD129462046BDE85D
:1027E000F840FDF7A9BE8268E36A91680733126872
:1027F0000B44E36213786C2BABD15378692BA8D1CF
:102800009378002BA5D12046FDF730FE2A460346DB
:1028100037212046FDF79CFCE368054619789AE7C6
:102820000132C260FDF722FE054620B12046FDF7C9
:102830007FFF00288DD100252846F8BD00258AE7B6
:10284000806A18B1017851B3182928D0432B30D1B0
:102850005378492B00F09080A3F131010429EAD884
:10286000303B0232DEB2E260D4E905318B4280F2C5
:1028700097800027216903F1010C01EB03156F60BC
:102880001B01C4F814C0002800F090804FF0070C22
:102890006F6001F803C02E72E86011785BE7C168D1
:1028A000E36A0B44E362117843290B46D0D04429F4
:1028B000C4D15178303905292AD8DFE801F0031D49
:1028C000262923204FF0010CD4E90531951C8B42B9
:1028D000E56062DA002621695F1C01EB03156E607A
:1028E0001B01676100285ED008276E60CF5485F811
:1028F00008C0E86091782EE74FF0020CE4E74FF053
:10290000050CE1E74FF0040CDEE74FF0030CDBE7CA
:10291000194600251FE7531CC36051786C298DD1DF
:102920000232C260FFF7AEFDE368064608B31978CD
:10293000452983D101332046E360FDF75FFD002880
:1029400016DBD4E90532934212DA002146272269C8
:1029500003F1010C02EB03151B016960C4F814C0FC
:10296000D754D4E908329342C5E90260FFF626AF96
:10297000E36800251978EEE6531CE3609378A3F131
:102980003101042915D80332E260303B2046DEB223
:10299000FFF7EAF8A06AE26866E700259178DAE6D0
:1029A00000251178D7E605469178D4E605461178DA
:1029B000D1E600255178CEE6F8B5C26813784C2BE5
:1029C00032D1531CC360517805465F2934D05A294F
:1029D0000CD10133EB6000212846FEF765FCEB6863
:1029E0001A78452A20D10133EB60F8BDFFF7BCF817
:1029F0000246C8B10378272B06D18368197C19B128
:102A00005968EB6A5B1AEB62E86804786E2C0DD0AB
:102A10003D21452C38D0034603E0EB601C78452C63
:102A200012D00133002CF8D10020F8BD431CEB601C
:102A300044783E211846ECE7931CC36092785A2AEA
:102A400018BF0020CDD1C4E71C1AD5E905639E420A
:102A500018DA0027D5F810C006F1010E0CEB0613AA
:102A6000BC425F604FEA0616C5F814E00ADD5F60FD
:102A70000CF80670C3E902042846FDF769FBEB6811
:102A80001A78AEE70023F7E70024DEE72DE9F04FE0
:102A9000044697B0002A74D053681546012B70DCA9
:102AA000D0F81C21B2F5806F6BDC0E46591C6960B2
:102AB000D0F81871D0F82C0102F1010C02A9CDE96F
:102AC0000250C4F81CC1C4F82C11002F40F0DA8069
:102AD00095F800C0BCF1500F01F27482DFE81CF0E1
:102AE000320A230123014C05D10AD905090AFC0940
:102AF000D709B009890962093B091409ED08C6081C
:102B00009F0861083A081308EC07C5079E07770776
:102B10004C07FF00FF00FF00DA00DA00DA00DA00FD
:102B2000DA00DA00DA000C020C02DA00DA00410204
:102B30006F0225027B02E101DF02E1019D019D019F
:102B400056041204E903C203720A9B038F033B037A
:102B50003003A9069906000200025A015A016406D0
:102B60005206320603062507FE06D706B006720A8D
:102B700027050005D9047D04A50ADA00790ADA00E0
:102B8000DA000123C4F8183117B0BDE8F08FAA6845
:102B900093681B685978632902F0D8833146204630
:102BA00005F10C0303F064FE0746002842F0C683DB
:102BB000AB681A78322A02F098859B68CB4918686E
:102BC00006F06EF8EB6820B99A681178032902F0D4
:102BD000B386314620469A6803F0FAFDD5F808809E
:102BE000C349D8F80830D3F80090484606F058F8A2
:102BF0000746002842F06B85D4F80031FF2B0ED138
:102C00001946D4E9423284F8FF00204698473B46F3
:102C1000D4F82821C4F800710132C4F828215B22BD
:102C2000591CC4F80011E25484F80421EB683146C1
:102C3000DA682046FFF72AFFD4F80031FF2B0FD1C6
:102C400000261946D4E94232204684F8FF609847AE
:102C50003346D4F82821C4F800610132C4F8282191
:102C60005D22591CC4F80011E25484F80421AB68B9
:102C70001A78322A02F080846B68D4F81C210398F9
:102C8000013B013AC4F82C016B60C4F81C2117B059
:102C9000BDE8F08F00220021D4F81431CDE90751AE
:102CA000D4F81011069306ABA9460991C4F8143163
:102CB000002A35D031462046FFF7E8FE089B002B5E
:102CC00001F08B85069BC4F814310FB1C4F8108154
:102CD0006B68D4F81C210398013B013AD2E7D4F881
:102CE00014A15346BAF1000F0ED0996849B95A6839
:102CF0001278A2F11900022802F20E82944502F025
:102D0000F3811B68002BF0D1A9460023D4F81021D1
:102D1000CDE9079306ABCDF818A00992C4F8143199
:102D2000D9F80820C6E731462046AA68FFF7AEFE6C
:102D300016F0040A01F0A087D4F80031FF2B0FD160
:102D400000271946D4E94232204684F8FF7098479C
:102D50003B46D4F82821C4F800710132C4F8282178
:102D60002E22591CC4F80011E25484F80421D5F82D
:102D70000C8098F80030472B02F0D1814246204663
:102D80003146FFF783FE6B68D4F81C210398013BA2
:102D9000013A77E7AA681378272B02F054800027BE
:102DA000D4F80011FF290ED1D4E942324FF00008C7
:102DB000204684F8FF8098474146D4F82831AA6815
:102DC0000133C4F828312823481CC4F80001635497
:102DD000204684F804313146FFF758FED4F800311C
:102DE000FF2B02F004812922591CC4F80011E2547F
:102DF00084F804212B783E2B02F00C82082F01F07E
:102E000065872046EA683146FFF740FE6B68D4F8D4
:102E10001C210398013B013A34E7AA681AB13146F4
:102E20002046FFF733FEEB68002B02F02881D4F830
:102E30000031FD2B0ED90027E7541946D4E9423260
:102E4000204698473B46D4F82821C4F80071013247
:102E5000C4F82821DFF89C804FF02C094FF0000ABD
:102E6000194608F1010B0CE00B460131C345C4F8CB
:102E7000001104F8039084F8049101F0C78418F855
:102E8000019FFF29F0D1D4E94232204684F8FFA007
:102E900098470121D4F8282100230A44C4F82821A6
:102EA000E4E70021D4F81401D4F8103106AACDE9E2
:102EB0000751C4F81421069031462046EA68099368
:102EC000FFF7E4FD089B002B01F07C866B680699F8
:102ED000D4F81C210398C4F81411013B013AD1E63F
:102EE0000123C4F818316B68013BCBE694BE01089E
:102EF00098BE01086CBE0108D4F82031D5F80890BE
:102F00002BB999F80070052F02F0D2811F4699F86D
:102F10000030232B06D02A789A4203D0242B01F0CC
:102F20001681A946D4F814A1EFE6B30601F1718722
:102F3000AA68002A02F0868116F0400126F0600699
:102F400002F084812046D4F8143105F10C02314698
:102F500003F0F6F86B68D4F81C210398013B013AA2
:102F600090E616F00408AE6841F0D685D6E9006117
:102F700000293FF487AE06EB010909F1FF39D4F8C7
:102F80000011013E09E00B460131B145C4F80011C2
:102F9000E75484F8047101F0F185FF2916F8017FE8
:102FA000F1D1D4E94232204684F8FF8098470121CC
:102FB000D4F8282100230A44C4F82821E5E7204654
:102FC000AA683146FFF762FD6B68D4F81C210398AC
:102FD000013B013A56E6D4F814A100225146D4F838
:102FE00010310DF1180BCDE906A5CDE90823CDF878
:102FF00000A0C4F814B1002902F03A844FF001088F
:10300000B246C1465E46009F15E0BB688BB9B8F179
:10301000030F02F2128197E80F008CE80F004EF8C0
:10302000406C0BEB0816C4F8146108F10108C7F8EE
:1030300008903F684FB17B6816AA1B7802EB081E08
:10304000193B022BAEF1400CDFD9EA68514620460D
:10305000FFF71CFD009A089B5646C4F81421BBB923
:10306000B8F1010F0CD00BEB08180AAF58F80C2C74
:1030700031462046A8F1100802F05AFD4745F5D127
:1030800031462046D4F8143105F1080203F088FADD
:103090006B68D4F81C210398013B013AF2E5B5F9BD
:1030A0000E30002B41F09086AA68DB4B9168994264
:1030B00001F0848531462046FFF7E8FCD4F8003162
:1030C000FF2B0FD100261946D4E94232204684F85E
:1030D000FF6098473346D4F82821C4F800610132D4
:1030E000C4F828212022591CC4F80011E25484F8A5
:1030F0000421B5F90C30002B41F0BB83C74F984633
:103100005F2607F105090BE00B460131B945C4F80C
:103110000011E65484F8046101F0DD8317F8016FB3
:10312000FF29F1D1D4E94232204684F8FF80984744
:103130000121D4F8282100230A44C4F82821E5E716
:10314000EB681B78392B3FF422AD0123C4F818310A
:103150006B68013B96E5D5E9028798F80030322B81
:1031600001F09486342B42F02484D4F80031FF2BF4
:1031700010D14FF000091946D4E94232204684F8B4
:10318000FF9098474B46D4F82821C4F800910132AB
:10319000C4F828212822591CC4F80011E25484F8EC
:1031A000042131462046D8F80820FFF76FFCD4F8F8
:1031B0000031FF2B10D14FF000081946D4E94232FC
:1031C000204684F8FF8098474346D4F82821C4F865
:1031D00000810132C4F828212922591CC4F80011A9
:1031E000E25484F804213A462046314603F0F0FACE
:1031F0006B68D4F81C210398013B013A42E5204654
:10320000AA68314603F0A8FA6B68D4F81C21039829
:10321000013B013A36E5824F4FF06F084FF000094D
:10322000D4F8001107F1080A0CE00B460131BA4549
:10323000C4F8001104F8038084F8048101F0F480DC
:1032400017F8018FFF29F0D1D4E94232204684F8E3
:10325000FF9098470121D4F8282100230A44C4F89C
:103260002821E4E76E4F4FF06F084FF00009D4F8C3
:10327000001107F1080A0CE00B460131BA45C4F809
:10328000001104F8038084F8048101F0708017F8BD
:10329000018FFF29F0D1D4E94232204684F8FF9013
:1032A00098470121D4F8282100230A44C4F8282192
:1032B000E4E7D5F808905B4E6F274FF0000AD9F885
:1032C0000880D4F8001106F1070B0BE00A46013123
:1032D000B345C4F80011A75484F8047101F0548078
:1032E00016F8017FFF29F1D1D4E94232204684F853
:1032F000FFA098470121D4F8283100220B44C4F8DC
:103300002831E5E7D5E902281AB131462046FFF712
:10331000BDFBD4F80031FF2B0DD100271946D4E9AD
:103320004232204684F8FF7098473B46D4F8282163
:103330000132C4F828217B27581CC4F8000131460B
:10334000E7544246204684F80471FFF79FFBD4F807
:103350000011FF290CD1D4E942320026204684F81E
:10336000FF6098473146D4F828310133C4F828313A
:103370007D234A1CC4F80021635484F804316B682F
:10338000D4F81C210398013B013A7BE4264F4FF00F
:1033900074084FF00009D4F8001107F11D0A0CE081
:1033A0000B460131BA45C4F8001104F8038084F8D3
:1033B000048100F0078717F8018FFF29F0D1D4E9C5
:1033C0004232204684F8FF9098470121D4F8282102
:1033D00000230A44C4F82821E4E72046A968FDF741
:1033E000EFF94FF0000A002802F0A68103782F2B96
:1033F00041F031828368002B01F02D82C0680AF110
:10340000010A0028F2D1AB681A460AF1FF33904650
:10341000A146009301950DE05CAA01085CBE01087D
:103420007CBE010870BE0108ECBC01080137BA453A
:1034300041F3E281424631464846C9F82471FFF71C
:1034400025FB009B9F42F1DADC4C2C25D9F80011BA
:1034500004F1010B0BE00A460131A345C9F8001144
:1034600009F8025089F80451E0D014F8015FFF29EF
:10347000F1D14FF00003484689F8FF30D9E94232D4
:1034800098470121D9F8283100220B44C9F8283186
:10349000E3E7CB4F4FF06E084FF00009D4F800116E
:1034A00007F1190A0CE00B460131BA45C4F80011C6
:1034B00004F8038084F8048100F0628617F8018F15
:1034C000FF29F0D1D4E94232204684F8FF90984792
:1034D0000121D4F8282100230A44C4F82821E4E774
:1034E000B84F4FF074084FF00009D4F8001107F1FD
:1034F000150A0CE00B460131BA45C4F8001104F876
:10350000038084F8048100F02E8617F8018FFF29CC
:10351000F0D1D4E94232204684F8FF909847012147
:10352000D4F8282100230A44C4F82821E4E7A64E51
:103530007B274FF00008D4F8001106F10D090BE0CD
:103540000B460131B145C4F80011E75484F8047109
:1035500001F0758016F8017FFF29F1D1D4E94232DC
:10356000204684F8FF8098470121D4F828210023C1
:103570000A44C4F82821E5E70023D4F81421D5F83B
:1035800008800092C4F81431B8F1000F01F0D3871D
:103590000DF1180B1F4618465A46D4F810E1C2E93F
:1035A0000038C2E9020E98F8001013464D2907F1C1
:1035B0000107A1F11C09A1F14F0C01F03C8100F2BF
:1035C000CA85B9F1040F41F236810229C4F81421E9
:1035D00016D1D8F80C8098F80030472B02F0C6803E
:1035E0000BEB071C98F800304D2BA3F11C01A3F145
:1035F0004F0201F04F8501F24A85042941F24A85C4
:1036000098F80030042B04D1CDE904E804ABC4F8E9
:10361000103131462046EA68FFF738FA98F8003052
:10362000042B02D1049BC4F810314FF02008A946A6
:103630000BEB071757F8085CE5B9D4F80011FF2920
:103640000BD1D4E94232204684F8FF5098472946EE
:10365000D4F828310133C4F828314B1CC4F80031A8
:10366000204604F8018057F80C2C314684F8048178
:1036700002F05EFA103FBB45DCD14D46009BC4F81A
:1036800014316B68D4F81C210398013B013AFFF711
:10369000F9BAD4F82031002B01F0E9814B4E6127B3
:1036A0004FF00008D4F8001106F104090BE00B46B6
:1036B0000131B145C4F80011E75484F8047101F0F8
:1036C000F68116F8017FFF29F1D1D4E94232204674
:1036D00084F8FF8098470121D4F8282100230A4468
:1036E000C4F82821E5E7AA68394906A80FF076FC56
:1036F00006A80FF009FD002800F04F8506AE4FF038
:103700000008D4F8001106EB000909E00B4601316E
:10371000B145C4F80011E75484F8047100F03D8508
:10372000FF2916F8017BF1D1D4E94232204684F812
:10373000FF8098470121D4F8282100230A44C4F8C7
:103740002821E5E7D4F800112E7AFF2912D1D4E917
:1037500042320027204684F8FF709847D4F82801A9
:103760006B68D4F81C213946471C0398C4F82871AB
:10377000013B013A4F1CC4F80071665484F804619F
:10378000FFF780BA31462046AA68FFF77FF9204646
:10379000EA683146FFF77AF96B68D4F81C21039880
:1037A000013B013AFFF76EBA0A4F4FF06A084FF03B
:1037B0000009D4F8001107F10D0A1AE06CBE0108E7
:1037C00038BE01083CBE010848BF0108E4BC01083E
:1037D000D0BC0108C8BE01080B460131BA45C4F887
:1037E000001104F8038084F8048100F0DE8417F8E7
:1037F000018FFF29F0D1D4E94232204684F8FF90AE
:1038000098470121D4F8282100230A44C4F828212C
:10381000E4E7EB6819783B2904D1DB681B783C2B83
:1038200001F04B860123C4F818316B68013BFFF7A8
:1038300029BA0123C4F818316B68013BFFF722BA9B
:10384000DD4F4FF07B084FF00009D4F8001107F16D
:10385000070A0CE00B460131BA45C4F8001104F820
:10386000038084F8048100F0D48417F8018FFF29C5
:10387000F0D1D4E94232204684F8FF9098470121E4
:10388000D4F8282100230A44C4F82821E4E7CB4FC8
:103890004FF067084FF00009D4F8001107F11B0A38
:1038A0000CE00B460131BA45C4F8001104F803805E
:1038B00084F8048100F0A08417F8018FFF29F0D16B
:1038C000D4E94232204684F8FF9098470121D4F889
:1038D000282100230A44C4F82821E4E7B84F4FF018
:1038E00067084FF00009D4F8001107F11C0A0CE03A
:1038F0000B460131BA45C4F8001104F8038084F87E
:10390000048100F06C8417F8018FFF29F0D1D4E90D
:103910004232204684F8FF9098470121D4F82821AC
:1039200000230A44C4F82821E4E7A64F4FF06408B6
:103930004FF00009D4F8001107F1090A0CE00B461A
:103940000131BA45C4F8001104F8038084F80481F9
:1039500000F0E88417F8018FFF29F0D1D4E9423252
:10396000204684F8FF9098470121D4F828210023AD
:103970000A44C4F82821E4E7D5E9026100293FF4AC
:1039800081A906EB01094FF00008D4F8001109F1F4
:10399000FF39013E09E00B460131B145C4F8001181
:1039A000E75484F8047100F01F87FF2916F8017F9F
:1039B000F1D1D4E94232204684F8FF8098470121B2
:1039C000D4F8282100230A44C4F82821E5E77E4FD3
:1039D0004FF068084FF00009D4F8001107F1100A01
:1039E0000CE00B460131BA45C4F8001104F803801D
:1039F00084F8048100F0398517F8018FFF29F0D190
:103A0000D4E94232204684F8FF9098470121D4F847
:103A1000282100230A44C4F82821E4E76B4F4FF023
:103A200072084FF00009D4F8001107F1140A0CE0F5
:103A30000B460131BA45C4F8001104F8038084F83C
:103A4000048100F07A8517F8018FFF29F0D1D4E9BD
:103A50004232204684F8FF9098470121D4F828216B
:103A600000230A44C4F82821E4E7594F4FF05408D2
:103A70004FF00009D4F8001107F1180A0CE00B46CA
:103A80000131BA45C4F8001104F8038084F80481B8
:103A900000F0468517F8018FFF29F0D1D4E94232B2
:103AA000204684F8FF9098470121D4F8282100236C
:103AB0000A44C4F82821E4E7464F4FF054084FF079
:103AC0000009D4F8001107F1150A0CE00B4601318A
:103AD000BA45C4F8001104F8038084F8048100F0AA
:103AE000128517F8018FFF29F0D1D4E94232204620
:103AF00084F8FF9098470121D4F8282100230A4434
:103B0000C4F82821E4E7344F4FF067084FF000096C
:103B1000D4F8001107F1120A0CE00B460131BA4546
:103B2000C4F8001104F8038084F8048100F0DE84F6
:103B300017F8018FFF29F0D1D4E94232204684F8EA
:103B4000FF9098470121D4F8282100230A44C4F8A3
:103B50002821E4E7214F4FF06A084FF00009D4F81C
:103B6000001107F10E0A0CE00B460131BA45C4F80A
:103B7000001104F8038084F8048100F0AA8417F887
:103B8000018FFF29F0D1D4E94232204684F8FF901A
:103B900098470121D4F8282100230A44C4F8282199
:103BA000E4E70F4F4FF063084FF00009D4F800111D
:103BB00007F1190A23E000BF38BF010818BF010848
:103BC000F8BE0108D8BE010824BE01080CBE0108D9
:103BD000F0BD0108D8BD0108C4BD0108B4BD01088D
:103BE00098BD01080B460131BA45C4F8001104F82C
:103BF000038084F8048100F05F8417F8018FFF29A7
:103C0000F0D1D4E94232204684F8FF909847012150
:103C1000D4F8282100230A44C4F82821E4E7E04F1F
:103C20004FF076084FF00009D4F8001107F1100AA0
:103C30000CE00B460131BA45C4F8001104F80380CA
:103C400084F8048100F02B8417F8018FFF29F0D14C
:103C5000D4E94232204684F8FF9098470121D4F8F5
:103C6000282100230A44C4F82821E4E7CD4F4FF06F
:103C70006E084FF00009D4F8001107F1140A0CE0A7
:103C80000B460131BA45C4F8001104F8038084F8EA
:103C9000048100F0F78317F8018FFF29F0D1D4E9F0
:103CA0004232204684F8FF9098470121D4F8282119
:103CB00000230A44C4F82821E4E7BB4F4FF07408FE
:103CC0004FF00009D4F8001107F10F0A0CE00B4681
:103CD0000131BA45C4F8001104F8038084F8048166
:103CE00000F0668517F8018FFF29F0D1D4E9423240
:103CF000204684F8FF9098470121D4F8282100231A
:103D00000A44C4F82821E4E7A84F4FF074084FF0A4
:103D10000009D4F8001107F1110A0CE00B4601313B
:103D2000BA45C4F8001104F8038084F8048100F057
:103D3000328517F8018FFF29F0D1D4E942322046AD
:103D400084F8FF9098470121D4F8282100230A44E1
:103D5000C4F82821E4E7964F4FF074084FF00009AB
:103D6000D4F8001107F10C0A0CE00B460131BA45FA
:103D7000C4F8001104F8038084F8048100F0FE8484
:103D800017F8018FFF29F0D1D4E94232204684F898
:103D9000FF9098470121D4F8282100230A44C4F851
:103DA0002821E4E7834F4FF063084FF00009D4F86F
:103DB000001107F1170A0CE00B460131BA45C4F8AF
:103DC000001104F8038084F8048100F09F8417F840
:103DD000018FFF29F0D1D4E94232204684F8FF90C8
:103DE00098470121D4F8282100230A44C4F8282147
:103DF000E4E7714F4FF056084FF00009D4F8001176
:103E000007F1070A0CE00B460131BA45C4F800116E
:103E100004F8038084F8048100F06B8417F8018FA4
:103E2000FF29F0D1D4E94232204684F8FF90984728
:103E30000121D4F8282100230A44C4F82821E4E70A
:103E40005E4F4FF076084FF00009D4F8001107F1EB
:103E50000A0A0CE00B460131BA45C4F8001104F817
:103E6000038084F8048100F0378417F8018FFF295C
:103E7000F0D1D4E94232204684F8FF9098470121DE
:103E8000D4F8282100230A44C4F82821E4E7D4F810
:103E90000011FF290CD1D4E942320027204684F8D2
:103EA000FF7098473946D4F828310133C4F82831D7
:103EB0007E234A1CC4F80021635484F80431204650
:103EC000EA683146FEF7E2FD6B68D4F81C210398DE
:103ED000013B013AFEF7D6BE2046EA683146FEF7BE
:103EE000D5FD6B68D4F81C210398013B013AFEF71D
:103EF000C9BED5F80880B8F1000F40F04585304EB6
:103F00007427D4F8001106F103090BE00B460131C8
:103F1000B145C4F80011E75484F8047100F0268616
:103F200016F8017FFF29F1D1D4E94232204684F806
:103F3000FF8098470121D4F8282100230A44C4F8BF
:103F40002821E5E716F0040840F0CD84D5E90261A8
:103F500000293EF497AE06EB010909F1FF39D4F8C8
:103F60000011013E09E00B460131B145C4F80011D2
:103F7000E75484F8047100F01186FF2916F8017FD8
:103F8000F1D1D4E94232204684F8FF8098470121DC
:103F9000D4F8282100230A44C4F82821E5E700BF0B
:103FA00084BD010880BD01086CBD010858BD010831
:103FB00048BD010824BD010818BD01080CBD010859
:103FC000E8BE01080123C4F818316B68013BFEF715
:103FD00059BED04F31462046AA68FEF757FD4FF034
:103FE00020084FF00009D4F8001107F1070A0CE08F
:103FF0000B460131BA45C4F8001104F8038084F877
:10400000048100F0D28217F8018FFF29F0D1D4E9A2
:104010004232204684F8FF9098470121D4F82821A5
:1040200000230A44C4F82821E4E7BB4F3146204668
:10403000AA68FEF72BFD4FF05B084FF00009D4F89B
:10404000001107F1040A0CE00B460131BA45C4F82F
:10405000001104F8038084F8048100F0CB8217F883
:10406000018FFF29F0D1D4E94232204684F8FF9035
:1040700098470121D4F8282100230A44C4F82821B4
:10408000E4E700237207D4F81481D4F84871D5F816
:104090000890C4F81431C4F8485107D599F8003095
:1040A00023B9D9F80C20062A01F0C3824A463146CA
:1040B0002046FEF7EBFC94F804313C2B00F06686BA
:1040C000D4F80011FF290DD1D4E942324FF0000994
:1040D000204684F8FF9098474946D4F828310133A8
:1040E000C4F828313C234A1CC4F80021635484F8E6
:1040F000043131462046EA68FEF7C8FC94F80431E2
:104100003E2B00F02686D4F80011FF290CD1D4E90B
:1041100042320026204684F8FF6098473146D4F8A2
:1041200028310133C4F828313E234A1CC4F8002149
:10413000635484F804316B68D4F81C210398C4F8E4
:104140001481C4F84871013B013AFEF79BBDD9F8D0
:104150000820FEF7A0BDBCF1010F40F26C83C4F84B
:104160001421FFF74DBA2046AA683146FEF78EFCAF
:104170006B68D4F81C210398013B013AFEF782BD1D
:104180002046AA683146FEF781FC6B68D4F81C21F2
:104190000398013B013AFEF775BD6B68D4F81C210A
:1041A0000398013B013AFEF76DBD2046AA683146EF
:1041B000FEF76CFC6B68D4F81C210398013B013AB4
:1041C000FEF760BD2046AA683146FEF75FFC6B68CB
:1041D000D4F81C210398013B013AFEF753BD204659
:1041E000AA683146FEF752FC6B68D4F81C2103988C
:1041F000013B013AFEF746BD2046AA683146FEF76C
:1042000045FC6B68D4F81C210398013B013AFEF78A
:1042100039BDD4F8203131460133C4F8203120466D
:10422000AA68FEF733FCD4F820313C4E013B292725
:104230004FF00008D4F80011C4F8203106F101094C
:104240000AE00B460131B145C4F80011E75484F887
:10425000047111D016F8017FFF29F2D1D4E942325E
:10426000204684F8FF8098470121D4F828210023B4
:104270000A44C4F82821E6E7EA682949013206A879
:104280000EF0ACFE06A80EF03FFF10B306AE4FF0E6
:104290000008D4F8001106EB000908E00B460131D4
:1042A000B145C4F80011E75484F8047113D0FF2914
:1042B00016F8017BF2D1D4E94232204684F8FF801F
:1042C00098470121D4F8282100230A44C4F8282162
:1042D000E6E7D4F80011FF290CD1D4E942320026D8
:1042E000204684F8FF6098473146D4F828310133DE
:1042F000C4F828317D234A1CC4F80021635484F893
:1043000004316B68D4F81C210398013B013AFEF795
:10431000B9BC00BF58BF0108B4BC010844BF0108C4
:10432000D0BC010831462046AA68FEF7AFFBD4F89E
:104330000011FF290CD1D4E942320026204684F82E
:10434000FF6098473146D4F828310133C4F828314A
:1043500029234A1CC4F80021635484F804316B6893
:10436000D4F81C210398013B013AFEF78BBC204690
:10437000EA683146FEF78AFB6B68D4F81C21039883
:10438000013B013AFEF77EBCD9F804603378613B0B
:10439000192B1AD8FF290DD1D4E942320026204624
:1043A00084F8FF609847D4F82831C4F800610133DD
:1043B000C4F828312023D4F80021511CC4F800117E
:1043C000A35484F80431D9F8046006EB080313F809
:1043D000013C202B08BF08F1FF38B8F1000F01F0B5
:1043E000F880013E4FF00009D4F80011B04409E014
:1043F0000B460131B045C4F80011E75484F804714C
:1044000000F0E381FF2916F8017FF1D1D4E94232AF
:10441000204684F8FF9098470121D4F828210023F2
:104420000A44C4F82821E5E7D4F8483133B1D4F878
:10443000101106AACDE90613C4F81021AA68137852
:10444000042B00F0C68331462046FEF71FFBD4F84C
:10445000483113B1069BC4F810316B68D4F81C21A5
:104460000398013B013AFEF70DBC2046AA6831468D
:10447000FEF70CFB6B68D4F81C210398013B013A52
:10448000FEF700BC2046AA683146FEF7FFFA6B68CB
:10449000D4F81C210398013B013AFEF7F3BB2046F8
:1044A000AA683146FEF7F2FA6B68D4F81C2103982B
:1044B000013B013AFEF7E6BB2046AA683146FEF70B
:1044C000E5FA6B68D4F81C210398013B013AFEF72A
:1044D000D9BB2046AA683146FEF7D8FA6B68D4F8F3
:1044E0001C210398013B013AFEF7CCBB2046AA6889
:1044F0003146FEF7CBFA6B68D4F81C210398013BD8
:10450000013AFEF7BFBB2046AA683146FEF7BEFA65
:104510006B68D4F81C210398013B013AFEF7B2BB4B
:104520002046AA683146FEF7B1FA6B68D4F81C2120
:104530000398013B013AFEF7A5BBD14F3146204617
:10454000EA68FEF7A3FA4FF020084FF00009D4F80C
:10455000001107F1040A0BE00B460131BA45C4F81B
:10456000001104F8038084F8048111D017F8018F3A
:10457000FF29F1D1D4E94232204684F8FF909847D0
:104580000121D4F8282100230A44C4F82821E5E7B2
:104590002046AA683146FEF779FA6B68D4F81C21E8
:1045A0000398013B013AFEF76DBB31462046EA68AD
:1045B000FEF76CFAD4F80011FF290CD1D4E942328D
:1045C0000026204684F8FF6098473146D4F8283109
:1045D0000133C4F828315D234A1CC4F80021635418
:1045E00084F804316B68D4F81C210398013B013A2C
:1045F000FEF748BB31462046EA68FEF747FAD4F892
:104600000011FF290CD1D4E942320026204684F85B
:10461000FF6098473146D4F828310133C4F8283177
:104620005D234A1CC4F80021635484F804316B688C
:10463000D4F81C210398013B013AFEF723BBAA687A
:104640009049013206A80EF0C9FC06A80EF05CFDE8
:1046500010B306AE4FF00008D4F8001106EB0009C5
:1046600008E00B460131B145C4F80011E75484F865
:10467000047113D0FF2916F8017BF2D1D4E942323C
:10468000204684F8FF8098470121D4F82821002390
:104690000A44C4F82821E6E7D4F80011FF290CD118
:1046A000D4E942320026204684F8FF60984731461C
:1046B000D4F828310133C4F828317D234A1CC4F8CA
:1046C0000021635484F804316B68D4F81C210398EA
:1046D000013B013AFEF7D6BA2046AA683146FEF7FA
:1046E000D5F96B68D4F81C210398013B013AFEF719
:1046F000C9BA2046AA683146FEF7C8F96B68D4F8F3
:104700001C210398013B013AFEF7BCBA5E4F3146CB
:104710002046AA68FEF7BAF94FF02D084FF00009BD
:10472000D4F8001107F1030A0BE00B460131BA453A
:10473000C4F8001104F8038084F8048111D017F83C
:10474000018FFF29F1D1D4E94232204684F8FF904D
:1047500098470121D4F8282100230A44C4F82821CD
:10476000E5E72046EA683146FEF790F96B68D4F831
:104770001C210398013B013AFEF784BA2046AA683F
:104780003146FEF783F96B68D4F81C210398013B8E
:10479000013AFEF777BA2046AA683146FEF776F965
:1047A0006B68D4F81C210398013B013AFEF76ABA02
:1047B0002046AA683146FEF769F96B68D4F81C21D7
:1047C0000398013B013AFEF75DBA6B68D4F81C21EF
:1047D0000398013B013AFEF755BA4A463146204656
:1047E00001F0A6F9FEF76EBA6B68D4F81C210398A5
:1047F000013B013AFEF746BA019DD9F81C216B68CE
:104800004C460398013B013AFEF73CBA0F4620465E
:104810003146EA68D4F82861FEF738F9D4F828312F
:104820009E4200F051846B68D4F81C210398013B30
:10483000013AFEF727BAD8F80880B8F1000F00F067
:104840007886042F02F110027EF4A9AE0122C4E999
:104850004532FEF716BFAB681A46BAF1000F7EF478
:10486000D4AD6B68D4F81C210398013B013AFEF7E4
:1048700009BA064E5F274FF0000806F1050912E05D
:1048800004BE0108D0BC010840BD010864BE010897
:104890000B460131B145C4F80011E75484F80471A6
:1048A00011D016F8017FFF29F2D1D4E94232204617
:1048B00084F8FF8098470121D4F8282100230A4476
:1048C000C4F82821E6E76B68D4F81C210398013B63
:1048D000013AFEF7D7B96B68D4F81C210398013B65
:1048E000013AFEF7CFB9D5E9026106EB010846456A
:1048F000BEF4C8A94FF0000909E04B1CC4F8003110
:10490000675484F804710136B04540F24F81A8EB3A
:104910000603032B377801DD5F2F11D0D4F8001187
:10492000FF29EAD1D4E94232204684F8FF90984723
:104930000123D4F8282100211A44C4F82821DDE7F6
:1049400073785F2BEAD1B378552BE7D1F31C9845E8
:10495000E4D9002005E01746984507EB001000F069
:1049600095879A4613F8017BA7F130025FFA82FC23
:10497000BCF1090FA7F14101EDD90529A7F16102A9
:1049800000F2DE85373FE7E7CD4E7B274FF0000989
:10499000D4F8001106F1050A0AE00B460131B245D0
:1049A000C4F80011E75484F8047111D016F8017F9F
:1049B000FF29F2D1D4E94232204684F8FF9098478B
:1049C0000121D4F8282100230A44C4F82821E6E76D
:1049D0004246BC4906A80EF001FB06A80EF094FB67
:1049E000814608B306AE4FF00008D4F80011B14478
:1049F00008E00B460131B145C4F80011E75484F8D2
:104A0000047111D0FF2916F8017BF2D1D4E94232AA
:104A1000204684F8FF8098470121D4F828210023FC
:104A20000A44C4F82821E6E7D4F80031FF2B0FD15F
:104A300000261946D4E94232204684F8FF609847A0
:104A40003346D4F82821C4F800610132C4F8282183
:104A50007D22591CC4F80011E25484F804216B68CB
:104A6000D4F81C210398013B013AFEF70BB920460C
:104A700005F10801FBF794FE0246002800F071855D
:104A800003782F2B00F06285D4F8107120463B6824
:104A90003146C4F81031FDF7F9FF6B68D4F81C21DA
:104AA0000398C4F81071013B013AFEF7EBB8AA680D
:104AB0008449013206A80EF091FA06A80EF024FBF4
:104AC000814608B306AE4FF00008D4F80011B14497
:104AD00008E00B460131B145C4F80011E75484F8F1
:104AE000047111D0FF2916F8017BF2D1D4E94232CA
:104AF000204684F8FF8098470121D4F8282100231C
:104B00000A44C4F82821E6E76B68D4F81C2103980E
:104B1000013B013AFEF7B6B8D6E9026100293EF43E
:104B2000B1A806EB01094FF00008D4F8001109F113
:104B3000FF39013E08E00B460131B145C4F80011D0
:104B4000E75484F8047121D0FF2916F8017FF2D1CF
:104B5000D4E94232204684F8FF8098470121D4F8F6
:104B6000282100230A44C4F82821E6E76B68D4F81A
:104B70001C210398013B013AFEF784B86B68D4F816
:104B80001C210398013B013AFEF77CB86B68D4F80E
:104B90001C210398013B013AFEF774B86B68D4F806
:104BA0001C210398013B013AFEF76CB86B68D4F8FE
:104BB0001C210398013B013AFEF764B8D4F80011B8
:104BC000FEF797BA31462A46204600F0B1FFFEF7BD
:104BD0007DB9314620469268FDF758FFD4F8483138
:104BE00013B1069BC4F8103194F804313C2B00F04B
:104BF0005185D4F80031FF2B0FD100271946D4E995
:104C00004232204684F8FF7098473B46D4F828216A
:104C1000C4F800710132C4F828213C22591CC4F8A0
:104C20000011E25484F80421AB683146DA6820466A
:104C3000FDF72CFF94F804313E2B00F00E85D4F8DC
:104C40000031FF2B0FD100261946D4E9423220460D
:104C500084F8FF6098473346D4F82821C4F80061EF
:104C60000132C4F828213E22591CC4F80011E25434
:104C700084F80421FFF7F1BB134FD4F8001107F1BA
:104C800002090AE00B460131B945C4F8001104F8E5
:104C9000038084F804813EF46AA8FF2917F8018B89
:104CA000F0D1D4E94232204684F8FFA09847012190
:104CB000D4F8282100230A44C4F82821E4E700BFDF
:104CC000F0BE0108D0BC0108BCBC0108D4F800311A
:104CD000FF2B0FD100271946D4E94232204684F831
:104CE000FF7098473B46D4F82821C4F80071013280
:104CF000C4F828215B22591CC4F80011E25484F83E
:104D0000042131462046EA68FDF7C0FED4F80031A0
:104D1000FF2B0FD100261946D4E94232204684F8F1
:104D2000FF6098473346D4F82821C4F80061013267
:104D3000C4F828215D22591CC4F80011E25484F8FB
:104D400004216B68D4F81C210398013B013AFDF75C
:104D500099BFD4F80031FF2B0FD100261946D4E9B2
:104D60004232204684F8FF6098473346D4F8282121
:104D7000C4F800610132C4F828212022591CC4F86B
:104D80000011E25484F80421FFF7BDB9D4F80031D2
:104D9000FF2B10D14FF000091946D4E942322046CA
:104DA00084F8FF9098474B46D4F82821C4F8009126
:104DB0000132C4F828212022591CC4F80011E25401
:104DC00084F80421FFF77CB9CE4F4FF0000AD4F8E5
:104DD000001107F105090AE00B460131B945C4F895
:104DE000001104F8038084F804813EF45DA9FF29D2
:104DF00017F8018BF0D1D4E94232204684F8FFA0A5
:104E000098470121D4F8282100230A44C4F8282116
:104E1000E4E726F0600605F10C0231462046D4F89E
:104E2000143101F08DF9AA68002A00F09784204619
:104E30003146FDF72BFE6B68D4F81C210398013B2B
:104E4000013AFDF71FBF93681F7C062F00F2F28026
:104E5000002F3DF4A5AFEB6893F80080B8F1000F88
:104E60007DF49EAFBCF13E0F00F0BD85314620467B
:104E7000EA68023FFDF70AFE042F00F24786DFE8EA
:104E800017F0D805220615060806FB05D8F80830E5
:104E90009D49D3F800A0504603F002FF3B7810B9BB
:104EA000032B00F05785392B00F034855046974985
:104EB00003F0F6FE8146002800F0EB849AF80030FB
:104EC000732B2BD19AF80130502B27D19AF802304E
:104ED00023BB1E4603E0FF68002F00F0B1823B7841
:104EE0002F2B40F0AD82BB68002B00F0A9821A780E
:104EF0004B2A18BF0136EED120469968FBF760FCBB
:104F0000024648B1002204E0816829B1C06801323C
:104F100010B101782F29F7D01644DCE7424631461C
:104F2000204601F019FC9AF80030672B13D19AF84B
:104F30000130732B0FD19AF8023063B93A462046FC
:104F40003146FDF7A3FD6B68D4F81C210398013BA3
:104F5000013AFDF797BE50466D4903F0A1FE804629
:104F600000287EF440A9D4F80031FF2B0ED1194659
:104F7000D4E9423284F8FF00204698474346D4F8EB
:104F80002821C4F800810132C4F828214FF0280CF0
:104F9000581CC4F800013A4604F803C031462046C4
:104FA00084F804C1FDF772FDD4F80031FF2B0FD156
:104FB00000261946D4E94232204684F8FF6098471B
:104FC0003346D4F82821C4F800610132C4F82821FE
:104FD0002922591CC4F80011E25484F804216B689A
:104FE000D4F81C210398013B013AFDF74BBE002287
:104FF000194684F8FF202046D4E94232984701211F
:105000002922D4F82831C4F800110B44C4F82831FF
:10501000227084F804212B783E2B7DF4EFAE2D23F3
:10502000D4F80021511CC4F80011A35484F80431B1
:10503000FDF7E4BE072F7DF4B3AEEB6819780029C5
:105040007DF4AEAED96801297DF4AAAEBCF13D0F66
:105050007DF4A6AE9B681B78302B00F0B184312B19
:105060007DF49EAE042220462A49FBF73DF96B6889
:10507000D4F81C210398013B013AFDF703BE6B688D
:10508000D4F81C210398013B013AFDF7FBBD012A2E
:105090003EF6BFAA042F0CF1100AACF1100900F083
:1050A0004A8299E80F008CE80F0000234AF81C8C14
:1050B0004AF8183CD8F80880C4F814C14AE905E950
:1050C000D4460137FEF78EBAD4F80031BB427FF4E4
:1050D000AAAB6B68D4F81C21023F0398C4F8007196
:1050E000013B013AFDF7CEBD2046AA683146FDF7E7
:1050F000CDFC6B68D4F81C210398013B013AFDF705
:10510000C1BD00BF54BE010888BE01088CBE0108A5
:10511000B4C10108C0BE01080F46FDF7F5BDD14F6F
:105120004FF0000BD4F8001107F10D0A09E00A4610
:105130000131BA45C4F8001104F8029084F80491D2
:1051400011D0FF2917F8019BF1D1D4E94232204652
:1051500084F8FFB098470121D4F8283100220B448D
:10516000C4F82831E5E7D8F80C20BF49013206A879
:105170000DF034FF06A80DF0C7FF814610B306AF4F
:105180004FF0000BD4F80011B94409E00A46013190
:10519000B945C4F8001104F802A084F804A111D0A4
:1051A000FF2917F801ABF1D1D4E94232204684F847
:1051B000FFB098470121D4F8283100220B44C4F8ED
:1051C0002831E5E7A94F4FF0000BD4F8001107F1A3
:1051D000030A09E00A460131BA45C4F8001104F88F
:1051E000029084F8049111D0FF2917F8019BF1D1A6
:1051F000D4E94232204684F8FFB098470121D4F820
:10520000283100220B44C4F82831E5E7D8F808809B
:10521000FDF7B4BDFF297FF402AFD4E942324FF06D
:105220000008204684F8FF809847D4F82831C4F855
:1052300000810133C4F82831F1E60123C4F81831A4
:10524000FDF726BF26F06006FDF77CBED4F81401FA
:1052500006ABC4F81431D4F81031CDE907510690EB
:10526000314620460993FDF711FC069B089FC4F8C0
:105270001431002F40F0F482D4F80031FF2B0ED10E
:105280001946D4E94232204684F8FF7098473B46DD
:10529000D4F82821C4F800710132C4F82821202252
:1052A000591CC4F80011E25484F80421FDF74ABEE9
:1052B000D4E94CC7002F40F39581E646924604E0BE
:1052C0009F420EF1080E00F08C815CF83320013310
:1052D0009145F5D10B4603E05B68002B00F04E8250
:1052E0001A68914503D09542F6D18B42F4D009F16A
:1052F00008012046FBF754FA8146A0B1002799F82F
:1053000000302F2B7DF403AED4F824110029C0F215
:1053100064834846FBF732FA814600287DF4F7ADF6
:105320000FB1C4F810810123C4F818316B68D4F8A8
:105330001C210398013B013AFDF7A4BC6B68D4F82B
:105340001C210398013B013AFDF79CBC1B78A3F19B
:105350006301012903D9723B012B3DF61FAC314695
:10536000204601F0F9F9D4F80031FF2B0FD10027C6
:105370001946D4E94232204684F8FF7098473B46EC
:10538000D4F82821C4F800710132C4F828213C2245
:10539000591CC4F80011E25484F80421EB68344F1E
:1053A000314620469A68FDF771FB4FF00008D4F8AB
:1053B000001107F1020A09E00B46591CBA45C4F86E
:1053C000001104F8039084F8049110D0FF2917F815
:1053D000019BF1D1D4E94232204684F8FF809847FE
:1053E000D4F8282100230132C4F82821E5E7EB682E
:1053F0003146DA682046FDF749FBD4F80031FF2B2F
:105400000FD100261946D4E94232204684F8FF60C5
:1054100098473346D4F82821C4F800610132C4F813
:1054200028212922591CC4F80011E25484F80421CF
:105430006B68D4F81C210398013B013AFDF722BCAC
:105440003246094906A80DF0C9FD06A80DF05CFE1C
:10545000074650B306AE4FF00008D4F800113744A9
:1054600012E000BFC0BC0108D0BC0108D4BC0108D8
:1054700090BE01080B46591CB742C4F8001104F84D
:10548000039084F8049110D0FF2916F8019BF1D104
:10549000D4E94232204684F8FF809847D4F8282186
:1054A00000230132C4F82821E5E76B68D4F81C21F9
:1054B0000398013B013AFDF7E5BB31462046AA6857
:1054C00005F10C0301F0D4F90746002840F0A9814A
:1054D000D5E902A2DAF80810D3680868D949D2F8E9
:1054E00008B0D3E9029803F0DBFB002840F05D81AF
:1054F0005A463146204601F06BF952463146204665
:1055000001F02AF94A463146204601F061F90322AA
:105510002046CD49FAF7E8FE42462046314601F0E2
:1055200057F96B68D4F81C210398013B013AFDF749
:10553000A9BBC4F814210123C4F81831FEF7A1B89F
:10554000052A00F21382573FFFF706BAD4F8241158
:105550000029FFF699AAFBF711F9024600287FF40B
:1055600093AA0123C4F818316B68D4F81C2103985E
:10557000013B013AFDF786BB9B689A68012A7DF4DE
:105580007BAB5B681B783E2B7DF476ABD4F80031A7
:10559000FF2B0FD100261946D4E94232204684F869
:1055A000FF6098473346D4F82821C4F800610132DF
:1055B000C4F828212922591CC4F80011E25484F8A7
:1055C00004216B68D4F81C210398013B013AFDF7D4
:1055D00059BB6B68D4F81C210398013B013AFDF7D5
:1055E00051BB5246D4F838319F4280F21B827B1C5B
:1055F0000CEBC70EC4F834314CF83790D4F8107166
:105600000EF1040E002F00F00A82D4E950139942E3
:1056100001F1010C80F20682D4F83C31C4F840C19B
:1056200003EBC10379685960CEF800303F689E46AD
:10563000E8E78649D9F808000DF094FD00287EF4CB
:1056400035AD31462046EA68FDF720FA02222046B1
:105650007F49FAF749FEFEF76EBDD4F80031FF2B03
:105660000FD100261946D4E94232204684F8FF6063
:1056700098473346D4F82821C4F800610132C4F8B1
:1056800028212022591CC4F80011E25484F8042176
:10569000FFF7D5BAD4F80031FF2B0FD100271946F8
:1056A000D4E94232204684F8FF7098473B46D4F84C
:1056B0002821C4F800710132C4F828212022591C85
:1056C000C4F80011E25484F80421FFF792BA484666
:1056D000604903F0E5FA002861D1EB6831462046C5
:1056E000DA6801F075F8FDF7C2BA9A689168012985
:1056F0007DF463AA526812783E2A7DF45EAAD4F83B
:105700000031FF2B0ED11946D4E9423284F8FF0054
:10571000204698473B46D4F82821C4F8007101324E
:10572000C4F828212822591CC4F80011E25484F836
:105730000421AB68FDF741BA31462046AA6801F062
:1057400047F8032220464449FAF7CEFD6B68D4F8A7
:105750001C210398013B013AFDF794BA6B68D4F819
:105760001C210398013B013AFDF78CBAD8F8088058
:10577000B8F1000F3FF4DFAEFDF732BFDEF80430C2
:10578000D4F8108109F108012046C4F81031FBF764
:1057900007F8814600283FF4C4AD0127AFE5424633
:1057A0003146204600F0D8FF97E7042220462B49D7
:1057B000FAF79AFDDBF80830F3B15A463146204635
:1057C00001F006F8D4F80031FF2B0ED11946D4E9C8
:1057D0004232204684F8FF7098473B46D4F828218F
:1057E000C4F800710132C4F828212022591CC4F8E1
:1057F0000011E25484F804214A4631462046FDF760
:1058000045F9B8F1000F14D042462046314600F069
:10581000DFFF6B68D4F81C210398013B013AFDF7C8
:1058200031BA6B68D4F81C210398013B013AFDF7AB
:1058300029BA6B68D4F81C210398013B013AFDF7A3
:1058400021BA00BF9CBE0108A0BE0108D8BC010857
:10585000E0BC010894BE0108E4BE0108A4BE010832
:105860006B68D4F81C210398013B013AFDF70ABA92
:10587000EA6831462046FDF709F9009A089BC4F80A
:105880001421002B3DF4FCABFDF702BC5F27FFF7B2
:1058900045B839462046FAF793FF30B908E08368E7
:1058A00033B1C06809F1010910B103782F2BF6D08C
:1058B0004A469A4906A80DF091FB06A80DF024FC73
:1058C00000B34FF0000806AE3718D4F8001116F8F0
:1058D000019BFF290DD1D4E94232204684F8FF8094
:1058E00098470021D4F82831C4F800810133C4F866
:1058F00028314B1CB742C4F8003104F8019084F8F9
:105900000491E2D16B68D4F81C210398013B013A61
:10591000FDF7B8B931462046BA6800F059FF424653
:105920002046314600F018FF6B68D4F81C2103981C
:10593000013B013AFDF7A6B9D36831461B782046F2
:10594000292B1CBF0123C4F81831926800F040FFD6
:10595000FDF744B9BB681A78012A7FF4A7AAFA6850
:105960001278292A08BF1F46FFF7A0BAD0458DD963
:105970005F2F8BD1FF283EF6D1AFD4F80011C7B20C
:10598000FF290DD1D4E94232204684F8FF90984790
:105990000021D4F82831C4F800910133C4F828312B
:1059A0004B1CC4F800315646675484F80471FEF766
:1059B000AABF42463146204600F0CEFEFDF713BC9A
:1059C000052220465649FAF78FFC6B68D4F81C2153
:1059D0000398013B013AFDF755B92B782F2B7DF445
:1059E000A0AAFDF79FBAD4F80031FF2B0ED11946BB
:1059F000D4E94232204684F8FF8098474346D4F8E1
:105A00002821C4F800810132C4F828212D22591C14
:105A1000C4F80011E25484F80421FFF727BACEF845
:105A2000007064E40123C4F818316B68013BFDF792
:105A300029B9D4F80031FF2B0FD100261946D4E93B
:105A40004232204684F8FF6098473346D4F8282134
:105A5000C4F800610132C4F828217522591CC4F829
:105A60000011E25484F804216B68D4F81C210398D7
:105A7000013B013AFDF706B9032220462949FAF70E
:105A800033FC6B68D4F81C210398013B013AFDF705
:105A9000F9B8022220462449FAF726FC6B68D4F8AC
:105AA0001C210398013B013AFDF7ECB80222204685
:105AB0001E49FAF719FC6B68D4F81C210398013BC6
:105AC000013AFDF7DFB8D4F80031FF2B0FD10026E3
:105AD0001946D4E94232204684F8FF60984733469D
:105AE000D4F82821C4F800610132C4F828216C22BE
:105AF000591CC4F80011E25484F804216B68D4F8EE
:105B00001C210398013B013AFDF7BCB86B68D4F83F
:105B10001C210398013B013AFDF7B4B8D0BC010841
:105B2000B8BE0108B4BE0108B0BE0108ACBE010891
:105B30002DE9F04713781546033B04460E464D2BDE
:105B40004FD8DFE813F0BD004E004E004E004E006F
:105B50004E004E004E004E004E004E004E004E00D5
:105B60004E004E004E004E004E004E004E004E00C5
:105B70004E00530077009A00530077009A00C2004D
:105B8000CF00DC00EF003801460169018C014E00B6
:105B90004E004E004E0000014E0036024E004E00F8
:105BA0004E004E004E004E004E004E004E004E0085
:105BB0004E004E004E004E004E004E004E004E0075
:105BC0004E004E004E004E004E004E004E004E0065
:105BD0004E004E004E004E004E00B0014E00D4016B
:105BE000FB012A46BDE8F047FCF750BFD84D202600
:105BF0000027D0F8001105F108080BE00B46013131
:105C0000A845C4F80011E65484F8046100F09980B6
:105C100015F8016FFF29F1D1D4E94232204684F80A
:105C2000FF7098470121D4F8282100230A44C4F8C2
:105C30002821E5E7C74D20260027D0F8001105F1FF
:105C400008080AE00B460131A845C4F80011E654E3
:105C500084F8046175D015F8016FFF29F2D1D4E9F9
:105C60004232204684F8FF7098470121D4F8282159
:105C700000230A44C4F82821E6E7B74D2026002770
:105C8000D0F8001105F105080AE00B460131A845DE
:105C9000C4F80011E65484F8046152D015F8016F7D
:105CA000FF29F2D1D4E94232204684F8FF709847A8
:105CB0000121D4F8282100230A44C4F82821E6E76A
:105CC000AA68BDE8F047FCF7E1BED0F80031FF2B31
:105CD00000F0E8812022591CC0F80011C25480F85D
:105CE00004216AE0D0F80031FF2B00F0CC81591C70
:105CF0002022C4F80011E25484F804216BE0D0F8AB
:105D00000011FF2900F0B1814A1C2023C4F80021B2
:105D1000635484F8043131462046EA68BDE8F04710
:105D2000FCF7B4BE11F004060BD1D0F80011FF2926
:105D300000F0F6814A1C2A23C4F80021635484F839
:105D40000431BDE8F08790F80431282B0BD0D0F84F
:105D50000011FF2900F0D6814A1C2023C4F800213D
:105D6000635484F80431AA687C4D31462046FCF720
:105D70008DFE3A274FF00008D4F80011AE1C0AE05F
:105D80000B460131B542C4F80011E75484F80471A0
:105D9000D7D015F8017FFF29F2D1D4E9423220464D
:105DA00084F8FF8098470121D4F8282100230A4471
:105DB000C4F82821E6E7D0F80011FF2900F082811D
:105DC0004A1C2623C4F80021635484F80431BDE83A
:105DD000F087D0F80011624E2625002706F1010851
:105DE0000AE00B460131B045C4F80011E55484F8CF
:105DF0000451A6D016F8015FFF29F2D1D4E942324E
:105E0000204684F8FF7098470121D4F82821002308
:105E10000A44C4F82821E6E7524D63260027D0F84B
:105E2000001105F107080AE00B4601314545C4F8A9
:105E30000011E65484F8046183D015F8016FFF293E
:105E4000F2D1D4E94232204684F8FF70984701210C
:105E5000D4F8282100230A44C4F82821E6E7424D5B
:105E600069260027D0F8001105F109080BE00B4660
:105E70000131A845C4F80011E65484F804613FF4E8
:105E800060AF15F8016FFF29F1D1D4E94232204605
:105E900084F8FF7098470121D4F8282100230A4490
:105EA000C4F82821E5E7314D20260027D0F800115D
:105EB00005F110080BE00B460131A845C4F80011AC
:105EC000E65484F804613FF43CAF15F8016FFF29F4
:105ED000F1D1D4E94232204684F8FF70984701217D
:105EE000D4F8282100230A44C4F82821E5E7204FEC
:105EF0004FF020084FF00009D0F8003107F1080AF0
:105F00000BE01A4601335745C4F8003104F802800B
:105F100084F8048173D017F8018FFF2BF1D1194653
:105F2000D4E94232204684F8FF9098470123D4F800
:105F3000281100221944C4F82811E4E70D4F4FF04E
:105F400020084FF00009D0F8003107F1050A1FE0E2
:105F500064BF010870BF01087CBF0108C8BF010809
:105F6000ACBF0108B0BF0108BCBF010884BF010875
:105F700098BF0108A4BF01081A460133BA45C4F806
:105F8000003104F8028084F8048138D017F8018FBA
:105F9000FF2BF1D11946D4E94232204684F8FF9014
:105FA00098470123D4F8281100221944C4F8281175
:105FB000E4E7624F4FF020084FF00009D0F80011DD
:105FC00007F1090A0BE00A460131BA45C4F800118D
:105FD00004F8028084F804812FD017F8018FFF297C
:105FE000F1D1D4E94232204684F8FF90984701214C
:105FF000D4F8283100220B44C4F82831E5E7EA68D8
:10600000002A3FF49EAEFF2B6BD0591C2825C4F804
:10601000001120463146E55484F80451FCF736FD62
:10602000D4F80011FF2911D04A1C2923C4F80021FB
:10603000635484F80431BDE8F08731462046AA68ED
:10604000FCF724FDD4F80011FF29EDD1D4E9423248
:106050000025204684F8FF5098470122D4F82831C3
:1060600029461344C4F82831DFE70027D0E942323B
:1060700080F8FF7098470122D4F82831394613443C
:10608000C4F8283141E600251946D0E9423280F8AB
:10609000FF5098470121D4F828212B460A44C4F820
:1060A000282125E60022194680F8FF20D0E9423257
:1060B00098472022D4F82831012101332270C4F8F6
:1060C00028317DE60025D4E94232204684F8FF508D
:1060D00098470122D4F8283129461344C4F82831BE
:1060E0006FE600271946D4E94232204684F8FF7053
:1060F00098470121D4F82801EA6808443B46C4F8CF
:10610000280183E70027D0E9423280F8FF709847E2
:106110000122D4F8283139461344C4F828311CE64A
:10612000D0E9423280F8FF6098470122D4F8283144
:1061300031461344C4F82831FDE500BFCCBF010847
:106140002DE9F04704460E4617461D46002B62D047
:106150009A68002A5FD15A6810781938122857D8DF
:10616000DFE800F00A0A0A56565656560A89898907
:106170000A0A565656560A0094F80431202B00F0AD
:106180008180D4F80031FF2B00F0A0802022591C20
:10619000FF29C4F80011E25484F8042176D04B1C86
:1061A0004FF028094FF0000AC4F8003104F80190BC
:1061B0002A46D4F8148153463146204684F8049187
:1061C000C4F814A100F0ACF8D4F80021FF2A00F0C4
:1061D0008E802923511CFF29C4F80011A35484F890
:1061E000043126D10023204684F8FF30D4E942321E
:1061F000984728220123D4F82811227084F804211A
:106200003A681944C4F82811C4F80031D2B921E021
:106210001B68002B9CD100233146D4F814812A46F8
:106220002046C4F8143100F07BF8D4F80011FF299F
:10623000D8D028224B1CC4F80031625484F80421C1
:106240003A682AB131462046FCF720FCD4F80031E8
:10625000FF2B2BD05A1C2920C4F800213146E054D2
:106260002A4684F804010123204600F059F8C4F8B6
:106270001481BDE8F08794F8043103F0FD02282A68
:106280007FF47CAFD4F80011FF2988D1D4E94232E1
:106290004FF00008204684F8FF8098470123D4F887
:1062A000282141461A44C4F8282179E700271946D5
:1062B000D4E94232204684F8FF7098470122D4F88E
:1062C00028113B461144C4F82811C4E7002219469E
:1062D00084F8FF202046D4E9423298472022D4F89F
:1062E0002831012101332270C4F8283157E71146C3
:1062F000D4E94232204684F8FFA0984742F62902AA
:106300000223D4F8281184F8049122803A680131DC
:10631000C4F82811C4F80031002A93D19AE700BFCD
:10632000002A00F0BB802DE9F04F05460F461E46BF
:1063300014464FF0010889B019E0A0F11C03042BAA
:1063400012D9E3682928D5F81091C4F80880C5F857
:10635000103157D02A2860D0022821D0394628464B
:10636000FFF7E6FBC5F810912468002C47D0D5F85C
:106370001821002A43D1A368002BF5D16268107858
:10638000002EDED14D28EFD0D7D94F380128EBD9D8
:10639000E368D5F81091C4F80880C5F81031DDE73E
:1063A0000026D5F81481926839462846C5F814614C
:1063B000FCF76CFB17F0040AC5F814813DD0D5F842
:1063C0000011FF295CD04A1C2E23C5F800216B5414
:1063D00085F804316368DC682378472B5FD04D2B48
:1063E000A3F14F02A3F11C0124D021D8042921D903
:1063F000224639462846FCF749FBC5F8109109B0FA
:10640000BDE8F08F3946284623680C32FFF798FE26
:10641000C5F8109109B0BDE8F08F394628462368C9
:10642000083200F0BDF8C5F8109109B0BDE8F08F52
:10643000012ADDD8A4682378D1E7DFF858813A260D
:10644000D5F8001108F1010B0AE00B460131D845DF
:10645000C5F80011EE5485F80461BBD018F8016F3F
:10646000FF29F2D1D5E94232284685F8FFA09847A6
:106470000121D5F8282100230A44C5F82821E6E7A0
:10648000D5E94232284685F8FF6098470122D5F8C1
:10649000283131461344C5F8283195E77047DFF8B5
:1064A000F8807B264FF0000AD5F8001108F10C0B9C
:1064B0000AE00B460131D845C5F80011EE5485F8C5
:1064C000046111D018F8016FFF29F2D1D5E94232E9
:1064D000284685F8FFA098470121D5F828210023F8
:1064E0000A44C5F82821E6E7E2682949013201A8F3
:1064F0000CF074FD01A80CF007FE834610B301AE4A
:106500004FF0000AD5F80011B34409E00B46013101
:10651000B345C5F8001105F8038085F8048113D050
:10652000FF2916F8018BF1D1D5E94232284685F8CA
:10653000FFA098470121D5F8282100230A44C5F877
:106540002821E5E7D5F80011DFF850807D264FF0CF
:10655000000A08F1020B0BE00B460131C345C5F8F8
:106560000011EE5485F804613FF464AF18F8016F30
:10657000FF29F1D1D5E94232284685F8FFA0984796
:106580000121D5F8282100230A44C5F82821E5E790
:10659000D0BC0108BCBC0108C0BC0108D4BC0108C7
:1065A0002DE9F84F04460E4691466BB11D461A463A
:1065B0009368002B58D01268002AF9D1134631464F
:1065C0002A462046FFF7ACFED4F80031FF2B57D007
:1065D0002022591CC4F80011E25484F80421FF2938
:1065E0001AD05B224B1CC4F80031625484F8042199
:1065F000D9F800202AB131462046FCF747FAD4F8F2
:106600000031FF2B20D0591C5D22C4F80011E25448
:1066100084F80421BDE8F88F0023204684F8FF3079
:10662000D4E9423298475B220123D4F82811227022
:1066300084F80421D9F800201944C4F82811C4F8BA
:106640000031002AD7D1DEE700251946D4E94232CD
:10665000204684F8FF5098470121D4F828212B4682
:106660000A44C4F82821CFE7526812782A2A22D196
:1066700031462A462046FFF753FED4F80011AEE714
:106680000022194684F8FF202046D4E94232984778
:1066900045F620315B220223218084F80421D4F8BE
:1066A0002811D9F800200131C4F82811C4F80031AC
:1066B000002AA0D1A7E7274F9B464FF02008D4F827
:1066C000001107F1010A0CE00A46BA4501F1010187
:1066D000C4F8001104F8028084F8048118D017F877
:1066E000018FFF29F0D1D4E94232204684F8FFB06F
:1066F000984701210022D4F82831BA450B44C4F848
:106700002831C4F8001104F8028084F80481E6D12D
:1067100031462A4600232046FFF702FED4F8001136
:10672000FF2907D029224B1CC4F80031625484F899
:1067300004214BE70023204684F8FF30D4E942329D
:1067400098472922D4F8283122700133C4F828311F
:1067500001233DE7E0BE01082DE9F0411578322D17
:1067600003D0BDE8F041FCF791B99368D3E9015635
:106770005EB32E4404460027D0F80011013E013DCF
:106780000AE00A46B54201F10101C4F8001104F81B
:10679000028084F8048118D0FF2915F8018FF0D108
:1067A000D4E94232204684F8FF7098470121002244
:1067B000D4F82831B5420B44C4F82831C4F800118C
:1067C00004F8028084F80481E6D1BDE8F08100BFBE
:1067D0002DE9F04113781546012B0E46044620D9C9
:1067E000312B1ED0062B1CD0D0F80071FF2F1FD0EC
:1067F0007A1C2823C4F800213146E3552A46204656
:1068000084F80431FCF742F9D4F80011FF291FD0B5
:106810004A1C2923C4F80021635484F80431BDE8DC
:10682000F0812A4631462046BDE8F041FCF72EB9FA
:106830004FF00008D0E94232394680F8FF8098478F
:106840000122D4F8283147461344C4F82831D0E750
:106850000025D4E94232204684F8FF5098470122AF
:10686000D4F8283129461344C4F82831D1E700BFB1
:106870002DE9F84F92680C461268117866297AD192
:106880001B68D0F82471D3E90286337882463C2B0A
:106890004FF0FF3308BFD6E90269C0F824315378BE
:1068A00018BF4FF000096C2B00F0A48066D84C2B69
:1068B00001D0522B5AD1DAF80011FF2900F0EC80F8
:1068C0004A1C2823CAF8002150460AF801303246F3
:1068D00021468AF80431784DFFF77AFF2146424677
:1068E0005046FFF739FF4FF02E0BDAF80011AE1CBF
:1068F0000CE00A46AE4201F10101CAF800110AF8A3
:1069000002B08AF804B11AD015F801BFFF29F0D1FE
:106910004FF0000350468AF8FF30DAE942329847D8
:1069200001210022DAF82831AE420B44CAF828319E
:10693000CAF800110AF802B08AF804B1E4D142465C
:1069400021465046FFF708FF4A4621465046FFF7CA
:106950003FFFDAF80011FF2900F081804A1C29234B
:10696000CAF800210AF801308AF804310120CAF877
:106970002471BDE8F88F0020BDE8F88F722BF5D1A7
:10698000D0F80011FF2979D04A1C2823CAF8002129
:1069900050460AF80130324621468AF80431FFF7A2
:1069A00017FF2146454C42465046FFF7D5FE2E259F
:1069B0004FF00009DAF80011E61C0BE00B4601313C
:1069C000B442CAF800110AF803508AF80451CDD035
:1069D00014F8015FFF29F1D1DAE9423250468AF812
:1069E000FF9098470121DAF8282100230A44CAF8C9
:1069F0002821E5E7324D4FF02809D0F8001105F1C4
:106A0000030B0CE00A46AB4501F10101CAF8001185
:106A10000AF802908AF804911AD015F8019FFF290C
:106A2000F0D14FF0000350468AF8FF30DAE94232E5
:106A3000984701210022DAF82831AB450B44CAF807
:106A40002831CAF800110AF802908AF80491E4D1BA
:106A5000424621465046FFF77FFE324675E7002446
:106A6000DAE9423250468AF8FF4098470122DAF8C4
:106A7000283121461344CAF8283170E70025D0E9AF
:106A8000423280F8FF5098470122DAF8283129462F
:106A90001344CAF8283178E70025DAE94232504633
:106AA0008AF8FF5098470122DAF828312946134422
:106AB000CAF8283105E700BFE4BE0108E0BF0108BD
:106AC000D8BF01082DE9F04FE5B090F800900446DA
:106AD000B9F15F0F0E46154600AF00F0EE800822B8
:106AE0002046BE490CF03EFB48B9237A2E2B00F01D
:106AF000D3805F2B00F0D080242B00F0CD804FF0AE
:106B0000000A20460CF000FB002311224FEA400B44
:106B10002118BBF5006FC7E90424C7E9073BC7E9A3
:106B20000C33C7E90E33F960F862BC60BB623B64AA
:106B300000F2AC80E846A8EB401295468000073092
:106B400020F00700ADEB000DBAF1010FC7F824D01B
:106B5000BA6100F0C680AAF10201012900F2C780E3
:106B6000E17ABAF1020F0CBF4FF044094FF045092A
:106B700004F10B0A5F29C7F814A000F0A580504665
:106B80007A600CF0C1FABBF1000F7A6840F314810F
:106B9000002301215360F961002800F00D81C2E952
:106BA00002A013700023494607F10800F9F7D0FA54
:106BB0007C69824620460CF0A7FA23187B61225C90
:106BC000002A40F09180BAF1000F00F08D8007F1AB
:106BD000440420465146C4E94422C4E94922C4E998
:106BE0004622C4E94B22C4E94D22C4E94F227A600F
:106BF000C4F8002184F80421C4F82021C4F84421F9
:106C0000C4F80861C4F80C51F9F706FBD4F81C313C
:106C10006E46B3F5006FB8BF7A68D4F84431B8BF98
:106C2000C4F81C21D4F838210025012A1046B8BF29
:106C3000012003FB02F3A6EBC0029546012BEC46B4
:106C40001946B8BF0121ACEBC1018D465246112156
:106C50002046C4F84431C4F830C1C4F83CD1C4F86B
:106C60004851FBF713FFD4E94232D4F80011B5467E
:106C7000204665549847D4F81801C546B0FA80F00C
:106C8000400907F5CA77BD46BDE8F08F184607F5FD
:106C9000CA77BD46BDE8F08F637A442B02D0492BFA
:106CA0007FF42DAFA27A5F2A7FF429AF492B0CBF66
:106CB0004FF0020A4FF0030A23E743785A2B7FF480
:106CC0000EAF4FF0010A1CE7217B5A297FF457AF22
:106CD00019460D3407F108007C61FAF7E5FA02461F
:106CE00060E7B9F15F0F0AD00020C546C9E707F198
:106CF0000800FAF739FF7B6982461A7860E7627804
:106D00005A2AF1D15146023407F108007C61FAF7A2
:106D1000CBFA3C69824614F0010F4FF000035AD0C1
:106D200079690A782E2A7FF44BAF99464B78A3F104
:106D30006102192A44D95F2B42D0303B092B4AD833
:106D40000B4608782E2811D15A78303A092A0DD8E6
:106D50009A780233A2F13000092805D813F8012FE0
:106D6000A2F130000928F9D92E2AEDD0D7E907027F
:106D700090427B61A3EB010420DABA6900F1010CB7
:106D800002EB0013002CC3F804904FEA0010C7F880
:106D90001CC013DDC3F8049002F80090C3E902148C
:106DA00052464E2107F10800F9F7D2F97969824677
:106DB0000A782E2ABAD003E70022F3E60023EFE791
:106DC0008A1C134612F8010BA0F16104192CF8D9A2
:106DD0005F28F6D0B6E77B691A78F1E664BC010853
:106DE0002DE9F0411E4684B0002840D00C461546DF
:106DF00009B1002A3BD000236A462949CDE9003376
:106E0000CDE90233FFF75EFE002839D0039B009FD7
:106E1000D3B9DDF80880002F38D02CB338460CF0F9
:106E200073F92B68984219D23946421C204601F06A
:106E3000C1FE38460BF032F927460EB1002333600D
:106E4000384604B0BDE8F0814FF00108002FE4D1CE
:106E5000D6B14FF0FF3300273360F1E720460BF047
:106E60001DF9C5F80080E8E7002DFAD1E5E75EB12D
:106E700000276FF002033846336004B0BDE8F081AC
:106E800000980BF00BF936B90027D9E7002EFBD09C
:106E9000B8F1010FDDD06FF0010300273360CFE7B9
:106EA0005108000860B108B539B1FFF70BFE0028A2
:106EB00014BF00206FF0010008BD6FF0020008BD94
:106EC0006FF00200704700BF81F0004102E000BF98
:106ED00083F0004330B54FEA41044FEA430594EA9A
:106EE000050F08BF90EA020F1FBF54EA000C55EAD5
:106EF000020C7FEA645C7FEA655C00F0E2804FEAA6
:106F00005454D4EB5555B8BF6D420CDD2C4480EA87
:106F1000020281EA030382EA000083EA010180EAB7
:106F2000020281EA0303362D88BF30BD11F0004F05
:106F30004FEA01314FF4801C4CEA113102D040423B
:106F400061EB410113F0004F4FEA03334CEA133376
:106F500002D0524263EB430394EA050F00F0A7808E
:106F6000A4F10104D5F1200E0DDB02FA0EFC22FA89
:106F700005F2801841F1000103FA0EF2801843FA7D
:106F800005F359410EE0A5F120050EF1200E012A6E
:106F900003FA0EFC28BF4CF0020C43FA05F3C018AC
:106FA00051EBE37101F0004507D54FF0000EDCF125
:106FB000000C7EEB00006EEB0101B1F5801F1BD3CE
:106FC000B1F5001F0CD349085FEA30004FEA3C0CD2
:106FD00004F101044FEA445212F5800F80F09A80C8
:106FE000BCF1004F08BF5FEA500C50F1000041EBCC
:106FF000045141EA050130BD5FEA4C0C404141EBD0
:107000000101013C28BFB1F5801FE9D291F0000FCA
:1070100004BF01460020B1FA81F308BF2033A3F179
:107020000B03B3F120020CDA0C3208DD02F1140C70
:10703000C2F10C0201FA0CF021FA02F10CE002F1AB
:107040001402D8BFC2F1200C01FA02F120FA0CFCA4
:10705000DCBF41EA0C019040E41AA2BF01EB0451ED
:10706000294330BD6FEA04041F3C1CDA0C340EDCEB
:1070700004F11404C4F1200220FA04F001FA02F32E
:1070800040EA030021FA04F345EA030130BDC4F1EC
:107090000C04C4F1200220FA02F001FA04F340EAE1
:1070A0000300294630BD21FA04F0294630BD94F092
:1070B000000F83F4801306BF81F480110134013D79
:1070C0004EE77FEA645C18BF7FEA655C29D094EAEA
:1070D000050F08BF90EA020F05D054EA000C04BF68
:1070E0001946104630BD91EA030F1EBF0021002053
:1070F00030BD5FEA545C05D14000494128BF41F0F2
:10710000004130BD14F580043CBF01F5801130BD55
:1071100001F0004545F0FE4141F470014FF00000E0
:1071200030BD7FEA645C1ABF194610467FEA655C91
:107130001CBF0B46024650EA013406BF52EA033533
:1071400091EA030F41F4002130BD00BF90F0000F21
:1071500004BF0021704730B54FF4806404F132045D
:107160004FF000054FF0000150E700BF90F0000F16
:1071700004BF0021704730B54FF4806404F132043D
:1071800010F0004548BF40424FF000013EE700BF0D
:1071900042004FEAE2014FEA31014FEA02701FBF9D
:1071A00012F07F4393F07F4F81F06051704732F0CF
:1071B0007F4208BF704793F07F4F04BF41F4002126
:1071C000704730B54FF4607401F0004521F0004184
:1071D0001CE700BF50EA010208BF704730B54FF00E
:1071E00000050AE050EA010208BF704730B511F00F
:1071F000004502D5404261EB41014FF4806404F147
:1072000032045FEA915C3FF4D8AE4FF003025FEACC
:10721000DC0C18BF03325FEADC0C18BF033202EB50
:10722000DC02C2F1200300FA03FC20FA02F001FAAA
:1072300003FE40EA0E0021FA02F11444BDE600BF4D
:1072400070B54FF0FF0C4CF4E06C1CEA11541DBFFC
:107250001CEA135594EA0C0F95EA0C0F00F0DEF8C7
:107260002C4481EA030621EA4C5123EA4C5350EAAC
:10727000013518BF52EA033541F4801143F48013FD
:1072800038D0A0FB02CE4FF00005E1FB02E506F08E
:107290000042E0FB03E54FF00006E1FB03569CF0E3
:1072A000000F18BF4EF0010EA4F1FF04B6F5007FE9
:1072B00064F5407404D25FEA4E0E6D4146EB06065B
:1072C00042EAC62141EA55514FEAC52040EA5E50E4
:1072D0004FEACE2EB4F1FD0C88BFBCF5E06F1ED88E
:1072E000BEF1004F08BF5FEA500E50F1000041EBC5
:1072F000045170BD06F0004646EA010140EA020072
:1073000081EA0301B4EB5C04C2BFD4EB0C0541EA93
:10731000045170BD41F480114FF0000E013C00F3A8
:10732000AB8014F1360FDEBF002001F0004170BDCC
:10733000C4F10004203C35DA0C341BDC04F11404E5
:10734000C4F1200500FA05F320FA04F001FA05F271
:1073500040EA020001F0004221F0004110EBD3703E
:1073600021FA04F642EB06015EEA430E08BF20EA6A
:10737000D37070BDC4F10C04C4F1200500FA04F30D
:1073800020FA05F001FA04F240EA020001F000419F
:1073900010EBD37041F100015EEA430E08BF20EA12
:1073A000D37070BDC4F1200500FA05F24EEA020E5A
:1073B00020FA04F301FA05F243EA020321FA04F089
:1073C00001F0004121FA04F220EA020000EBD37040
:1073D0005EEA430E08BF20EAD37070BD94F0000F40
:1073E0000FD101F00046400041EB010111F4801F74
:1073F00008BF013CF7D041EA060195F0000F18BF25
:10740000704703F00046520043EB030313F4801F60
:1074100008BF013DF7D043EA0603704794EA0C0F1A
:107420000CEA135518BF95EA0C0F0CD050EA410630
:1074300018BF52EA4306D1D181EA030101F00041AD
:107440004FF0000070BD50EA410606BF10461946D5
:1074500052EA430619D094EA0C0F02D150EA0136E1
:1074600013D195EA0C0F05D152EA03361CBF104622
:1074700019460AD181EA030101F0004141F0FE41C1
:1074800041F470014FF0000070BD41F0FE4141F445
:10749000780170BD70B54FF0FF0C4CF4E06C1CEA45
:1074A00011541DBF1CEA135594EA0C0F95EA0C0FFA
:1074B00000F0A7F8A4EB050481EA030E52EA0335B5
:1074C0004FEA013100F088804FEA03334FF08055D6
:1074D00045EA131343EA12634FEA022245EA111503
:1074E00045EA10654FEA00260EF000419D4208BFB4
:1074F000964244F1FD0404F5407402D25B084FEA61
:107500003202B61A65EB03055B084FEA32024FF40C
:1075100080104FF4002CB6EB020E75EB030E22BF69
:10752000B61A754640EA0C005B084FEA3202B6EB29
:10753000020E75EB030E22BFB61A754640EA5C00D8
:107540005B084FEA3202B6EB020E75EB030E22BF68
:10755000B61A754640EA9C005B084FEA3202B6EB69
:10756000020E75EB030E22BFB61A754640EADC0028
:1075700055EA060E18D04FEA051545EA16754FEA8A
:1075800006164FEAC30343EA52734FEAC2025FEAA8
:107590001C1CC0D111F4801F0BD141EA00014FF037
:1075A00000004FF0004CB6E711F4801F04BF014308
:1075B0000020B4F1FD0C88BFBCF5E06F3FF6AFAE24
:1075C000B5EB030C04BFB6EB020C5FEA500C50F1B4
:1075D000000041EB045170BD0EF0004E4EEA113137
:1075E00014EB5C04C2BFD4EB0C0541EA045170BD3E
:1075F00041F480114FF0000E013C90E645EA060E82
:107600008DE60CEA135594EA0C0F08BF95EA0C0FAF
:107610003FF43BAF94EA0C0F0AD150EA01347FF4F7
:1076200034AF95EA0C0F7FF425AF104619462CE7CE
:1076300095EA0C0F06D152EA03353FF4FDAE104631
:10764000194622E750EA410618BF52EA43067FF482
:10765000C5AE50EA41047FF40DAF52EA43057FF412
:10766000EBAE12E74FEA4102B2F1E04324BFB3F5BB
:10767000001CDCF1FE5C0DD901F0004C4FEAC002A9
:107680004CEA5070B2F1004F40EB830008BF20F08D
:107690000100704711F0804F21D113F13872BCBF47
:1076A00001F00040704741F480114FEA5252C2F19C
:1076B0001802C2F1200C10FA0CF320FA02F018BFE5
:1076C00040F001004FEAC1234FEAD32303FA0CFC38
:1076D00040EA0C0023FA02F34FEA4303CCE77FEAC7
:1076E000625307D150EA01331EBF4FF0FE4040F411
:1076F0004000704701F0004040F0FE4040F40000C0
:10770000704700BF80F0004002E000BF81F0004100
:1077100042001FBF5FEA410392EA030F7FEA226C37
:107720007FEA236C6AD04FEA1262D2EB1363C1BFC7
:10773000D218414048404140B8BF5B42192B88BF36
:10774000704710F0004F40F4000020F07F4018BF59
:10775000404211F0004F41F4000121F07F4118BF79
:10776000494292EA030F3FD0A2F1010241FA03FC21
:1077700010EB0C00C3F1200301FA03F100F0004309
:1077800002D5494260EB4000B0F5000F13D3B0F1D1
:10779000807F06D340084FEA310102F10102FE2A40
:1077A00051D2B1F1004F40EBC25008BF20F00100B0
:1077B00040EA03007047490040EB0000013A28BF4F
:1077C000B0F5000FEDD2B0FA80FCACF1080CB2EBD2
:1077D0000C0200FA0CF0AABF00EBC2505242184350
:1077E000BCBFD0401843704792F0000F81F40001F5
:1077F00006BF80F400000132013BB5E74FEA4103C8
:107800007FEA226C18BF7FEA236C21D092EA030F33
:1078100004D092F0000F08BF0846704790EA010FAD
:107820001CBF0020704712F07F4F04D1400028BFDA
:1078300040F00040704712F100723CBF00F50000BC
:10784000704700F0004343F0FE4040F400007047F2
:107850007FEA226216BF08467FEA2363014642029E
:1078600006BF5FEA412390EA010F40F480007047B1
:107870004FF0000304E000BF10F0004348BF404257
:107880005FEA000C08BF704743F0964301464FF093
:1078900000001CE050EA010208BF70474FF00003EF
:1078A0000AE000BF50EA010208BF704711F0004330
:1078B00002D5404261EB41015FEA010C02BF844600
:1078C0000146002043F0B64308BFA3F18053A3F55F
:1078D0000003BCFA8CF2083AA3EBC25310DB01FAA6
:1078E00002FC634400FA02FCC2F12002BCF1004F2A
:1078F00020FA02F243EB020008BF20F001007047BB
:1079000002F1200201FA02FCC2F1200250EA4C000E
:1079100021FA02F243EB020008BF20EADC70704754
:107920004FF0FF0C1CEAD0521EBF1CEAD15392EA62
:107930000C0F93EA0C0F6FD01A4480EA010C40023E
:1079400018BF5FEA41211ED04FF0006343EA501098
:1079500043EA5111A0FB01310CF00040B1F5000FDA
:107960003EBF490041EAD3715B0040EA010062F189
:107970007F02FD2A1DD8B3F1004F40EBC25008BF73
:1079800020F00100704790F0000F0CF0004C08BF91
:1079900049024CEA502040EA51207F3AC2BFD2F15E
:1079A000FF0340EAC250704740F400004FF000036C
:1079B000013A5DDC12F1190FDCBF00F000407047A6
:1079C000C2F10002410021FA02F1C2F1200200FAE4
:1079D00002FC5FEA310040F1000053EA4C0308BFAB
:1079E00020EADC70704792F0000F00F0004C02BFFC
:1079F000400010F4000F013AF9D040EA0C0093F077
:107A0000000F01F0004C02BF490011F4000F013BD0
:107A1000F9D041EA0C018FE70CEAD15392EA0C0F3E
:107A200018BF93EA0C0F0AD030F0004C18BF31F0A9
:107A3000004CD8D180EA010000F00040704790F07F
:107A4000000F17BF90F0004F084691F0000F91F023
:107A5000004F14D092EA0C0F01D142020FD193EAE9
:107A60000C0F03D14B0218BF084608D180EA010071
:107A700000F0004040F0FE4040F40000704740F04D
:107A8000FE4040F4400070474FF0FF0C1CEAD0521B
:107A90001EBF1CEAD15392EA0C0F93EA0C0F69D077
:107AA000A2EB030280EA010C49024FEA402037D0E2
:107AB0004FF0805343EA111143EA10130CF00040D9
:107AC0008B4238BF5B0042F17D024FF4000C8B42C9
:107AD00024BF5B1A40EA0C00B3EB510F24BFA3EBA9
:107AE000510340EA5C00B3EB910F24BFA3EB910379
:107AF00040EA9C00B3EBD10F24BFA3EBD10340EAD3
:107B0000DC001B0118BF5FEA1C1CE0D1FD2A3FF618
:107B100050AF8B4240EBC25008BF20F001007047CD
:107B20000CF0004C4CEA50207F32C2BFD2F1FF0370
:107B300040EAC250704740F400004FF00003013AA1
:107B400037E792F0000F00F0004C02BF400010F445
:107B5000000F013AF9D040EA0C0093F0000F01F059
:107B6000004C02BF490011F4000F013BF9D041EA7B
:107B70000C0195E70CEAD15392EA0C0F08D14202AE
:107B80007FF47DAF93EA0C0F7FF470AF084676E781
:107B900093EA0C0F04D14B023FF44CAF08466EE75A
:107BA00030F0004C18BF31F0004CCAD130F0004228
:107BB0007FF45CAF31F000437FF43CAF5FE700BF80
:107BC0004FF0FF3C06E000BF4FF0010C02E000BFA9
:107BD0004FF0010C4DF804CD4FEA40024FEA41034B
:107BE0007FEA226C18BF7FEA236C11D001B052EA01
:107BF000530C18BF90EA010F58BFB2EB030088BFC7
:107C0000C81738BF6FEAE17018BF40F00100704735
:107C10007FEA226C02D15FEA402C05D17FEA236C17
:107C2000E4D15FEA412CE1D05DF8040B704700BF5E
:107C3000844608466146FFE70FB5FFF7C9FF0028F5
:107C400048BF10F1000F0FBD4DF808EDFFF7F4FF2E
:107C50000CBF012000205DF808FB00BF4DF808EDC7
:107C6000FFF7EAFF34BF012000205DF808FB00BFEA
:107C70004DF808EDFFF7E0FF94BF012000205DF80C
:107C800008FB00BF4DF808EDFFF7D2FF94BF0120BD
:107C900000205DF808FB00BF4DF808EDFFF7C8FFB6
:107CA00034BF012000205DF808FB00BF4FEA40020E
:107CB0004FEA41037FEA226C02D15FEA402C08D1EF
:107CC0007FEA236C02D15FEA412C02D14FF0000021
:107CD00070474FF0010070474FEA4002B2F1FE4F8B
:107CE0000FD34FF09E03B3EB12620DD94FEA00237E
:107CF00043F0004310F0004F23FA02F018BF404257
:107D000070474FF00000704712F1610F01D142023D
:107D100005D110F0004008BF6FF0004070474FF0F1
:107D20000000704703685A004CBF43F0004323F043
:107D300000431844704700BF2DE9F84329B34F1E94
:107D4000044615463E464FF0000808EB060101EBDD
:107D5000D171491004EBC1094846FFF7E3FF034620
:107D6000C80008308F42204409D0AB4209D8FFF741
:107D7000D9FF0138A8420AD201F10108E5E7AB4278
:107D800005D9884501D04E1EDFE74FF0000948466F
:107D9000BDE8F883012807D0022807D0044B00284B
:107DA0000CBF1846002070470248704702487047D1
:107DB000598400085D8400086184000830B5244BB4
:107DC000044683B08D1E3BB3284601A9AFF3008063
:107DD000E8B101992A46FFF7AFFF0146B8B1FFF7B6
:107DE000A1FF4B68A064012B2DD0002B26DB081DC2
:107DF000FFF798FF0023C4E913030368002B12DB8D
:107E0000FFF790FF03460020236103B030BD00233D
:107E10000920236103B030BD0E4B0F491846C91A23
:107E2000C9100191D6E7C3F30360FFF7B3FF002841
:107E3000206114BF0020092003B030BD0123081DBC
:107E4000C4E91303D9E7002305202361DDE700BF60
:107E50000000000080CB0108B0CE0108036810B517
:107E6000DA07044606D49B0700F1480009D500F064
:107E700041FC2368590709D51A070ED5DB0613D52F
:107E800010BD00F02FFC23685907F5D404F1D00091
:107E900000F038FC23681A07F0D404F5A87000F04D
:107EA00039FC2368DB06EBD404F5E870BDE810402C
:107EB00000F074BC0346006800B11844704700BF6E
:107EC00009207047704700BF70B504460E46204633
:107ED000316CFFF773FF054688B9326C2146626149
:107EE00001203246236998470828F0D0072806D198
:107EF0002846316CFFF7E6FF301D00F0E7FB09F084
:107F000039FE00BF2DE9F04706464FF0000CADF5F5
:107F1000727D03AD0C1D91460FCC0FC50FCC0FC564
:107F20000FCC0FC594E80F00F768D6F8188085E8E5
:107F30000F0002ADC5F800C021E02B6C4FF4F072C9
:107F4000736129467AA800F035FE314634697AAA71
:107F50005046A047889BCDE9005804466B644946CB
:107F6000334632460120B8470346F0B94FF4F07269
:107F700028467AA9994600F01DFE082C1BD13046F0
:107F8000296CFFF71BFF09F1090904465FFA89FA1A
:107F90000028D2D0AB6B3246CDE9005801206B648B
:107FA0004AF010013346B84700B1092420460DF5C8
:107FB000727DBDE8F087072CF7D14846296CFFF7A2
:107FC00081FF03A800F082FB406C70474FF0FF3C3C
:107FD000F0B5CB6BF9B00B640E1D01AC0F46054636
:107FE0000FCE0FC40FCE0FC40FCE0FC496E80F00F4
:107FF00084E80F00CDF800C006E06A4629462B69E8
:1080000098470828044608D128461099FFF7D6FE5D
:108010000028F2D0092079B0F0BD6846FFF71EFFB6
:10802000062CF7D139462846FFF74EFF30B4DD6BFA
:10803000C160826119461D64002230BC62E700BF46
:1080400070B54369C6680B64AEB90A460369044655
:108050000D46014602209847072805D008280FD171
:1080600029462046FFF730FF3046296CFFF72AFFEC
:10807000281D00F02BFB0122FFF744FF09F07AFDD9
:1080800009F078FDC2682AB110B4CC6B00220C64F0
:1080900010BC37E79AE700BF704700BF836801460E
:1080A0000BB1012018477047012912D009D873B9C4
:1080B0000F2A0CD800EB820042681846009B1A6019
:1080C00070470339012994BF012002207047022024
:1080D00070470846704700BF002310B584B003AC5A
:1080E0000A4600941946FFF7DFFF039804B010BD5D
:1080F000012912D009D873B90F2A0CD8009900EBC6
:10810000820209681846516070470339012994BFFB
:10811000012002207047022070470846704700BFC8
:1081200030B500230D4685B003AC039219462A46AC
:108130000094FFF7DDFF05B030BD00BF4FF0FF3CFE
:10814000F0B5D36BADF50F7D1364151D17AC074665
:108150000E460FCD0FC40FCD0FC40FCD0FC495E841
:108160000F0084E80F00CDF858C012E00C2116A8CB
:108170006A46FFF7D5FF314616A8B84778B9694671
:108180000820049B16AA98470528044608D0092809
:1081900005D068462699FFF711FE0028E6D009248D
:1081A00016A8FFF75BFE20460DF50F7DF0BD00BF62
:1081B0002DE9F04FCC6C174654F8042B89B00D46CE
:1081C0001E4600F003080694002B79D00221130C00
:1081D0008DF81D301204DBB204EB830405928DF898
:1081E0001C102B6DB8F1020F08BFAC6B13F001032C
:1081F0000CD0384605A900F06BFB18B9082009B06F
:10820000BDE8F08F092009B0BDE8F08FD4F800A0D8
:10821000BAF1000FEDD0019300F008030293022E93
:108220004AD0B4F800A0B4F802900434AA6C0F212C
:10823000384629F0010B9344FFF74EFF834539D8A8
:108240002AF001025A44824294BF002001204FEAE2
:10825000490303F002030AF0010A43EA0A03012B6F
:1082600049D0022B32D0002BCCD1B8F1000F02D074
:10827000002840F0CD800434D4F800A0BAF1000FFB
:10828000CDD1384605A900F023FB0028BAD1019BC7
:10829000002BB3D00F213846FFF71EFF0E210246F8
:1082A0003846FFF73DFF38460F216A4AFFF738FF8F
:1082B0000720A8E70020CAE7D4F804900834B5E7FF
:1082C000032312020592ADF81C308AE7236823F0DD
:1082D000004BB8F1000F45D128B1029A002A5CD0BA
:1082E000BBF1000F74D0002B00DA04340BF1010B4A
:1082F00004EB8B04C0E7B8F1000F19D1B0B1D4E999
:108300000023991C4FEAD2723FF47CAF05F158016B
:108310000133049100F09080201DFFF7CBFD04ABEA
:108320000146284608F0FEFC00285BD10834A3E78C
:108330000D213846D5F82090FFF7CEFE8145F5D1C6
:10834000AB6A9C42F2D12046FFF7ECFC0F210246BB
:108350003846FFF7E5FE38462A460021FFF7E0FEE3
:10836000072050E70D213846D5F82090FFF7B4FEDE
:10837000814501D02368B6E7AB6A9C42FAD104225A
:108380000021C5E90B12A318C5F828B06B63236858
:108390008B4259DB01230193A8E705F15803CDF87F
:1083A0000C809146B04604F1040A1E460EE0504689
:1083B0000496FFF77FFD0022014604AB284608F033
:1083C000B1FC09F101090AF1040AE0B9D945EED17D
:1083D00038460D21FFF780FE049B2862C5E9093469
:1083E000062010E781460D213846FFF775FEB9F1EA
:1083F000020F286225D12B46049A43F82C2F6B627A
:108400000620AC62FFE646462368DDF80C806AE78A
:108410002046FFF787FC02460434AC632846144626
:1084200008F0E0FC00283FF4EDAE384622460F216C
:10843000FFF776FE0720E6E638460D21FFF74CFEF3
:108440002862049B6B62DBE70BF1010004EB800008
:108450007AE700BF150F01080023A9E60123A7E66C
:108460000223A5E62DE9F043064615461C46C3B097
:10847000042900F2B280DFE801F09650B027030033
:10848000002C40F0AA80102A00F2A7800368D806CA
:1084900000F1EB8020AF384600F08AF9002301207C
:1084A000B26B00FA03F129421CBF52F8041B47F8D3
:1084B00023100133042BF4D13846B26300F06EF977
:1084C000002043B0BDE8F083032C40F0868094B2D6
:1084D00004EB1243102B4FEA12457ED803681F07A6
:1084E00000F1CB8020AF384600F036F907EBC5012C
:1084F000B56B54B10B4601EBC401E81AE4001A58FD
:1085000043F8042B8B42FAD125443846B56300F07A
:1085100001F9002043B0BDE8F083012C4FEA124876
:1085200095B256D0052C58D108EB0509B9F1200FAA
:1085300053D8B8F10F0F73D9A946002D40F08480AD
:10854000B36B65B320AF4FF0000907EBC807043FDA
:1085500003EBC50553F8041BAB4247F8041FF9D1E0
:10856000B9F1000F0FD06F464146102938BF1021D6
:1085700007EBC101843903EBC90553F8040BAB4287
:1085800041F8040FF9D1012C7FD0B8F10F0FB5637A
:1085900042D9B9F1000F02D0684600F0B3F80020CC
:1085A00043B0BDE8F083C4B923460124826B371D74
:1085B000A8B204FA03F101421CBF52F8041B47F8A9
:1085C00023100133102BF4D115F40050E7D1B2631E
:1085D00004E008EB0503102B03D9022043B0BDE8EB
:1085E000F083B8F10F0FF8D83368DA0706D53046B4
:1085F00023F0030340F8483B00F078F820AF3846FA
:1086000000F074F8B36B002D9DD11D46043538463B
:10861000B56300F067F8C2E720A800F06BF8B8E790
:10862000B9F1100F3FD9A9F110093368D90708D55E
:10863000304623F0010343F0020340F8483B00F0CA
:108640005DF8B9F1000F31D033685A071FD4B8F183
:108650000F0F24D96F46C8F11005384600F056F8C0
:10866000002DB36B80DD20AF6FE723F01003336084
:1086700006F5E87000F09CF80CE723F008030360AF
:1086800000F5A87000F068F82CE720AFBEE7304690
:1086900023F0040340F8D03B00F038F8D7E720A8D7
:1086A00000F02CF8D6E74FF00009BEE7B8F10F0F45
:1086B0003FF646AF20AF384600F020F8B36B002DF0
:1086C0007FF441AF384600F015F868E700F1340157
:1086D00091E838009C46A6464CF8045D90E8FF0FF0
:1086E000E54600BD90EC210B704700BF80EC210BEC
:1086F000704700BF90EC200B704700BF80EC200B50
:10870000704700BFD0EC200B704700BFC0EC200BBF
:10871000704700BFF0EC0201F0EC0211F0EC022116
:10872000F0EC0231F0EC0241F0EC0251F0EC0261AD
:10873000F0EC0271F0EC0281F0EC0291F0EC02A19D
:10874000F0EC02B1F0EC02C1F0EC02D1F0EC02E18D
:10875000F0EC02F1704700BFE0EC0201E0EC021126
:10876000E0EC0221E0EC0231E0EC0241E0EC0251ED
:10877000E0EC0261E0EC0271E0EC0281E0EC0291DD
:10878000E0EC02A1E0EC02B1E0EC02C1E0EC02D1CD
:10879000E0EC02E1E0EC02F1704700BFB0FC0181C7
:1087A000B0FC0191B0FC01A1B0FC01B1704700BF69
:1087B000A0FC0181A0FC0191A0FC01A1A0FC01B1E1
:1087C000704700BFEC4600B52DE900502DE9FF1FB2
:1087D0004FF000032DE90C0001A9FFF7F7FBDDF8CE
:1087E00040E012B0704700BFEC4600B52DE90050E4
:1087F0002DE9FF1F4FF000032DE90C0001A9FFF741
:108800001FFCDDF840E012B0704700BFEC4600B539
:108810002DE900502DE9FF1F4FF000032DE90C005A
:1088200001A9FFF72FFCDDF840E012B0704700BF50
:10883000EC4600B52DE900502DE9FF1F4FF0000375
:108840002DE90C0001ABFFF7F1FBDDF840E012B0C1
:10885000704700BFEC4600B52DE900502DE9FF1F21
:108860004FF000032DE90C0001AAFFF767FCDDF8CB
:1088700040E012B0704700BF027A7AB9437AA3B1E0
:1088800003214268013B10B443721368141D017246
:108890001A024460026010BC180E70470368013A67
:1088A00002721A020260180E7047B020704700BFB3
:1088B000002300B585B003AA009219460C22FFF7E9
:1088C000F3FB039805B05DF804FB00BFF0E700BFC1
:1088D0002DE9F04305460E464FF0000885B03046BE
:1088E000FFF7CAFFB028044600F0B180070620D584
:1088F00000F0F003802B4DD0902B36D0A02B60D011
:10890000B02B73D0C02B00F08A8000F0F803D02B7E
:108910000BD100F00702013242F4002205230121AD
:108920002846FFF79FFD0028D9D0092005B0BDE8F3
:10893000F08300230DF10C0919460D228700CDF8B4
:1089400000902846FFF7B0FBFFB2039B0437600698
:108950004CBFDF1BFF1800230D2219462846CDF817
:1089600000900397FFF7C4FBB9E700F00D030D2B50
:10897000DBD0002303AF194600F00F020097284612
:10898000FFF792FB00230D22194628460097FFF7B8
:10899000AFFBA4E73046FFF76FFF24022043B0F59A
:1089A000004FC2D00023040119462846A2B2FFF7A7
:1089B00059FD0028B9D114F4004F18BF4FF0010839
:1089C0008DE7C3434FF47F6203F007031A4100238E
:1089D000010702F47F6248BF42F4804219462846EC
:1089E000FFF740FD00283FF47AAF9EE7B12833D06F
:1089F000B22800F08B80B32839D000F0FC03B42BF0
:108A000093D0012300F007021A4442F400221946D1
:108A10002846FFF727FD00283FF461AF85E7C62809
:108A200042D0C7284CD000F0F803C02B5BD0C82838
:108A300060D0C9287FF479AF3046FFF71DFF0203ED
:108A400000F00F0002F470220130024366E7B8F133
:108A5000000F18D0002069E73046FFF70DFF0246EF
:108A600000283FF462AF10F0F003D0D05DE730464D
:108A7000FFF702FF0123010300F00F0001F4702152
:108A8000C2180A43C3E703AC43460E2241462846B8
:108A90000094FFF709FB284643460F224146009405
:108AA000FFF726FB404641E73046FFF7E5FE0103AE
:108AB00000F00F0001F47021421C03230A43A6E7D3
:108AC0003046FFF7D9FE024600283FF42EAF10F0E3
:108AD000F0037FF42AAF04212846FFF7C3FC0028E7
:108AE0003FF4FDAE21E700F00F020132032342F410
:108AF00020228CE73046FFF7BFFE00F0F00200F0C6
:108B00000F031032013343EA023207E700230DF16D
:108B10000C090D2219462846CDF80090FFF7C4FA3B
:108B20003046FFF7A9FE02064FF002040CD5039B66
:108B300000F07F00A040034430460393FFF79CFE03
:108B4000030604F10704F2D40023039A00F07F0027
:108B500000FA04F402F50172144419460D22284665
:108B6000CDF800900394FFF7C3FAB8E610B50324DC
:108B7000C36C84B05A688DF80C40DC79120208335B
:108B8000084601A901928DF80D400293FFF7A0FE5F
:108B900004B010BD08B5FFF799FE806C08BD00BF9A
:108BA00008B5FFF793FEC06CC379023300EB830076
:108BB00008BD00BF844641EA000313F0030349D116
:108BC000403A23D30B6803604B6843608B68836033
:108BD000CB68C3600B6903614B6943618B69836137
:108BE000CB69C3610B6A03624B6A43628B6A83621F
:108BF000CB6AC3620B6B03634B6B43638B6B836307
:108C0000CB6BC36340304031403ADBD230320BD3C0
:108C10000B6803604B6843608B688360CB68C360FC
:108C200010301031103AF3D20C3205D351F8043B16
:108C300040F8043B043AF9D2043208D0D2071CBFF2
:108C400011F8013B00F8013B01D30B88038060461B
:108C5000704700BF082A13D38B07B1D010F003036D
:108C6000AED0C3F10403D21ADB071CBF11F8013BDD
:108C700000F8013BA4D331F8023B20F8023B9FE708
:108C8000043AD9D3013A11F8013B00F8013BF9D27B
:108C90000B7803704B7843708B7883706046704715
:108CA00080EA010C1CF0030F37D110F0030C20F008
:108CB000030021F0030150F8042B08BF51F8043BD6
:108CC0000ED08CF0030C6FF07F434FEACC0C23FAEC
:108CD0000CFC51F8043B42EA0C0243EA0C0300BFCF
:108CE000A2F1013C9A4201BF2CEA020C1CF0803F29
:108CF00050F8042B51F8043BF2D04FEA02604FEADF
:108D00001222012828BFB0EB036F08BF1B0AF4D062
:108D100003F0FF03000EC01A704710F0030F0AD0D3
:108D200010F8012B11F8013B012A28BF9A42F4D018
:108D3000A2EB030070474DF8045D50F8042B01F0DE
:108D4000030521F0030151F8043B022D26D04DD834
:108D500022F07F45B5EB132FA2F1013C2CEA020C67
:108D60000DD11CF0803C08BF51F8043B0AD185EAC4
:108D70000205B5EB036F0CD150F8042BE8E74FEA7E
:108D800013235BE03CF07F4C54D10B784FEA126523
:108D900054E04FEA126503F0FF034FE04FEA02454B
:108DA000A2F1013C4FEA15452CEA020CB5EB134F3A
:108DB00018D11CF0803C08BF51F8043B07D185EA6C
:108DC0000205B5EB034F09D150F8042BE6E75FEA43
:108DD0000C4C2FD10B884FEA12452FE04FEA03438A
:108DE0004FEA12454FEA134328E000BF02F0FF05A7
:108DF000B5EB136FA2F1013C2CEA020C0DD11CF073
:108E0000803C08BF51F8043B0AD185EA0205B5EB66
:108E1000032F0AD150F8042BE8E74FEA13630DE063
:108E200012F0FF0F06D051F8043B4FEA122523F051
:108E30007F4303E04FF0000020BC704705F0FF02C5
:108E400003F0FF00012828BF904204BF2D0A1B0A2F
:108E5000F4D0A2EB000020BC704700BF4FF0FF3CF5
:108E600006E000BF4FF0010C02E000BF4FF0010C24
:108E70004DF804CD4FEA410C7FEA6C5C4FEA430C9D
:108E800018BF7FEA6C5C1BD001B050EA410C0CBFEC
:108E900052EA430C91EA030F02BF90EA020F00204E
:108EA000704710F1000F91EA030F58BF994208BFB5
:108EB00090422CBFD8176FEAE37040F00100704772
:108EC0004FEA410C7FEA6C5C02D150EA013C07D1C9
:108ED0004FEA430C7FEA6C5CD6D152EA033CD3D014
:108EE0005DF8040B704700BF8446104662468C460E
:108EF0001946634600E000BF01B5FFF7B7FF002841
:108F000048BF10F1000F01BD4DF808EDFFF7F4FF69
:108F10000CBF012000205DF808FB00BF4DF808EDF4
:108F2000FFF7EAFF34BF012000205DF808FB00BF17
:108F30004DF808EDFFF7E0FF94BF012000205DF839
:108F400008FB00BF4DF808EDFFF7CEFF94BF0120EE
:108F500000205DF808FB00BF4DF808EDFFF7C4FFE7
:108F600034BF012000205DF808FB00BF4FEA410C30
:108F70007FEA6C5C02D150EA013C0AD14FEA430C13
:108F80007FEA6C5C02D152EA033C02D14FF0000050
:108F900070474FF0010070474FEA410212F500128E
:108FA00015D211D56FF47873B3EB625212D94FEA30
:108FB000C12343F0004343EA505311F0004F23FA1A
:108FC00002F018BF404270474FF00000704750EA6F
:108FD000013005D111F0004008BF6FF0004070472C
:108FE0004FF00000704700BF4A0011D212F5001286
:108FF00011D20DD56FF47873B3EB62520ED44FEAF1
:10900000C12343F0004343EA505323FA02F0704770
:109010004FF00000704750EA013002D14FF0FF30AE
:1090200070474FF00000704753B94AB9002908BF94
:1090300000281CBF4FF0FF314FF0FF3000F0A6B901
:10904000ADF1080C6DE904CE00F03EF8DDF804E067
:10905000DDE9022304B0704738B50C4605462146C9
:10906000284600220023FFF759FF28B92846214649
:10907000BDE8384000F00AB8284604F1004100F08D
:1090800005F8404261EB410138BD00BFD0B5002278
:109090000B4B06460F46FEF7D3F8FFF7A5FF044635
:1090A000FEF754F80022074BFEF7CAF802460B46BB
:1090B00030463946FDF70CFFFFF796FF2146D0BD3D
:1090C0000000F03D0000F0412DE9F047089E0D46FC
:1090D00004468E46002B40F083808A42174647D9CB
:1090E000B2FA82F34BB1C3F1200105FA03FE20FA74
:1090F00001F19F4041EA0E0E9C404FEA1748BEFB2B
:10910000F8FC1FFA87F908FB1CE20CFB09F0210CA4
:1091100041EA024290420AD9BA180CF1FF3180F0BC
:109120001881904240F21581ACF1020C3A44121AB7
:10913000B2FBF8F008FB102200FB09F1A4B244EAEC
:109140000244A14209D93C1900F1FF3280F00381A9
:10915000A14240F2008102383C44641A002140EAF6
:109160000C401EB10022DC40C6E90042BDE8F08799
:1091700002B9FFDEB2FA82F3002B4FD18D1A012122
:109180004FEA124E1FFA82F8B5FBFEFC0EFB1C558F
:1091900008FB0CF0220C42EA0545A84207D97D19CC
:1091A0000CF1FF3202D2A84200F2E98094462D1A57
:1091B000B5FBFEF00EFB105508FB00F8A4B244EA24
:1091C0000544A04507D93C1900F1FF3202D2A04561
:1091D00000F2D9801046A4EB080440EA0C40C0E736
:1091E0008B4208D9002E00F0B1800021C6E90005AD
:1091F0000846BDE8F087B3FA83F100294BD1AB42B2
:1092000002D3824200F2B980841A65EB0303012085
:109210009E46002EAAD0C6E9004EA7E79F40C3F1A4
:109220002002D1404FEA174EB1FBFEF01FFA87F83B
:109230000EFB101124FA02F29D4000FB08FC2A43A9
:10924000150C45EA0145AC4504FA03F409D97D192A
:1092500000F1FF3180F08F80AC4540F28C80023805
:109260003D44A5EB0C05B5FBFEF10EFB115C01FBCB
:1092700008F995B245EA0C45A94507D97D1901F1D0
:10928000FF3274D2A94572D902393D44A5EB0905D4
:1092900041EA004178E7C1F120078B4022FA07FC40
:1092A0004CEA030C25FA07F44FEA1C4EB4FBFEF916
:1092B0001FFA8CF80EFB194420FA07F309FB08FA91
:1092C0008D401D432B0C43EA0444A24502FA01F2EF
:1092D00000FA01F309D91CEB040409F1FF3048D26C
:1092E000A24546D9A9F102096444A4EB0A04B4FBDF
:1092F000FEF00EFB104400FB08FAADB245EA044450
:10930000A24508D91CEB040400F1FF352DD2A2457B
:109310002BD90238644440EA0940A0FB0289A4EB3F
:109320000A044C45C6464D4619D316D05EB1B3EB80
:109330000E0264EB050404FA07F722FA01F31F4357
:10934000CC40C6E900740021BDE8F08731463046C4
:109350000CE78C46EBE61046FFE64345E6D2B8EB59
:10936000020E69EB0C050138E0E72846D3E7114609
:109370008CE78146B9E7084673E7084649E7ACF150
:10938000020C3D4413E702383C4424E7704700BF19
:1093900010B584B000230193029303931C481D4A27
:1093A00002604FF4807282600122027303754FF4F1
:1093B0006022C26143600223036102F053FFF0B9EF
:1093C00000230193012302930723039301A910486B
:1093D00002F0A4FDB0B9012301930223029301A975
:1093E0000B4802F09BFD80B9094C204602F0BEFFFD
:1093F00002220949204602F071FE04B010BD00F0BF
:1094000011FADDE700F00EFAE5E700F00BFAEBE702
:109410002C0A002000240140A00A002010B586B0CC
:109420000023029303930493059302681E4B9A4210
:1094300001D006B010BD044603F56C439A6942F4AE
:1094400000729A619A6902F400720092009A9A6915
:1094500042F004029A619B6903F004030193019BAB
:1094600003230293039302A9104803F031FF10482D
:10947000104B03600023436083608023C3604FF47C
:10948000807303614FF480634361202383614FF451
:109490004053C36103F03AFC18B9054B23625C6288
:1094A000C7E700F0BFF9F8E70024014000080140D9
:1094B0005C0A00200800024010B58AB02248234B05
:1094C00003600423436000238360C3604FF4802261
:1094D00002614FF4001242610376437601228276E4
:1094E000C3760377437702F0C1FF30BB00230593B7
:1094F000069301220792009301930293039304932E
:1095000008920E23099369460F4803F055F8B8B93D
:109510000D4C204603F0CFF80D49204603F00FFA1A
:109520000C4B5A680C4B1A6000225A60DA609A6041
:10953000082119611A750AB010BD00F073F9D5E75A
:1095400000F070F9E4E700BF100B00200064004059
:109550007F8F030034120020F40A002070B586B01B
:109560000023029303930493059302682C4B9A42C1
:1095700001D006B070BD03F5D633DA6942F000724F
:10958000DA61DA6902F000720092009A9A6942F098
:1095900008029A619B6903F008030193019B4FF451
:1095A000807302930024039404941E4E02A9304653
:1095B00003F08EFE4FF400730293022303930325FE
:1095C000059502A9304603F083FE174A536823F439
:1095D000C04343F0E06343F480435360224629468E
:1095E000132003F001FB132003F032FB224629462F
:1095F000142003F0F9FA142003F02AFB224629462E
:10960000152003F0F1FA152003F022FB224629462B
:10961000162003F0E9FA162003F01AFBA9E700BFB1
:1096200000640040000C01400000014008B50A46FB
:10963000044B0146044803F06CF800B908BD00F083
:10964000F1F8FBE70C0B0020100B002008B50E4BC7
:109650000E4A002103F0D3F890B90C4B1868C309E7
:10966000C0F3C71200F07F0022B1094A5268DBB292
:109670009A4204D1054B1A69034906F0A7FD08BDBB
:1096800000F0D0F8E9E700BFD00A0020D80A002097
:109690003412002000B583B0124B5A6942F0010227
:1096A0005A615B6903F001030193019B002211469B
:1096B0000B2003F099FA0B2003F0CAFA00220321D1
:1096C0000E2003F091FA0E2003F0C2FA00220321CB
:1096D0000F2003F089FA0F2003F0BAFA03B05DF807
:1096E00004FB00BF001002402DE9F04389B00024C4
:1096F0000494059406940794454B9A6942F010022D
:109700009A619A6902F010020092009A9A6942F0F6
:1097100020029A619A6902F020020192019A9A69E4
:1097200042F004029A619A6902F004020292029ADB
:109730009A6942F008029A619B6903F00803039357
:10974000039BDFF8D89022464FF4C041484603F00F
:1097500054FF304E22463C21304603F04EFFDFF8E6
:10976000C08022460221404603F047FF01224FF409
:109770000041304603F041FF4FF4C04304930125FC
:10978000059506940227079704A9484603F0A0FD13
:109790003C230493059506940323079304A93046BC
:1097A00003F096FD802304931B4B0593069404A9B4
:1097B000304603F08DFD04950594069404A94046B7
:1097C00003F086FD049705950694079704A9404683
:1097D00003F07EFD41F2040304930594069504A969
:1097E000404603F075FD4FF400430493059506943D
:1097F000079704A9304603F06BFD22462146172047
:1098000003F0F2F9172003F023FA09B0BDE8F08362
:10981000001002400008014000003110001001401B
:10982000000C014072B6FEE700B595B000230D9321
:109830000F9310930593069307930893099301934D
:1098400002930393049301210A914FF480320B9207
:109850000C930E910223119312924FF480131393E1
:109860000AA803F0E7FEC8B90F2305930221069169
:10987000002307934FF480620892099305A804F02F
:109880001DF968B9022301934FF40043039301A823
:1098900004F0F0F930B915B05DF804FBFFF7C2FF32
:1098A000FFF7C0FFFFF7BEFF08B502F0C1FAFFF7F0
:1098B000BBFFFFF719FFFFF7EDFEFFF769FD00F0B3
:1098C000B5FBFFF7F9FD00F00BF800F0D7FA00F058
:1098D00099F900F0EDF900F05BF906F0B1FAFEE756
:1098E00008B51048104B03604FF4827343600023A7
:1098F00083604FF40062C260022202610122426171
:109900004FF4007282611022C2610362436283627B
:109910000A23C36204F02EFB00B908BDFFF782FFE3
:10992000FBE700BF380B00200030014010B586B0C7
:109930000023029303930493059302681A4B9A42FF
:1099400001D006B010BD03F560439A6942F480521D
:109950009A619A6902F480520092009A9A6942F0E0
:1099600008029A619B6903F008030193019B282375
:10997000029302230393032305930C4C02A9204670
:1099800003F0A6FC1023029300230393049302A97F
:10999000204603F09DFC064A536843F0E06343F021
:1099A00001035360CDE700BF00300140000C0140CF
:1099B0000000014082B00E4B9A6942F001029A61A8
:1099C0009A6902F001020092009ADA6942F080522C
:1099D000DA61DB6903F080530193019B054A536808
:1099E00023F0E06343F00073536002B0704700BFA0
:1099F0000010024000000140FEE7FEE7FEE7FEE740
:109A0000FEE770477047704708B502F023FA08BDBB
:109A100008B5024803F058FA08BD00BF5C0A0020F0
:109A200008B5024803F050FA08BD00BFFC0C002046
:109A300008B5024803F048FA08BD00BFB80C002082
:109A400008B5024802F099FF08BD00BF100B0020C6
:109A500008B5024802F091FF08BD00BF100B0020BE
:109A600008B5024802F089FF08BD00BF100B0020B6
:109A700008B5024802F081FF08BD00BF100B0020AE
:109A800008B5064B5B6913F0800F00D108BD034B8E
:109A900080225A6106F08AFBF8E700BF000401400B
:109AA00008B506F049FB08BD08B506F087FB08BD00
:109AB00008B506F063FB08BDF0B583B0174B1B6813
:109AC0001A6812F0100F04D1144805F079FB03B0A6
:109AD000F0BD002601961A6801925B680193019B14
:109AE0000E4F384605F089FA0D4B1B685B68C3F1D1
:109AF0008003DBB20B4C237021780B4D0B4B1B68A2
:109B00002846984722783146284608F055FE2670A8
:109B100080222946384605F0CDFCD5E7400D0020CF
:109B2000B80C0020840D0020880D0020B40C00200B
:109B30000120704708B508F025F8162303604FF0A0
:109B4000FF3008BD08B54FF0FF31FFF7F3FFFEE728
:109B500008B503460B4A126842B10A4A106803442A
:109B60006A46934206D8074A136008BD054A06496B
:109B70001160F2E708F006F80C2303604FF0FF30A5
:109B8000F3E700BF900B00209818002070470000FA
:109B900000B587B0002302930393049305930093C9
:109BA00001931648164A026047224260836042F2DF
:109BB0000F72C260036143618023836104F002FD80
:109BC00090B94FF48053029302A90C4804F0A9FE07
:109BD00068B90023009301936946084804F0FEFF2A
:109BE00040B907B05DF804FBFFF71CFEE9E7FFF79B
:109BF00019FEEEE7FFF716FEF3E700BF940B002017
:109C0000002C014000B58DB0002307930893099301
:109C10000A930B9305930693019302930393049382
:109C20002148224A02604722426083604FF6FF7259
:109C3000C2600361836104F0C5FC28BB1A4804F0CC
:109C400019FD20BB04230793502308930023099395
:109C50000B9307A9144804F018FFD8B90023059303
:109C6000069305A9104804F0B9FFB0B9002201928B
:109C7000012302930392049201A90B4804F0ECFD26
:109C800070B90DB05DF804FBFFF7CCFDD6E7FFF728
:109C9000C9FDD7E7FFF7C6FDE0E7FFF7C3FDE5E73E
:109CA000FFF7C0FDEDE700BF240C002000040040DA
:109CB00000B587B0002302930393049305930093A8
:109CC00001931548154A02604722426083603122A1
:109CD000C26003618023836104F074FC90B94FF487
:109CE0008053029302A90C4804F01BFE68B90023BC
:109CF000009301936946084804F070FF40B907B02B
:109D00005DF804FBFFF78EFDE9E7FFF78BFDEEE75B
:109D1000FFF788FDF3E700BF6C0C0020000800404F
:109D200010B588B000230493059306930793036846
:109D30002A4A934207D02A4A934217D0294A93428B
:109D400039D008B010BD284B9A6942F400629A617C
:109D50009B6903F400630093009B002205211920F6
:109D600002F042FF192002F073FFEAE71E4BDA69A6
:109D700042F00202DA61DA6902F002020192019A0B
:109D80009A6942F004029A619B6903F0040302930A
:109D9000029B4023049300240594069404A91348CD
:109DA00003F096FA224621461D2002F01DFF1D20D9
:109DB00002F04EFFC5E70C4BDA6942F00402DA61AB
:109DC000DB6903F004030393039B002211461E206A
:109DD00002F00AFF1E2002F03BFFB2E7002C014018
:109DE000000400400008004000100240000801404C
:109DF0000368B3F1804F00D0704782B003F504339D
:109E0000DA6942F00102DA61DB6903F001030193D0
:109E1000019B02B07047000000B587B00023029399
:109E20000393049305930368B3F1804F02D007B006
:109E30005DF804FB03F504339A6942F008029A6165
:109E40009B6903F008030193019B4FF44063029365
:109E5000022303930323059302A9064803F038FA6B
:109E6000054A536823F4407343F0E06343F40073FE
:109E70005360DCE7000C01400000014010B58AB0DF
:109E8000002308930993019302930393049305938A
:109E90000693079320484FF080420260436083603E
:109EA00040F2FF32C2600361836104F0B7FB38BB4C
:109EB00000230893099308A9174804F08FFE10BBEC
:109EC000602301930023029303930593082201A9C1
:109ED000114804F02DFCC8B90C2201A90E4804F069
:109EE00027FCB0B90C4C0821204604F009FE0C21D7
:109EF000204604F005FE2046FFF78EFF0AB010BD95
:109F0000FFF790FCD4E7FFF78DFCD9E7FFF78AFC59
:109F1000E2E7FFF787FCE5E7DC0B0020F0B587B050
:109F2000002302930393049305930268354B9A42EE
:109F300001D007B0F0BD044603F558439A6942F4D6
:109F400080429A619A6902F480420092009A9A696A
:109F500042F008029A619B6903F008030193019B98
:109F6000402302930223039303230593264F02A960
:109F7000384603F0ADF98026029600250395049536
:109F800002A9384603F0A4F9204A536843F0E0637D
:109F900043F0040353601E481E4B03604560856018
:109FA000C6600561456185614FF48053C36102F06D
:109FB000ADFE00BB164BA3635C621748174B0360F2
:109FC00010234360002383608022C26003614361E9
:109FD00083614FF48053C36102F098FE70B90E4B59
:109FE00063635C6200220321252002F0FDFD252031
:109FF00002F02EFE9DE7FFF715FCDBE7FFF712FCF2
:10A00000EDE700BF00380140000C014000000140B6
:10A01000B80C002058000240FC0C00204400024014
:10A02000014B1860704700BFB40C002010B51348F6
:10A03000134B03604FF4E133436000238360C3603C
:10A0400003610C2242618361C36104F0C9FE88B9D7
:10A050000A4C2268D36843F01003D360204605F011
:10A06000F3FA0848FFF7DCFF80220749204605F095
:10A0700021FA10BDFFF7D6FBEAE700BF400D002034
:10A0800000380140D9070108880D002010B50446AA
:10A0900003685B69984723689B692046984710BD11
:10A0A00038B50446C1F30901818001F58073C3F31B
:10A0B000090343812D4D35F91330838135F9115052
:10A0C000C58082EAE271A1EBE27141F2DB3202FB70
:10A0D00001F2C2F30B3283EAE371A1EBE37189B2BF
:10A0E00002FB01F1C1F30F31C181002DB8BF6D42F8
:10A0F000ADB202FB05F2C2F30F32028103681B69A5
:10A100009847B4F90C30002B10DD23681B6A00223D
:10A11000012120469847B4F90630002B16DD23684C
:10A120005B6A002201212046984738BD002B06DBE0
:10A1300023681B6A0122114620469847EBE72368F3
:10A140001B6A0122002120469847E4E7002B06DB2A
:10A1500023685B6A0122114620469847E5E7236899
:10A160005B6A0122002120469847DEE7D4B001084F
:10A1700008B50368DB69984708BD38B50446002573
:10A18000C581058103681B692A46294698472368CB
:10A190001B6A2A4629462046984723685B6A2A4656
:10A1A00029462046984738BD10B504460021C18194
:10A1B000018103681B690A46984723681B6A0122CC
:10A1C00011462046984723685B6A012211462046C3
:10A1D000984710BD0023C3600161704710B4C36885
:10A1E0001944C1604468236891FBF3F20369134486
:10A1F0000361226891FBF2F302FB1311C16010BCF2
:10A20000704738B504460D460369CA1A03D1216167
:10A210002369236038BD002A15DD002B09DB816826
:10A22000FFF7DCFF2369AB42F2DB0023E36025612B
:10A23000EEE78168FFF7D2FF2369002BE8DB0023FC
:10A24000E3602361E4E7002AE2DA002B0ADD81689B
:10A250004942FFF7C3FF2369002BD9DC0023E360E9
:10A260002361D5E781684942FFF7B8FF2369AB4214
:10A27000CEDC0023E3602561CAE78160704708B542
:10A280004368D3F8B4305969FFF7F7FF08BD816020
:10A29000704708B54368D3F8B4301969FFF7F7FF82
:10A2A00008BD0023C3600161704710B4C36819443E
:10A2B000C1604468236891FBF3F2036913440361AE
:10A2C000226891FBF2F302FB1311C16010BC7047CE
:10A2D00038B504460D460369CA1A03D121612369C2
:10A2E000236038BD002A15DD002B09DB8168FFF7EC
:10A2F000DCFF2369AB42F2DB0023E3602561EEE77C
:10A300008168FFF7D2FF2369002BE8DB0023E360BD
:10A310002361E4E7002AE2DA002B0ADD8168494282
:10A32000FFF7C3FF2369002BD9DC0023E36023611F
:10A33000D5E781684942FFF7B8FF2369AB42CEDC1D
:10A340000023E3602561CAE710B504460846E160D2
:10A350002161FDF791FA01464FF07C50FDF794FB27
:10A36000606110BD10B504468368D3F8B430196934
:10A37000FFF7EAFFA368D3F8B4301B69034A82FBF6
:10A380000312DB17C3EBA213A36110BDD34D621000
:10A390000023C361026243628162704710B4436A62
:10A3A000194441628468236891FBF3F2836A134481
:10A3B0008362226891FBF2F302FB1311416210BC2D
:10A3C000704710B4C3691944C1618468236891FB64
:10A3D000F3F2036A13440362226891FBF2F302FB77
:10A3E0001311C16110BC7047F8B50446836ACD1AD9
:10A3F0002FD1036A826951428B4206DB934204DC0F
:10A400000023C3610362436203E0002B0ADC002BDC
:10A4100014DB216A2046FFF7C1FFA36A2360236A89
:10A420006360F8BD216949422046FFF7CAFF236AED
:10A43000002BEEDC0023E3612362EAE7216920467A
:10A44000FFF7BFFF236A002BE3DB0023E3612362F6
:10A45000DFE7066A56B9002D03DDC168FFF7B1FFDB
:10A46000D7E7C1684942FFF7ACFFD2E7002D43DDD3
:10A47000002E41DD8368D3F8B430DF68BE4230DCA3
:10A480003046FDF7F9F90146FDF74AFA6169FDF733
:10A4900047FAFDF721FC85EAE571A1EBE5718842F9
:10A4A00013DABE42B5DAE1682046FFF78AFF216A77
:10A4B000A368D3F8B420D2689142AADB0022E261FB
:10A4C000D3F8B430DB682362A3E721694942204610
:10A4D000FFF777FF236A002B9BDC0023E3612362F5
:10A4E00097E701694942FFF76CFF236A002B90DC74
:10A4F0000023E36123628CE7002D11DB002D5ADB82
:10A50000002D86DD002E84DA21692046FFF759FFF1
:10A51000236A002BFFF67DAF0023E361236278E717
:10A52000002EEBDAA368D3F8B430DF687F42BE4276
:10A5300035DB3046FDF7A0F90146FDF7F1F9616919
:10A54000FDF7EEF9FDF7C8FB85EAE571A1EBE571D2
:10A55000814218DDBE427FF75CAFE1684942204688
:10A56000FFF72FFF216AA268D2F8B430DB685B42A4
:10A5700099423FF74EAF0023E361D2F8B430DB6875
:10A580005B42236245E721692046FFF71AFF236AF1
:10A59000002BFFF63EAF0023E361236239E7216918
:10A5A0002046FFF70EFF236A002BFFF632AF002391
:10A5B000E36123622DE7002EA2DD21694942204696
:10A5C000FFF7FFFE236A002B3FF723AF0023E36171
:10A5D00023621EE7C16001614161C261704710B42E
:10A5E000C3680361C160CB1A82681468C269C2EB98
:10A5F000821204FB0323826913449A11C261A3EB04
:10A600008213836141610160426010BC7047C16088
:10A6100070470023436103778362C262036341632F
:10A62000704710B4836A194481628468236891FB7F
:10A63000F3F2C36A1344C362226891FBF2F302FB94
:10A640001311816210BC704710B4036B194401638D
:10A650008468236891FBF3F2436B134443632268DD
:10A6600091FBF2F302FB1311016310BC70472DE95B
:10A67000F84304460D461646036A934233D04FF022
:10A680000008C4F8148026626562D4F82C9009EBA7
:10A690000600FDF7F1F80746A6EB0900FDF7ECF818
:10A6A00001463846FDF73CF90646606B281A400023
:10A6B000FDF7E2F801463046FDF7E6F9FDF70CFB41
:10A6C000206184F81C80237F002B38D0E36AEBB92B
:10A6D000A362E16A2046FFF7B7FF636B2360E36A7A
:10A6E0006360BDE8F883436A8B42C8D142698169DF
:10A6F0004FF47A7303FB01F39A4202DB01230377E1
:10A70000E1E783685B681A444261DCE7002B0BDDFC
:10A71000E16849422046FFF784FFE36A002BD8DC5A
:10A720000023A362E362D4E7E1682046FFF779FFE4
:10A73000E36A002BCDDB0023A362E362C9E7216952
:10A740002046FFF76EFFC4E738B504460D46836820
:10A75000D3F8B4301969FFF75AFFA56138BD10B5B9
:10A760000446C0F8B4100830FFF789FD04F11C005E
:10A77000FFF78FFD04F13000FFF7F4FDC82104F16D
:10A780007C00FFF7E1FF10BDC0F844117047C0F82E
:10A7900048117047C0F84C11704710B503460A467F
:10A7A000016300290CDD816A8068406801445965B5
:10A7B0009968D1F8480101684C68596DA04710BDEF
:10A7C000002902DB816A4165F2E7816A806840689E
:10A7D000091A5965ECE7000010B503681A695A6157
:10A7E000C2690368891A196103681A69B2F5801F82
:10A7F00002DD4FF480121A6103681A6912F5801F96
:10A8000001DA264A1A61036859681A6902FB01F2E3
:10A810009A6103689A681C69596A04FB02125A62B9
:10A820000268536A9B1293620368996A5A6AA2EBA0
:10A8300081225A620368996ADA690A44DA61016816
:10A84000CC6983685A699302B4EB822F1CDDCB611B
:10A850000268D168136954691B1B03FB01F313627F
:10A8600002689369D1690B44116A0B449B12D3624D
:10A870000268D16A83685B6999420ADDD362036822
:10A88000D96AFFF78AFF10BD5B429C42E0DACB61D8
:10A89000DEE75B429942F2DAD362F0E70000F0FFB4
:10A8A00038B5846A0368091B19640368196CB1F52B
:10A8B000486F02DD4FF4486119640368196C11F5A3
:10A8C000486F01DA31491964C369D21A0368D21199
:10A8D0005A6403685A6CB2F57A6F02DD4FF47A62FB
:10A8E0005A6403685A6C12F57A6F01DA284A5A647E
:10A8F0000368196B1A6C02FB01F29A6403689A6B85
:10A900001D6C596B5C6C04FB01F105FB02115A6D67
:10A910000A445A650268536DDB1193650368996DAB
:10A920005A6DA2EBC1125A650368996DDA6C0A443C
:10A93000DA640168CC6C83685A699302B4EB822FA5
:10A940001ADDCB640368D96B5A6C02FB01F21A65FD
:10A950000268936CD16C0B44116D0B449B12D36550
:10A960000268D16D83685B6999420ADDD36503682B
:10A97000D96DFFF712FF38BD5B429C42E2DACB642F
:10A98000E0E75B429942F2DAD365F0E780F3FFFF3C
:10A9900060F0FFFF017170478368DB680B4443631D
:10A9A000704700002DE9F84F05460F4616464469EA
:10A9B0000C1BD0F80890D9F80C301C44002CB8BF00
:10A9C0006442D9F81C00FCF757FF80463146FCF77B
:10A9D000A7FF83463146FCF7A3FF4FF07A51FCF7FF
:10A9E0009FFF82462046FCF747FF04465146FDF78D
:10A9F00053F950B1194B5B69C9F8183039462846EC
:10AA0000FFF7CAFF0020BDE8F88F31463046FCF75B
:10AA100087FF06464FF081412046FCF781FF414603
:10AA2000FDF732F801463046FCF770FE06F0F4FF01
:10AA300001464046FCF774FF01465846FCF766FEA7
:10AA40004FF07C51FCF76CFFAC68FDF745F9A06155
:10AA500039462846FFF7A0FF0120D4E73412002032
:10AA600083689B695A428A4202DC8B4200DB816325
:10AA7000704738B571B1C2688568E868101AFCF78C
:10AA8000FBFE0446A868FCF7F7FE01462046FCF7EB
:10AA9000FBFF38BD42698568E868101AFCF7ECFED8
:10AAA0000446A868FCF7E8FE01462046FCF7ECFFE8
:10AAB000EFE738B50446C069FCF7DEFE0546A3683B
:10AAC0009868FCF7D9FE01462846FCF7DDFF38BD43
:10AAD00008B5006BFCF7D0FE0149FCF7D5FF08BDB7
:10AAE00000007A4483685B698B4201DAC363704774
:10AAF0005B428B4201DDC3637047C1637047002333
:10AB00008365C37170470000002813DB314B984206
:10AB10005DDD314B98423CDAA0F5C330A0384FF4EC
:10AB2000837303FB00F00015B0F5D77F16DD4FF4FB
:10AB3000D77013E0294B984245DAA3F59213A3F599
:10AB4000786398420BDB00F5C330A0304FF4837379
:10AB500003FB00F0001510F5D77F36DB7047204B64
:10AB600098420BDB00F59E1000F5B150C0EBC00021
:10AB7000C0EB00100015A0F59670ECE700F506108C
:10AB800000F58E50342303FB00F00015A0F5C370D0
:10AB9000E1E7144B98420BDAA0F59E10A0F5B150F6
:10ABA000C0EBC000C0EB0010001500F59670BBE7CD
:10ABB000A0F50610A0F58E50342303FB00F000151D
:10ABC00000F5C370B0E700207047074870470020C9
:10ABD000704700BF9F86010020D613006179FEFFF9
:10ABE000416EDEFFC091210052FEFFFF274B93F81C
:10ABF0003030002B48D0254B1B7B03710023437161
:10AC00008371C3600361436183610362C361436213
:10AC10008362C3628268D26842638363C36380F8DD
:10AC2000403080F8413043648364C36480F850301E
:10AC300080F8513080F85230436503638365C371F7
:10AC4000C36580F86030026813610268536102686E
:10AC500093610268D36102681362026853620268FA
:10AC600093620268D36202681364026853640268E4
:10AC700093640268D36402681365026853650268CE
:10AC800093650268D36570470023B6E7341200204D
:10AC900010B444698268916894FBF1F301FB13439B
:10ACA000D36010BC70470160704702680023536294
:10ACB000026893620268D361026853650268936513
:10ACC0000268D3647047000038B504469F4B1B7878
:10ACD000002B40F08180D0F84031DA681A61D0F85A
:10ACE0004421D0F84031D288DA60D0F84021D368CE
:10ACF00011695B1A8168B3EB610F40F397805B1AAF
:10AD000051699161D4F840114A6913444B61D4F8F8
:10AD100040315A699969521AD4F88800D969C1EB4F
:10AD2000411100FB0212196A0A441A62D4F8402148
:10AD3000136A5B11D361D4F84031D9691A6AA2EB66
:10AD400041121A62D4F84051E869FFF7DDFE6862EB
:10AD5000D4F840315A69596A0A449A62D4F84031A9
:10AD60005A6C996A521ADA62D4F84031DA794AB9DF
:10AD700093F8503033B9D4F8440103689B6898477E
:10AD800000285AD1D4F84001FFF78FFFD4F84021B2
:10AD900000235365D4F840211363D4F848010368B5
:10ADA0009B689847D4F8403159791A79914200F05C
:10ADB00091805A71D4F84031012283F85220D4F89E
:10ADC00040315B79082B00F28580DFE803F07E7E5E
:10ADD0007E7E7EA7ADB3B900C268816801EBD173F6
:10ADE0005810B2EB630F16DAD4F84431DB88024412
:10ADF000934200DD5B1AD4F84021D360D4F840219F
:10AE00001361D4F840215361D4F8402193614F4B32
:10AE100000221A7038BDD4F84431DB8801EBD170C0
:10AE2000A2EB60029342E6DA0B44E4E74842B3EB5C
:10AE3000600FBFF665AF0B4462E7D4F8400190F8AD
:10AE400051304BB94379082BACD8DFE803F0192C0B
:10AE500028241F3935311400FFF727FFD4F840218B
:10AE600000235365D4F840211363D4F848010368E4
:10AE7000DB68984796E7826C416CFFF711FD91E71C
:10AE8000D4F8480103689B6898478BE7826C416C53
:10AE9000FFF706FD86E7C16CFFF77FFC82E7816C58
:10AEA000FFF79AFC7EE7826C416CFFF7F9FC79E7CB
:10AEB000C16CFFF772FC75E7816CFFF78DFC71E7E1
:10AEC000826C416CFFF7ECFC6CE70021D4F84C017C
:10AED00000F00EFED4F840315B79072B38D9082BEF
:10AEE00038D1D4F84C0100F066FED4F84021D4F8F3
:10AEF0004C31D969536B0B445363D4F84C21D4F8CB
:10AF0000403192F8262083F84020D4F84C21D4F820
:10AF1000403192F8272083F841201BE00421D4F827
:10AF20004C0100F0E5FDD5E70321D4F84C0100F019
:10AF3000DFFDCFE70221D4F84C0100F0D9FDC9E7CD
:10AF40000121D4F84C0100F0D3FDC3E70400002038
:10AF5000052B35D2D4F84021916BA369994257DD76
:10AF60009363D4F84021D16B6369994255DDD36373
:10AF7000D4F8403193F8502012B193F840202AB110
:10AF800093F851202AB193F8412012B9012283F895
:10AF90005220D4F8403193F85220002A42D1D4F8FC
:10AFA00040114B79013B072B00F29A80DFE813F048
:10AFB0008900D800E300EE00FF000F011A0125010F
:10AFC000D4F84C0100F0F7FDD4F84C21D4F840310E
:10AFD000D2695A63D4F84C21D4F84031126A9A638A
:10AFE000D4F84C21D4F84031B2F92420DA63D4F8F3
:10AFF0004C21D4F8403192F8262083F84020D4F830
:10B000004C21D4F8403192F8272083F84120A1E761
:10B010005B429942A5DA9363A3E75B429942A7DAC0
:10B02000D363A5E7002283F85220D4F84001FFF74C
:10B030003CFED4F84001FFF762FDD4F840114B7993
:10B04000013B072BABD8DFE803F0040B11171E25DB
:10B050002B31CA69896A04F1B800FFF799F99EE7B4
:10B06000C96904F1A400FFF71CF998E7096B04F122
:10B070009000FFF7AFF892E7CA69896A04F5827019
:10B08000FFF7C7FA8BE7CA69896A04F1B800FFF7CE
:10B090007FF984E7C96904F1A400FFF702F97EE7AC
:10B0A000096B04F19000FFF795F878E7CA69896A9F
:10B0B00004F1E400FFF78EFAD4F840319A6A5A633B
:10B0C0006DE7496B04F1B800FFF78EF9D4F8403111
:10B0D000D4F8B8205A64D4F84031D4F8BC209A642B
:10B0E000D4F8403193F8402083F85020D4F8403110
:10B0F00093F8412083F85120D4F840311A6B82EA4A
:10B10000E270A0EBE270196891F8601051B15979C2
:10B11000032900F0828007297FD0626982427FD0B4
:10B1200000229A65D4F840315A79032A05D0072ABB
:10B1300003D06269824200F08E800022DA65D4F882
:10B14000403183F86020D4F8440103689B68984735
:10B15000002840F08D80D4F8403105229A7159E6DC
:10B16000896B04F1A400FFF7B3F8D4F84031D4F8A8
:10B17000A4209A64B4E7C96B04F19000FFF741F88A
:10B18000D4F84031D4F89020DA64A9E78A6B496B8F
:10B1900004F58270FFF76BFAD4F84031D4F804213B
:10B1A0005A64D4F84031D4F808219A6498E7496B7E
:10B1B00004F1B800FFF718F9D4F84031D4F8B820FA
:10B1C0005A64D4F84031D4F8BC209A6488E7896B7B
:10B1D00004F1A400FFF77CF8D4F84031D4F8A4209F
:10B1E0009A647DE7C96B04F19000FFF70AF8D4F880
:10B1F0004031D4F89020DA6472E7496B04F1E4003E
:10B20000FFF7EDF9D4F84031D4F8E4205A64D4F8CB
:10B210004031D4F8E8209A6462E7002A3FF47DAF19
:10B22000DA6982EAE271A1EBE271A2682E4D85FB38
:10B2300002C5D217C2EB65029142BFF673AF9A6D99
:10B240002A498A4202D90122DA716BE7D4F88C10BC
:10B250000A449A6566E7DA6D24498A4203D90122D5
:10B2600083F860206FE7D4F88C100A44DA656AE747
:10B27000D4F840315A790AB99A71CBE5D97911B12C
:10B2800004229A71C6E593F8601011B103229A71F5
:10B29000C0E5012A06D0022A11D0032A19D00122C2
:10B2A0009A71B7E5596C5A6B914202D002229A7199
:10B2B000B0E59A6C002AF9D101229A71AAE5996C3D
:10B2C0009A6B914202D002229A71A3E501229A71EF
:10B2D000A0E5D96CDA6B914202D002229A7199E50D
:10B2E00001229A7196E500BF676666663F420F00CD
:10B2F00010B50446D0F8440103685B6898472046BF
:10B30000FFF7E2FC10BDF0B5B0F800E0764601238F
:10B3100009E02746C2F1000CB5EB6C0F00DAA71864
:10B320003E4401339BB28B4208D230F81340A4EB69
:10B330000E05B5EB620FECDDA71AEBE796FBF1F01B
:10B34000002803DB904200DD801AF0BD1044F9E7CD
:10B3500070B504468368D3F8440103685B68984776
:10B36000637B062B00F2DC80DFE813F007001C0093
:10B3700031006C0084009700D2002379002B00F08C
:10B38000CF80A368D3F84801026855681A6921691B
:10B39000A847A3689B6823610023E38201226273AC
:10B3A0002373BDE0216902312161A368D3F848010C
:10B3B000026855681A69A8472269A3689B68B2EBBE
:10B3C000430F40F0AD80236102236373A8E0256939
:10B3D000A6687268B5FBF2F302FB135303BBD6F801
:10B3E00044319988E28A531C9BB2E3820C3224F8E0
:10B3F0001210102B16D1D6F84431DA68102104F15E
:10B400001800FFF780FFB368EB1A7268B3FBF2F322
:10B410001C3324F813000023E3820135256101E089
:10B4200001352561D6F8480103685B6832692169F6
:10B4300098472369A2689268B3EB420F70D903233F
:10B4400063736DE0216901312161A368D3F848017C
:10B45000026855681A69A8472169A3689A685B68F9
:10B4600003EB830302EB4303B1EB430F58D10423F7
:10B47000637355E0216901392161A368D3F848015C
:10B48000026855681A69A8472369A2689268B3EBF5
:10B49000420F45D10523637342E02569A6687268AF
:10B4A000B5FBF2F302FB13530BBBD6F8443199887A
:10B4B000E28A531C9BB2E3820C3224F81210102B48
:10B4C00017D1D6F84431DA68102104F11800FFF7DB
:10B4D0001AFFB368EB1A7268B3FBF2F3E43304EBC0
:10B4E000430358800023E382013D256101E0013DD3
:10B4F0002561D6F8480103685B683269216998477D
:10B500002269A3689B689A420AD20623637307E004
:10B51000A368D3F8480103685B6800221146984786
:10B5200070BD0844B0FBF1F301FB13007047401AF3
:10B53000B0EB620F00DD801A5342B0EB630F00DA0C
:10B5400010447047431A08444010002BB8BF5B42B8
:10B550005110B3EB620F04DD814201DC401A7047E9
:10B56000084470472DE9F04705468768D7F844310D
:10B57000D3F80C906A4B83FB09234FEAE978C8EBB8
:10B58000A3180024C82C11D804F11C0604F1E4030C
:10B5900005EB4303D7F84421D268598835F81600E3
:10B5A000FFF7D0FF25F816000134EBE7D7F8443158
:10B5B000DA68B5F8C611288FFFF7B9FF064630B133
:10B5C0000028D4BF002601262E7501240FE0012398
:10B5D0002B73BDE8F08702232B73FAE702232B734A
:10B5E000F7E701232B73F4E700282CDB0134C72C89
:10B5F0002ED804F11C0304F11B01D7F84421D268B2
:10B6000035F8111035F81300FFF791FF80EAE0716B
:10B61000A1EBE07108EB480303EBD373B1EB630FCD
:10B62000D9DC3F4A82FB09324FEAE973C3EBE213EC
:10B630009942D3DB0028D4D00028D5DD002ED3D109
:10B6400001232B73C5E7002ED0D001232B73C0E755
:10B6500056BB4FF0000A56463FE03446C72C27D869
:10B66000661CC8213046FFF75CFF1C3035F810908F
:10B67000C8212046FFF755FF00F11C0335F81330B1
:10B68000A9EB0309B9F1000FE7DA08F10108C5F8E1
:10B690005C43D7F84431DB68013B1C3035F810209F
:10B6A0009B1AC5F86033D8E74FF000084446D5E749
:10B6B000B8F1010F31D003232B738AE70AF1010A95
:10B6C000C5F85C63D7F84431DB68013B1C3435F8BE
:10B6D00014209B1AC5F860334E46C72E17D806F1C2
:10B6E0000109C8214846FFF71CFF044600F11C036E
:10B6F00035F81380C8213046FFF713FF1C3035F8AA
:10B700001030A8EB0308B8F1000FD7DCE4E7BAF17A
:10B71000010F02D003232B735BE700232B7358E741
:10B720001F85EB512DE9F84F437B062B40F0378105
:10B7300004468368D3F8480103689B68984720460D
:10B74000FFF710FF237B002B40F01381C4F8643314
:10B7500023689B682046984723681B6820469847C3
:10B76000237D002B78D0D4F85C734FE0D4F860537D
:10B77000B5424ADAA268506805FB00F393FBF6F382
:10B78000916807FB0030FFF7CCFE2368DB6881B2CD
:10B7900020469847D4F864330133C4F86433013544
:10B7A000E6E70025D4F86033AB422EDDA26850688E
:10B7B00005FB00F393FBF6F3916807FB0030FFF7FE
:10B7C000B0FE2368DB6881B220469847D4F8643322
:10B7D0000133C4F864330135E4E7A268506805FB1F
:10B7E00000F393FBF6F3916807FB0030FFF799FE37
:10B7F0002368DB6881B220469847D4F8643301336C
:10B80000C4F864330135B542E7DB4746D4F85C93AE
:10B81000A668356809EB050ABA45C0F29C8007F1B5
:10B82000010829464046FFF77CFE1C3034F810B072
:10B8300029463846FFF775FE1C30D6F84431DA68E1
:10B8400034F810105846FFF772FE0646B9458DD001
:10B85000BA45A6D00025D6E7D4F85C23A3681B68B8
:10B8600002EB030853E0D4F86053B5424DDAA26806
:10B87000536803FB07F005FB03F393FBF6F39168B2
:10B88000C01AFFF74EFE2368DB6881B22046984756
:10B89000D4F864330133C4F864330135E5E7002597
:10B8A000D4F86033AB4230DDA268536803FB07F085
:10B8B00005FB03F393FBF6F39168C01AFFF731FE23
:10B8C0002368DB6881B220469847D4F8643301339B
:10B8D000C4F864330135E3E7A268536803FB07F05B
:10B8E00005FB03F393FBF6F39168C01AFFF719FE0B
:10B8F0002368DB6881B220469847D4F8643301336B
:10B90000C4F864330135B542E6DB08F1FF38D4F8FA
:10B910005C93C1451FDCA668356829464046FFF7A1
:10B9200000FE1C3034F810A008F101072946384603
:10B93000FFF7F7FD1C30D6F84431DA6834F8101000
:10B940005046FFF7F4FD06464D4445458BD0C145B2
:10B95000A5D00025D7E723685B6820469847D4F830
:10B960006423A368D3F84431DB689A4201D00423EE
:10B970002373237BABB9A368D3F8443101221A7235
:10B98000A368D3F84C0100F016F9A368D3F840314E
:10B990000122DA71002363732371237B5BB1BDE85D
:10B9A000F88FA368D3F8443100221A7223689B6889
:10B9B00020469847E4E701F06BF9F0E710B504463C
:10B9C0000368DB68984723685B6820469847012333
:10B9D0002372002300E00133E2689A4209D9A26988
:10B9E00032F813104FF6FF729142F4D10022227206
:10B9F000F1E7207A10BD38B504464FF40343838342
:10BA00004FF40443C383002517E00133DBB20F2B4F
:10BA10000AD841FA03F212F0010FF6D094F824206C
:10BA2000013284F82420F0E794F8243013F0010F59
:10BA30001BD0002363750135EDB2022D17D82368A2
:10BA40001B69A18B20469847208423681B69E18BE2
:10BA5000204698476084238CC1B241EA032189B211
:10BA60002182002384F82430D1E701236375637DAC
:10BA70002BB1238A9A106282C3F340032375638A31
:10BA8000A380A26932F81300E08038BD007A7047C5
:10BA900038B5044683680B44836003681B680179EA
:10BAA00098476379834218D0054680B163690020C6
:10BAB0009847A368E2689B1A2269934203D9636995
:10BAC0000220984708E063690320984704E063690F
:10BAD00001209847A368E360657138BD38B5044616
:10BAE0000D4603681B68017998476071656138BD30
:10BAF00008B590F828308B4202D003681B6898473D
:10BB000008BD022911D004290FD008290DD0102911
:10BB10000BD0202909D0402907D0802905D0B1F5C4
:10BB2000807F02D01023838000E0818082884FF4E0
:10BB3000807393FBF2F3C380704710B5044600682E
:10BB400003685B68984718B3237AF3B10123A372A3
:10BB5000B4F90E30A38120680368DB689847E08160
:10BB600083B2A0891B1A1BB22382E28802FB03F373
:10BB70006361A27AA2B12268D3612268002382F8AD
:10BB80002630226882F8273010BD0023A372DFE739
:10BB9000237A13B10023A372DAE70123A372D7E754
:10BBA00022680023D3612268012182F826102268CE
:10BBB00082F82730E8E708B590F82830012B00D04C
:10BBC00008BD0430FFF7B9FFFAE710B50446437A21
:10BBD00083B1006803689B68984728B120680368B0
:10BBE0001B690021984710BD206803681B6901216B
:10BBF0009847F8E7006803689B68984728B1206871
:10BC000003681B6901219847EDE7206803681B69F9
:10BC100000219847E7E710B50446FFF772FF20467A
:10BC2000FFF7D3FF10BD08B50430FFF7F4FF08BDE0
:10BC300010B50446436819444160052A09D8DFE875
:10BC400002F0221C16272E030023037343730123E3
:10BC50000374237B002B6ED0637B002B62D0A37B0D
:10BC6000013B032B6DD8DFE803F0202F3E4D01236D
:10BC70000373437300230374EBE70123037300236F
:10BC800043730374E5E70023037343730374E0E72E
:10BC9000012303730023437303230374D9E70023B1
:10BCA0000373437302230374D3E7A368C91A642997
:10BCB00047D923681B6800221146204698476368CD
:10BCC000A3600223A3733CE0A368C91A642938D98E
:10BCD00023681B6801220021204698476368A360FF
:10BCE0000323A3732DE0A368C91A642929D9236803
:10BCF0001B6800221146204698476368A36004230E
:10BD0000A3731EE0A368C91AB1F52F7F19D9236860
:10BD10001B6801220021204698476368A360012325
:10BD2000A3730EE023681B68012200212046984778
:10BD30000123A37305E023681B68002211462046F7
:10BD40009847237E022B14D0032B34D0012B00D034
:10BD500010BD636862699B1A642BF9D923681B685C
:10BD600000220121204698476368636102232376FD
:10BD7000EEE7636862699B1A642BE9D9E37B0133C0
:10BD8000DBB2E373227C93420AD223681B68012250
:10BD90001146204698470123237663686361D7E7FD
:10BDA00023681B680022012120469847032323763D
:10BDB00063686361CCE7636862699B1AB3F57A7F55
:10BDC000C6D90023E37323681B68227C003A18BF9E
:10BDD000012201212046984763686361012323768D
:10BDE000B6E7000010B504460E4B18784FF47A738E
:10BDF000B3FBF0F30C4A1068B0FBF3F000F05AFF0D
:10BE000068B90F2C01D901200AE0002221464FF029
:10BE1000FF3000F0E9FE054B1C60002000E001202F
:10BE200010BD00BF05000020000000200800002019
:10BE300008B5074A136843F010031360032000F0AD
:10BE4000C1FE0320FFF7CEFFFDF7B4FD002008BDC3
:10BE500000200240034A1168034B1B780B44136017
:10BE6000704700BF080E002005000020014B186835
:10BE7000704700BF080E002038B50446FFF7F6FFF4
:10BE80000546B4F1FF3F02D0044B1B781C44FFF77A
:10BE9000EDFF401BA042FAD338BD00BF05000020D3
:10BEA000704708B5436A9A6A12F0500F1ED19A6A19
:10BEB00042F400729A621A68926802F46022B2F543
:10BEC000602F03D01846FFF7EBFF08BD1A7B002A4E
:10BED000F8D19A6A22F480729A629A6A12F4805FA8
:10BEE000F0D19A6A42F001029A62EBE71B6A1B6B7F
:10BEF0009847EAE7704708B5406AFFF7FBFF08BDBF
:10BF0000704708B5406A836A43F040038362C36A9E
:10BF100043F00403C362FFF7F3FF08BD30B482B0FF
:10BF20000022019290F82420012A00F08B80034621
:10BF3000012280F824204A68062A29D80568686BFF
:10BF400002EB8202053A1F24944020EA04000C68A8
:10BF500004FA02F202436A630A68092A38D91D68A2
:10BF6000E86802EB42021E3A0724944020EA0400EB
:10BF70008C6804FA02F20243EA600A68103A012A65
:10BF800034D90020002283F8242002B030BC70474E
:10BF90000C2A0ED80568286B02EB8202233A1F2474
:10BFA000944020EA04000C6804FA02F202432A6377
:10BFB000D2E70568E86A02EB8202413A1F24944006
:10BFC00020EA04000C6804FA02F20243EA62C3E7C2
:10BFD0001D68286902EB42020724944020EA04000D
:10BFE0008C6804FA02F202432A61C6E71A6816480E
:10BFF000824205D09A6A42F020029A620120C1E78B
:10C00000906810F4000F1BD1906840F4000090601D
:10C010000A68102A01D00020B4E70C4A12680C49C3
:10C02000A1FB0212920C02EB82025200019202E08A
:10C03000019A013A0192019A002AF9D10020A1E760
:10C0400000209FE70220A0E700240140000000201C
:10C0500083DE1B4330B583B00023019303689A68E5
:10C0600012F0010F32D104469A6842F001029A6040
:10C07000184B1B68184AA2FB03239B0C0193019BDE
:10C080001BB1019B013B0193F9E7FFF7EFFE05466A
:10C0900023689B6813F0010F16D1FFF7E7FE431BDF
:10C0A000022BF5D923689B6813F0010FF0D1A36A26
:10C0B00043F01003A362E36A43F00103E362002349
:10C0C00084F82430012002E0002000E0002003B0CA
:10C0D00030BD00BF0000002083DE1B43F8B50446DE
:10C0E0000D461646036844498B4259D0434A934251
:10C0F00056D094F82430012B7CD0012384F82430CE
:10C100002046FFF7A7FF074600286ED1A36A23F455
:10C11000706323F0010343F48073A3622268374BFA
:10C120009A4244D0A36A23F48013A362536813F4A1
:10C13000806F05D0A36A23F4405343F48053A36275
:10C14000A36A13F4805F48D0E36A23F00603E36236
:10C15000002384F82430236A294A9A62236A294AF0
:10C16000DA62236A284A1A6323686FF002021A60AF
:10C170002268936843F480739360216833462A46AB
:10C180004C31206A00F0F8FD23689A6802F46022BE
:10C19000B2F5602F24D09A6842F480129A6027E0AA
:10C1A000154B5B6813F4702FA3D0012720E0A3F593
:10C1B00080635B6813F4702FB4D0A36A43F48013D8
:10C1C000A3620D4B5B6813F4806FB9D0A36A23F4AC
:10C1D000405343F48053A362B2E70023E362B7E71E
:10C1E0009A6842F4A0029A6002E0002384F82430A6
:10C1F0003846F8BD0227FBE7002401400028014033
:10C20000A3BE0008F7BE000803BF000838B50368E6
:10C210009A6812F0010F01D1002038BD04469A68D7
:10C2200022F001029A60FFF721FE054623689B6811
:10C2300013F0010F13D0FFF719FE431B022BF5D9A2
:10C2400023689B6813F0010FF0D0A36A43F010033A
:10C25000A362E36A43F00103E3620120DDE700200B
:10C26000DBE7000000287BD070B50446836A002B12
:10C270004DD02046FFF7CAFFA36A13F0100369D11F
:10C28000002867D1A26A22F4885222F0020242F00A
:10C290000202A2626268E1690A43217B42EA41022A
:10C2A000A568B5F5807F02D0012D36D01D46267DCC
:10C2B000012E35D02668716821F4694129437160E7
:10C2C0002568AE68274931401143A960A168B1F5DE
:10C2D000807F01D0012902D12369013B1B0525681C
:10C2E000E96A21F470010B43EB62236899681E4BE5
:10C2F0000B409A4225D0A36A23F0120343F01003A7
:10C30000A362E36A43F00103E362012027E0C36212
:10C3100080F82430FDF782F8ABE74FF48075C6E76C
:10C3200031B9A169013945EA413141F40065C1E7FC
:10C33000A16A41F02001A162E16A41F00101E162DC
:10C34000B8E70023E362A36A23F0030343F0010389
:10C35000A36204E0A36A43F01003A362012070BD4E
:10C3600001207047FDF7E1FFFE0E1FFF70B582B0A0
:10C370000023019390F82430012B72D0044601234E
:10C3800080F82430FFF742FF054628B1002384F8E7
:10C390002430284602B070BDA36A23F4885323F0EA
:10C3A000020343F00203A3622F4B1E68022001F038
:10C3B000EBFCB6FBF0F67600019602E0019B013B38
:10C3C0000193019B002BF9D12046FFF743FE226821
:10C3D000936843F008039360FFF748FD064623681F
:10C3E0009A6812F0080F14D0FFF740FD801B0A284E
:10C3F000F5D923689B6813F0080FF0D0A36A23F0E7
:10C40000120343F01003A362002384F824300125B3
:10C41000BFE79A6842F004029A60FFF727FD0646DC
:10C4200023689B6813F0040F14D0FFF71FFD801BD7
:10C430000A28F5D923689B6813F0040FF0D0A36A8B
:10C4400023F0120343F01003A362002384F8243086
:10C4500001259EE7A36A23F0030343F00103A362CF
:10C4600094E7022595E700BF00000020002800F0B7
:10C47000A18038B5044690F82030D3B12268136803
:10C4800043F001031360FFF7F1FC054623685A6887
:10C4900012F0010F10D1FFF7E9FC401B0A28F5D973
:10C4A000636A43F400336362052384F8203001207B
:10C4B00038BDFDF753F8E1E71A6822F002021A606E
:10C4C000FFF7D4FC054623685A6812F0020F0DD01E
:10C4D000FFF7CCFC401B0A28F5D9636A43F400330C
:10C4E0006362052384F820300120E1E7227E012ADF
:10C4F0003DD01A6822F080021A60637E012B3BD087
:10C500002268136823F040031360A37E012B39D007
:10C510002268136823F020031360E37E012B37D0D9
:10C520002268136843F010031360237F012B35D07A
:10C530002268136823F008031360637F012B33D054
:10C540002268136823F004031360A368E2681343AE
:10C5500022691343626913436268013A21681343F5
:10C56000CB6100206062012384F82030A0E71A68C4
:10C5700042F080021A60C0E72268136843F040036B
:10C580001360C2E72268136843F020031360C4E716
:10C590002268136823F010031360C6E7226813684B
:10C5A00043F008031360C8E72268136843F00403EC
:10C5B0001360CAE701207047026890F82030013B01
:10C5C000DBB2012B05D9436A43F480234362012087
:10C5D000704770B4D2F8003243F00103C2F8003261
:10C5E0004B6903F01F03012000FA03F3D2F81C0289
:10C5F000DC4320EA0300C2F81C02C869A8B9D2F8DB
:10C600000C022040C2F80C02CE688D88486945EAC9
:10C610000645483042F830508E680D88486945EA32
:10C620000645483002EBC0004560C869012819D0B2
:10C63000886970BBD2F804022040C2F8040208697D
:10C6400068BBD2F814020440C2F81442096A0129F6
:10C650002BD0D2F8003223F00103C2F800320020C0
:10C6600070BC7047D2F80C021843C2F80C020E6876
:10C670008D88486945EA0645483042F830508E6852
:10C680008D89486945EA0645483002EBC00045609F
:10C69000CEE7D2F804021843C2F80402CFE7D2F87A
:10C6A00014021843C2F81402D0E7D2F81C120B434C
:10C6B000C2F81C32CDE770B5044690F82050EDB2B8
:10C6C000012D06D0436A43F4002343620125284626
:10C6D00070BD022380F820300268136823F0010344
:10C6E0001360FFF7C3FB064623685B6813F0010F76
:10C6F0000CD0FFF7BBFB831B0A2BF5D9636A43F40D
:10C7000000336362052384F82030E0E7002565628A
:10C71000DDE770B490F820400568AD68013CE4B2F4
:10C72000012C65D815F0E05F5CD0C5F30164022CE4
:10C7300005D9436A43F40003436201205DE001250B
:10C74000A5401D608B68002B39D10E68CB68056849
:10C7500043EA465604F118031B01EE5003680D69C5
:10C7600004F1180603EB06135D600B7D012B31D03D
:10C77000D17993791B0443EA0163517943EA012398
:10C78000157901682B4301EB0411C1F88C31D17884
:10C7900093781B0443EA0163517843EA012311783B
:10C7A00002680B4302EB0412C2F8883102681834A5
:10C7B0002401135943F00103135100201DE04D687B
:10C7C00043EAC503CD6806682B4304F118052D0123
:10C7D0007351C3E7036803EB0613596841F4807192
:10C7E0005960C5E7436A43F400134362012004E043
:10C7F000436A43F480234362012070BC704730B425
:10C8000090F82040013CE4B2012C00F2918051B933
:10C810000468E46814F0030F10D1436A43F4001372
:10C820004362012089E00468246914F0030F05D1F4
:10C83000436A43F40013436201207EE0056801F17E
:10C840001B0424012C5904F004049460002C61D1D1
:10C85000056801F11B0424012C59640D146005685E
:10C8600001F11B0424012D5905F00205D56005686E
:10C8700025446D6805F00F051561056825446D6850
:10C88000C5F30725956105682C446468240C546140
:10C89000026802EB0112D2F8B8211A70026802EBAA
:10C8A0000112D2F8B821C2F307225A70026802EBD3
:10C8B0000112D2F8B821C2F307429A70026802EB63
:10C8C0000112D2F8B821120EDA70026802EB0112DE
:10C8D000D2F8BC211A71026802EB0112D2F8BC2115
:10C8E000C2F307225A71026802EB0112D2F8BC218E
:10C8F000C2F307429A71026802EB0112D2F8BC211E
:10C90000120EDA7171B90268D36843F02003D36064
:10C91000002012E0056801F11B0424012C59E408F1
:10C9200054609CE70268136943F020031361EFE74A
:10C93000436A43F480234362012030BC704790F87F
:10C940002030013BDBB2012B05D9436A43F480233D
:10C950004362012070470268536919435161002006
:10C96000704770477047704770477047704770470F
:10C97000704770477047704770472DE9F84F05467C
:10C9800003685C69D3F804809F68D3F80CB0D3F8CF
:10C9900010A0D3F8189014F001063BD017F0010650
:10C9A00016D001229A6017F0020F08D117F0040F79
:10C9B0000CD117F0080606D04FF4805608E0FFF7B8
:10C9C000D0FF002604E0FFF7CFFF01E04FF4006640
:10C9D00017F4807F0DD02B684FF480729A6017F4A3
:10C9E000007F40F0868017F4806F00F0868046F468
:10C9F000005617F4803F0DD02B684FF480329A60B8
:10CA000017F4003F40F0838017F4802F00F08380FC
:10CA100046F4004614F0080F07D01BF0100F04D0A6
:10CA200046F400762B681022DA6014F0040F02D06E
:10CA30001BF0080F79D114F0020F04D02B68DB68CB
:10CA400013F0030F78D114F0400F07D01AF0100F35
:10CA500004D046F480662B6810221A6114F0200F6F
:10CA600002D01AF0080F6BD114F0100F04D02B680D
:10CA70001B6913F0030F6AD114F4003F02D018F0C1
:10CA8000100F68D114F4803F02D018F0080F69D15C
:10CA900014F4004F7AD018F0040F74D014F4807F8F
:10CAA00004D019F0010F01D046F0010614F4007F04
:10CAB00004D019F0020F01D046F0020614F4806F82
:10CAC00004D019F0040F01D046F0040614F4006FEE
:10CAD00059D019F0700956D0B9F1400F65D058D827
:10CAE000B9F1200F5ED0B9F1300F42D146F02006E7
:10CAF00044E02846FFF736FF7BE717F4006F02D0CB
:10CB000046F4804675E72846FFF72FFF71E7284671
:10CB1000FFF729FF7EE717F4002F02D046F4803696
:10CB200078E72846FFF722FF74E72B680822DA60CF
:10CB30002846FFF71CFF7EE72846FCF787FD82E7C3
:10CB40002B6808221A612846FFF713FF8CE7284656
:10CB5000FFF70EFF90E72B6810225A602846FFF778
:10CB600009FF8FE72B6808225A602846FFF703FF6A
:10CB70008EE7B9F1100F01D146F008062A689369D3
:10CB800023F0700393612B6804225A609EB9BDE8BC
:10CB9000F88FB9F1500F0BD0B9F1600FEED146F418
:10CBA0008076EBE746F01006E8E746F04006E5E75A
:10CBB00046F08006E2E76B6A1E436E622846FFF786
:10CBC000DBFEE4E7074AD36823F4E0631B041B0C95
:10CBD000000200F4E060034343F0BF6343F400331A
:10CBE000D360704700ED00E030B4174BDB68C3F34F
:10CBF0000223C3F10704042C28BF04241D1D062DA5
:10CC000018D9033B4FF0FF3505FA04F421EA04017B
:10CC1000994005FA03F322EA0303194300280BDBCA
:10CC20000901C9B200F1604000F5614080F80013CD
:10CC300030BC70470023E5E700F00F000901C9B2DE
:10CC4000024B1954F4E700BF00ED00E014ED00E0E2
:10CC5000002807DB00F01F02400901239340024A2D
:10CC600042F82030704700BF00E100E000280CDBF4
:10CC700000F01F024009012393402030034A42F88C
:10CC80002030BFF34F8FBFF36F8F704700E100E09C
:10CC9000BFF34F8F0549CA6802F4E062044B1343A7
:10CCA000CB60BFF34F8F00BFFDE700BF00ED00E09A
:10CCB0000400FA050138B0F1807F0AD2064B5860B3
:10CCC000064AF02182F823100020986007221A609B
:10CCD00070470120704700BF10E000E000ED00E069
:10CCE00070B4066CC56B0124B4406C60046863606A
:10CCF0004368102B05D0036899600368DA6070BC44
:10CD0000704703689A600368D960F8E760B310B4AD
:10CD100002460168154B0B441548A0FB03031B0991
:10CD20009B001364134BD363022382F821300868FD
:10CD300020F47F5020F03000536894682343D46877
:10CD40002343146923435469234394692343D469D7
:10CD5000234303430B6000209063012382F82130BA
:10CD600082F8200010BC704701207047F8FFFDBF1B
:10CD7000CDCCCCCC0000024038B5044690F8200061
:10CD8000012831D0012084F8200094F821000128E6
:10CD900004D0002384F82030022038BD022084F81B
:10CDA00021000020A0632568286820F00100286089
:10CDB0002046FFF795FFE36A5BB12268136843F0F2
:10CDC0000E0313602268136843F001031360002010
:10CDD000E3E72268136823F00403136022681368F2
:10CDE00043F00A031360EDE70220D6E790F8213004
:10CDF000022B06D004238363002380F82030012017
:10CE000070470268136823F00E031360026813680A
:10CE100023F001031360036CC16B012202FA03F3D8
:10CE20004B6080F82120002380F82030184670479E
:10CE300008B590F82130022B03D00423836301202E
:10CE400008BD0268136823F00E03136002681368BC
:10CE500023F0010313600368194A934214D014327B
:10CE600093421FD0143293421ED0143293421ED0EC
:10CE7000143293421ED01432934202D04FF080728B
:10CE800003E04FF4801200E001220E4B5A600123B0
:10CE900080F82130002380F82030436B6BB1984735
:10CEA0000020CDE71022F0E74FF48072EDE74FF459
:10CEB0008052EAE74FF48032E7E70020C0E700BF86
:10CEC000080002400000024038B5C36B1A680468CD
:10CED0002568016C04238B40134235D015F0040FF4
:10CEE00032D0236813F0200F03D1236823F004030A
:10CEF00023600368434A934214D01432934218D0FB
:10CF00001432934217D01432934217D01432934202
:10CF100017D01432934202D04FF0806203E04FF4F6
:10CF2000800200E00422384B5A60C36A03B198477C
:10CF300038BD4022F7E74FF48062F4E74FF48042B7
:10CF4000F1E74FF48022EEE702238B4013423CD0FE
:10CF500015F0020F39D0236813F0200F06D1236893
:10CF600023F00A032360012380F821300368254A57
:10CF7000934214D0143293421CD0143293421BD0EB
:10CF8000143293421BD0143293421BD0143293427A
:10CF900002D04FF0007203E04FF4001200E00222D2
:10CFA000194B5A60002380F82030836A002BBFD0D1
:10CFB0009847BDE72022F3E74FF40072F0E74FF403
:10CFC0000052EDE74FF40032EAE7082303FA01F1DB
:10CFD0001142ADD015F0080FAAD0236823F00E033C
:10CFE0002360026CC16B012303FA02F24A6083637F
:10CFF00080F82130002380F82030036B002B97D07D
:10D00000984795E70800024000000240044B0022C8
:10D01000DA61044A136943F0010313610180704728
:10D02000100E002000200240194BDB6813F01003A3
:10D0300005D0184AD36943F00203D3611023144A80
:10D04000D26812F0040F06D01249CA6942F00102F8
:10D05000CA6143F004030E4AD26912F0010F09D0ED
:10D060000C49CA6942F00402CA610949CA6922F03E
:10D070000102CA6140F20112934202D0044AD36015
:10D080007047034AD36923F00103D361704700BF9F
:10D0900000200240100E00200A4B1B6913F0800F85
:10D0A0000BD0084B084A5A6002F188325A601B695B
:10D0B00013F0800F03D1002070470020704701203B
:10D0C000704700BF0020024023016745034A1369EF
:10D0D00043F0800313610020704700BF002002402E
:10D0E00038B50446FEF7C2FE0546164BDB6813F062
:10D0F000010F0AD0B4F1FF3FF7D024B1FEF7B6FE1E
:10D10000401BA042F1D903201BE00E4BDB6813F05B
:10D11000200F02D00B4B2022DA600A4BDB6813F0A1
:10D12000100F0BD1074BDB6913F0010F06D1054B34
:10D13000DB6813F0040F01D1002002E0FFF774FF59
:10D14000012038BD002002402DE9F8431E46234B44
:10D150001B7E012B40D004460F4690461F4B0122F8
:10D160001A764CF25030FFF7BBFF034670BB012C20
:10D1700029D0022C24D04FF004091C464C4525D25E
:10D180002101C1F12002A1F1200328FA01F106FAE0
:10D1900002F2114326FA03F3194389B207EB440064
:10D1A000FFF734FF4CF25030FFF79AFF0C4B1D692C
:10D1B00025F001051D61034640B90134E4B2DDE705
:10D1C0004FF00209D9E74FF00109D6E7034A0021E1
:10D1D00011761846BDE8F8830223FAE7100E002006
:10D1E00000200240064B0022DA61064B1A6942F029
:10D1F00004021A611A6942F040021A61704700BFC6
:10D20000100E002000200240064B0022DA61064B7F
:10D210001A6942F002021A6158611A6942F040022A
:10D220001A617047100E002000200240264B1B7E22
:10D23000012B46D070B505460E46234B01221A76C7
:10D240000368022B20D04CF25030FFF749FF90BB0F
:10D250004FF0FF333360AC680121EA68AB6803EB41
:10D260008223A34228D92046FFF7CEFF4CF250304C
:10D27000FFF736FF154A136923F0020313610146D5
:10D28000B8B904F58064E8E74CF25030FFF728FFA6
:10D2900008B1012110E00120FFF7A4FF4CF250304B
:10D2A000FFF71EFF0146094A136923F004031361C7
:10D2B00002E0346000E00121034B00221A760846A8
:10D2C00070BD022108467047100E00200020024069
:10D2D000F0B482B000252C46A3E07F4FBB4210D0B3
:10D2E00007D97E4FBB420CD007F58037BB4208D030
:10D2F00013E0A7F58017BB4203D007F57027BB42A8
:10D3000007D18B68002B58D0012B51D042610825E2
:10D3100003E0A7F58017BB42F3D0FF2E4FD8844619
:10D32000FF2E4FD8A200DCF800300F27974023EAE9
:10D33000070305FA02F21343CCF800304B6813F0F0
:10D34000805F6DD0664B9A6942F001029A619B69D9
:10D3500003F001030193019BA208971C614B53F852
:10D36000273004F00307BF004FF00F0C0CFA07FC46
:10D3700023EA0C0C5C4B98422AD003F58063984258
:10D3800000F08A8003F58063984200F0878003F5FF
:10D39000806398421AD004231BE0CD68BDE7CD68B6
:10D3A0000435BAE7CD680835B7E7CD680C35B4E782
:10D3B00002610825B1E70025AFE70425ADE700F1DC
:10D3C000040CADE7A4F108029200ACE7032300E0EF
:10D3D0000023BB4043EA0C030232424F47F822309D
:10D3E0004B6813F4803F5BD0404A136833431360AB
:10D3F0004B6813F4003F59D03C4A536833435360A1
:10D400004B6813F4801F57D0384A936833439360B6
:10D410004B6813F4001F55D0344AD3681E43D660BE
:10D4200001340B6833FA04F252D00122A24003EA1D
:10D43000020632EA0303F3D14B68122B3FF64DAFDD
:10D44000122B3FF66AAF01A757F823F003D3000869
:10D450009BD30008A5D30008B7D300081BD300084E
:10D460001BD300081BD300081BD300081BD30008E4
:10D470001BD300081BD300081BD300081BD30008D4
:10D480001BD300081BD300081BD300081BD30008C4
:10D490009FD30008ABD3000801239AE7022398E743
:10D4A000124A136823EA06031360A1E70F4A536880
:10D4B00023EA06035360A3E70C4A936823EA0603B2
:10D4C0009360A5E7094AD36823EA0606D660A7E772
:10D4D00002B0F0BC704700BF000022100000311005
:10D4E000001002400000014000080140000401401B
:10D4F00000226BE0032600E0002606FA04F4AC42AA
:10D500003FD0FF2B58D88446FF2B58D89700DCF823
:10D5100000400F26BE4024EA06040425BD402C43EB
:10D52000CCF80040C46824EA0303C360013231FA36
:10D5300002F348D0012393400B40F7D04FEA920CFE
:10D540000CF10205264C54F8255002F00304A40007
:10D550000F2606FA04F73D40224EB042CCD006F525
:10D560008066B04209D006F58066B04207D006F565
:10D570008066B042BED00426BFE70126BDE7022682
:10D58000BBE7174D0CF1020455F8246026EA0706A4
:10D5900045F82460144C256825EA03052560656874
:10D5A00025EA03056560A56825EA0305A560E56829
:10D5B00025EA0305E560A4E700F1040CA4E7A2F165
:10D5C0000805AF00A3E7F0BC7047013231FA02F35F
:10D5D00005D0012393400B40F7D0F0B4AEE770477D
:10D5E0000000014000080140000401408368194226
:10D5F00001D001207047002070470AB101617047D7
:10D60000090401617047000082B0084B1B68084A9A
:10D61000A2FB03235B0A00FB03F3019300BF019B02
:10D620005A1E0192002BF9D102B070470000002071
:10D63000D34D6210002800F0F18170B582B004462D
:10D64000036813F0010F2CD0AA4B5B6803F00C03A6
:10D65000042B1DD0A74B5B6803F00C03082B12D0E2
:10D660006368B3F5803F41D0002B55D103F180436F
:10D6700003F504331A6822F480321A601A6822F41F
:10D6800080221A6037E09B4B5B6813F4803FE7D041
:10D69000984B1B6813F4003F03D06368002B00F025
:10D6A000BF81236813F0020F75D0924B5B6813F0B3
:10D6B0000C0F5FD08F4B5B6803F00C03082B54D02A
:10D6C0002369002B00F089808B4B01221A60FEF742
:10D6D000CDFB0546874B1B6813F0020F74D1FEF794
:10D6E000C5FB401B0228F5D903209EE1814A13683F
:10D6F00043F480331360636843B3FEF7B7FB05461A
:10D700007C4B1B6813F4003FCBD1FEF7AFFB401BF3
:10D710006428F5D9032088E1B3F5A02F09D0754B13
:10D720001A6822F480321A601A6822F480221A6081
:10D73000E1E703F18043A3F53C331A6842F4802209
:10D740001A601A6842F480321A60D4E7FEF78EFB42
:10D750000546684B1B6813F4003FA2D0FEF786FB1A
:10D76000401B6428F5D903205FE1624B5B6813F42A
:10D77000803FA5D15F4B1B6813F0020F03D02369D4
:10D78000012B40F04F815B4A136823F0F803616975
:10D7900043EAC1031360236813F0080F32D0A36972
:10D7A000002B45D0554B01221A60FEF75FFB054662
:10D7B000504B5B6A13F0020F21D1FEF757FB401B61
:10D7C0000228F5D9032030E14A4A136823F0F80310
:10D7D000616943EAC1031360DDE7474B00221A6029
:10D7E000FEF744FB0546434B1B6813F0020FD2D0F3
:10D7F000FEF73CFB401B0228F5D9032015E1012070
:10D80000FFF702FF236813F0040F00F09780394BF5
:10D81000DB6913F0805F1DD1364BDA6942F080522C
:10D82000DA61DB6903F080530193019B012512E06B
:10D83000324B00221A60FEF719FB05462D4B5B6A3E
:10D8400013F0020FDED0FEF711FB401B0228F5D9C2
:10D850000320EAE000252A4B1B6813F4807F11D0D7
:10D86000E368012B22D0002B38D103F1804303F56C
:10D8700004331A6A22F001021A621A6A22F00402C0
:10D880001A6218E01E4A136843F480731360FEF7AF
:10D89000EDFA06461A4B1B6813F4807FE0D1FEF7C1
:10D8A000E5FA801B6428F5D90320BEE0114A136A0B
:10D8B00043F001031362E36873B3FEF7D7FA064639
:10D8C0000C4B1B6A13F0020F37D1FEF7CFFA801B07
:10D8D00041F288339842F3D90320A6E0052B11D0FA
:10D8E000044B1A6A22F001021A621A6A22F0040238
:10D8F0001A62E0E700100240000042428004424207
:10D90000007000404D4B1A6A42F004021A621A6A13
:10D9100042F001021A62CEE7FEF7A8FA0646474B2C
:10D920001B6A13F0020F08D0FEF7A0FA801B41F229
:10D9300088339842F3D9032077E0E5B9E369002BF7
:10D9400072D03E4A526802F00C02082A56D0022BCE
:10D9500017D03B4B00221A60FEF788FA0446374B7B
:10D960001B6813F0007F47D0FEF780FA001B0228E7
:10D97000F5D9032059E0314AD36923F08053D361AC
:10D98000DCE72F4B00221A60FEF770FA05462B4B9E
:10D990001B6813F0007F06D0FEF768FA401B0228D0
:10D9A000F5D9032041E0236AB3F5803F1AD023491B
:10D9B0004B6823F47413226A606A024313434B607A
:10D9C0001F4B01221A60FEF751FA04461B4B1B68DD
:10D9D00013F0007F0ED1FEF749FA001B0228F5D99B
:10D9E000032022E0154A536823F40033A1680B4357
:10D9F0005360DCE7002018E0002016E0012B16D071
:10DA00000E4B5B6803F48031226A914211D103F41A
:10DA10007013626A93420ED1002006E00120704725
:10DA2000012002E0012000E0002002B070BD0120D2
:10DA3000FBE70120F9E70120F7E700BF00100240F3
:10DA40006000424286B0184B0FCB0DF1180C0CE968
:10DA50000F0040F20123ADF80430144B5A6802F075
:10DA60000C03042B1AD0082B1AD1C2F3834363444E
:10DA700013F8101C12F4803F0CD00C4B5B68C3F3FE
:10DA80004043634413F8143C094800FB01F0B0FB29
:10DA9000F3F006E0074800FB01F002E0044800E074
:10DAA000054806B0704700BF28B9010800100240C1
:10DAB000001BB70000093D0000127A00002800F0AA
:10DAC000A08070B50D460446524B1B6803F0070357
:10DAD0008B420BD24F4A136823F007030B431360AA
:10DAE000136803F007038B4240F08D80236813F026
:10DAF000020F17D013F0040F04D0474A536843F4C1
:10DB0000E0635360236813F0080F04D0424A53685F
:10DB100043F460535360404A536823F0F003A16814
:10DB20000B435360236813F0010F31D06368012B5E
:10DB300020D0022B25D0384A126812F0020F64D090
:10DB400035494A6822F0030213434B60FEF78EF911
:10DB50000646314B5B6803F00C036268B3EB820F3F
:10DB600016D0FEF783F9801B41F288339842F0D932
:10DB7000032045E0284A126812F4003FE0D101205A
:10DB80003EE0254A126812F0007FD9D1012037E02B
:10DB9000204B1B6803F00703AB420AD91D4A1368E8
:10DBA00023F007032B431360136803F00703AB4212
:10DBB0002DD1236813F0040F06D0174A536823F4BD
:10DBC000E063E1680B435360236813F0080F07D04C
:10DBD000114A536823F46053216943EAC103536037
:10DBE000FFF730FF0C4B5B68C3F303130B4AD35CA6
:10DBF000D8400B4B18600B4B1868FEF7F3F8002069
:10DC000070BD012070470120FAE70120F8E70120EC
:10DC1000F6E700BF0020024000100240A4B0010857
:10DC20000000002008000020014B1868704700BF6A
:10DC30000000002008B5FFF7F7FF044B5B68C3F353
:10DC40000223034AD35CD84008BD00BF0010024045
:10DC5000B4B0010808B5FFF7E7FF044B5B68C3F3F6
:10DC6000C223034AD35CD84008BD00BF0010024065
:10DC7000B4B0010870B582B00446036813F0010F18
:10DC800034D03E4BDB6913F0805F47D13B4BDA6900
:10DC900042F08052DA61DB6903F080530193019B0B
:10DCA0000125374B1B6813F4807F39D0334B1B6A37
:10DCB00013F4407311D0626802F440729A420CD09F
:10DCC0002E4A136A23F440702E4901260E60002666
:10DCD0000E60106213F0010F36D1284A136A23F444
:10DCE000407361680B431362002D3ED1236813F02B
:10DCF000020F06D0214A536823F44043A1680B4326
:10DD00005360236813F0100F34D01C4A536823F477
:10DD10008003E1680B43536000202CE00025C0E73E
:10DD2000174A136843F480731360FEF79FF80646A2
:10DD3000134B1B6813F4807FB8D1FEF797F8801B54
:10DD40006428F5D9032016E0FEF790F806460B4B41
:10DD50001B6A13F0020FC0D1FEF788F8801B41F256
:10DD600088339842F3D9032005E0D36923F0805328
:10DD7000D361BBE7002002B070BD00BF00100240BD
:10DD8000007000404004424210B586B00446364B55
:10DD90000FCB0DF1180C0CE90F0040F20123ADF888
:10DDA0000430022C51D0102C04D0012C2CD0002097
:10DDB00006B010BD2D4B5A68186810F08070F7D06F
:10DDC000C2F3834306A90B4413F8100C12F4803FEE
:10DDD00016D0264B5B68C3F340430B4413F8142C56
:10DDE000234BB3FBF2F300FB03F0204B5B6813F40F
:10DDF000800FDDD140001F4BA3FB00304008D7E768
:10DE00001D4B03FB00F0F0E7184B1B6A40F2023297
:10DE10001A40B2F5817F23D003F44073B3F5007F3D
:10DE200004D0B3F5407F09D00020C1E70F4A526A01
:10DE300012F0020FF5D049F64040B9E70B4B1868D5
:10DE400010F40030B4D00D48B2E7FFF703FF074BE2
:10DE50005B68C3F3813301335B00B0FBF3F0A7E7EA
:10DE60004FF40040A4E700BF28B9010800100240A9
:10DE7000001BB700ABAAAAAA00093D00366E01003C
:10DE80002DE9F04782B00546884617461E46FDF745
:10DE9000EDFF0A9B1B1A03EB0609FDF7E7FF82461D
:10DEA0002A4B1B68C3F3CB3309FB03F301932B68A5
:10DEB0009C6838EA04030CBF01240024BC4240D013
:10DEC000B6F1FF3FF3D0FDF7D1FFA0EB0A004845C4
:10DED0000AD2B9F1000F07D0019A02B14A46019B5C
:10DEE000013B01939146E2E72A68536823F0E0037F
:10DEF00053606B68B3F5827F0BD0AB6AB3F5005FFC
:10DF000014D0012385F85130002385F850300320C8
:10DF100018E0AB68B3F5004F02D0B3F5806FECD1D9
:10DF20002A68136823F040031360E6E72A68136841
:10DF300023F4005313602A68136843F400531360FA
:10DF4000DFE7002002B0BDE8F08700BF000000203E
:10DF500010B582B004460B46009200228021FFF7E4
:10DF60008FFF08B902B010BD636D43F020036365F5
:10DF70000320F7E7002856D010B50446436A33B9AA
:10DF80004368B3F5827F05D00023C36102E000231C
:10DF9000036143610023A36294F85130002B3CD00D
:10DFA000022384F851302268136823F04003136081
:10DFB000636803F48273A26802F404421343E268C4
:10DFC00002F400621343226902F002021343626901
:10DFD00002F001021343A26902F400721343E269E2
:10DFE00002F038021343226A02F080021343A26A4D
:10DFF00002F40052216813430B60638B226803F024
:10E00000040353602268D36923F40063D3610020C2
:10E010006065012384F8513010BD84F850302046EB
:10E02000FBF784FCBCE7012070472DE9F04383B087
:10E030001F460A9D90F85030012B00F010810446D5
:10E0400088469146012380F85030FDF70FFF0646C1
:10E0500094F85130DBB26268012B0AD0B2F5827FAE
:10E0600040F0E380A268002A40F0E980042B40F0F1
:10E07000E880B8F1000F00F0E680B9F1000F00F081
:10E08000E480002F00F0E38094F85130DBB2042BE1
:10E0900002D0052384F8513000236365C4F838901A
:10E0A000E787A787C4F83080E786A7862364636480
:10E0B00023681A6812F0400F03D11A6842F0400238
:10E0C0001A60E368B3F5006F11D063680BB1012FDC
:10E0D0000BD1226B236812781A73236B01332363ED
:10E0E000E38E9BB2013B9BB2E38601276BE0636842
:10E0F0000BB1012F0BD1226B23681288DA60236BDE
:10E1000002332363E38E9BB2013B9BB2E38601277C
:10E110001CE023689A6812F0010F0ED0E28F92B2D1
:10E120005AB1DA68A36B1A80A36B0233A363E38F3F
:10E130009BB2013B9BB2E3870127FDF797FE801B53
:10E14000A84203D3B5F1FF3F40F08380E38E9BB23A
:10E150001BB9E38F9BB2002B53D023689A6812F04F
:10E16000020FD6D0E28E92B2002AD2D0002FD0D0A9
:10E17000226B1288DA60236B02332363E38E9BB237
:10E18000013B9BB2E3860027C3E723689A6812F03D
:10E19000010F0ED0E28F92B25AB1DA68A36B1A70F7
:10E1A000A36B0133A363E38F9BB2013B9BB2E38775
:10E1B0000127FDF75BFE831BAB4202D3B5F1FF3FA6
:10E1C00049D1002D49D0E38E9BB213B9E38F9BB2A6
:10E1D000BBB123689A6812F0020FD6D0E28E92B2D9
:10E1E000002AD2D0002FD0D0226B12781A73236B62
:10E1F00001332363E38E9BB2013B9BB2E38600278E
:10E20000C3E7324629462046FFF7A2FE48B9A36875
:10E2100063B901932368DA6801929B680193019BBB
:10E2200004E020236365012000E00220012384F83C
:10E230005130002384F8503003B0BDE8F083022051
:10E24000F4E70220F2E70120F0E70120EEE70120E9
:10E25000ECE70320EAE70320E8E70320E6E70220F3
:10E26000EAE7000070B4036A23F001030362036A63
:10E270004668826922F073020C6844EA020523F0C2
:10E2800002028B6813430D4CA04209D00B4CA042F4
:10E290000DD0466085614A684263036270BC704776
:10E2A00023F00803CA68134323F00403EEE726F4BF
:10E2B00040764A6932438E691643EAE7002C0140F2
:10E2C00030B4036A23F480730362036A4568C26949
:10E2D00022F073020C68224323F400738C6843EA33
:10E2E00004230F4CA04209D00D4CA0420ED0456033
:10E2F000C2614A68C263036230BC704723F40063A2
:10E30000CC6843EA042323F48063EDE725F4405509
:10E310004C6945EA04158C6945EA0415E7E700BF36
:10E32000002C014030B4036A23F480530362036A73
:10E330004468C26922F4E6420D6842EA052223F4E9
:10E3400000538D6843EA0533074DA84206D0446068
:10E35000C2614A680264036230BC704724F480449E
:10E360004D6944EA8514F2E7002C014030B4036A99
:10E37000056A25F001050562846924F0F00444EA89
:10E38000021423F00A030B438461036230BC70471C
:10E3900030B4056A25F0100505628469056A24F425
:10E3A000407444EA022424F470441B039BB22343C8
:10E3B00025F0A005090101F0A00129438361016254
:10E3C00030BC704730B4056A25F0100505628469D9
:10E3D000036A24F4704444EA023423F0A00343EABD
:10E3E00001138461036230BC704730B4056A25F4C0
:10E3F00080750562C469056A24F00304144324F09F
:10E40000F0041B01DBB2234325F40075090201F47B
:10E4100000712943C361016230BC704730B4056AA2
:10E4200025F480550562C469056A24F4407444EA01
:10E43000022424F470441B039BB2234325F40055AB
:10E44000090301F400512943C361016230BC7047E4
:10E45000836823F070030B4343F007038360704726
:10E4600090F83D30DBB2012B22D1022380F83D3001
:10E470000368114A934210D0B3F1804F0DD0A2F53A
:10E480009432934209D002F58062934205D01A6813
:10E4900042F001021A60002070479A6802F00702F9
:10E4A000062A07D01A6842F001021A60002070475D
:10E4B0000120704700207047002C01400368196A52
:10E4C00041F21112114208D1196A40F2444211423C
:10E4D00003D11A6822F001021A60012380F83D304E
:10E4E0000020704790F83D30DBB2012B27D102238A
:10E4F00080F83D300268D36843F00103D3600368BD
:10E50000114A934210D0B3F1804F0DD0A2F594324E
:10E51000934209D002F58062934205D01A6842F016
:10E5200001021A60002070479A6802F00702062A6A
:10E5300007D01A6842F001021A60002070470120DB
:10E5400070470020704700BF002C0140704700005A
:10E5500003681B4A90420AD0B0F1804F07D0A2F561
:10E560009432904203D002F58062904203D123F0AE
:10E5700070034A681343124A90420AD0B0F1804FA8
:10E5800007D0A2F59432904203D002F58062904207
:10E5900003D123F44073CA68134323F080034A690C
:10E5A000134303608B68C3620B688362044B984219
:10E5B00002D00123436170470B690363F9E700BF91
:10E5C000002C014040B310B5044690F83D30F3B143
:10E5D000022384F83D30214651F8040BFFF7B8FFC1
:10E5E000012384F8463084F83E3084F83F3084F8C4
:10E5F000403084F8413084F8423084F8433084F865
:10E60000443084F8453084F83D30002010BD80F857
:10E610003C30FBF785FBDBE70120704740B310B5CA
:10E62000044690F83D30F3B1022384F83D30214692
:10E6300051F8040BFFF78CFF012384F8463084F86F
:10E640003E3084F83F3084F8403084F8413084F81C
:10E65000423084F8433084F8443084F8453084F8FC
:10E660003D30002010BD80F83C30FBF7C1FBDBE7FC
:10E670000120704740B310B5044690F83D30F3B127
:10E68000022384F83D30214651F8040BFFF760FF68
:10E69000012384F8463084F83E3084F83F3084F813
:10E6A000403084F8413084F8423084F8433084F8B4
:10E6B000443084F8453084F83D30002010BD80F8A7
:10E6C0003C30FFF743FFDBE70120704730B4036ABB
:10E6D00023F010030362036A4468826922F4E6426D
:10E6E0000D6842EA052223F020038D6843EA0513F2
:10E6F0000E4DA84209D00D4DA8420ED04460826153
:10E700004A688263036230BC704723F08003CD689F
:10E7100043EA051323F04003EDE724F440644D6918
:10E7200044EA85048D6944EA8504E7E7002C01404A
:10E7300038B590F83C30012B60D004460D460123DB
:10E7400080F83C300C2A1AD8DFE802F007191919B2
:10E750001D1919193119191944000068FFF782FDB4
:10E760002268936943F0080393612268936923F058
:10E77000040393612268936929690B439361002024
:10E7800084F83C0038BD0068FFF7A0FF2268936959
:10E7900043F4006393612268936923F48063936177
:10E7A00022689369296943EA01239361E7E70068D6
:10E7B000FFF786FD2268D36943F00803D36122681E
:10E7C000D36923F00403D3612268D36929690B4319
:10E7D000D361D4E70068FFF7A5FD2268D36943F44D
:10E7E0000063D3612268D36923F48063D361226814
:10E7F000D369296943EA0123D361C0E70220C1E755
:10E8000070B4046A24F0010404628469056A114E3C
:10E81000B0420DD0B0F1804F0AD0A6F59436B04288
:10E8200006D006F58066B04202D044F0010202E054
:10E8300024F00304224322F0F0021B01DBB2134355
:10E8400025F00A0201F00A0111438361016270BCE4
:10E85000704700BF002C014038B590F83C30012BC8
:10E8600052D004460D46012380F83C30C2B1042A40
:10E8700027D0082A37D0CB684A6809680068FFF7B4
:10E88000CDFD2268D36923F44063D3612268D36944
:10E89000A96843EA0123D361002084F83C0038BD15
:10E8A000CB684A6809680068FFF7AAFF2268936985
:10E8B00023F00C03936122689369A9680B43936169
:10E8C000EAE7CB684A6809680068FFF761FD2268DB
:10E8D000936923F44063936122689369A96843EACA
:10E8E00001239361D8E7CB684A6809680068FFF79D
:10E8F0007CFD2268D36923F00C03D3612268D369BD
:10E90000A9680B43D361C7E70220C8E710B4846845
:10E9100024F47F4442EA03220A432243826010BC6B
:10E92000704790F83C30012B66D010B504460123A7
:10E9300080F83C30022380F83D300268936823F46D
:10E940007F4323F0770393600B68602B40D022D87D
:10E95000402B47D00BD9502B0ED1CA6849680068AC
:10E96000FFF704FD50212068FFF772FD04E0202B23
:10E970000CD008D9302B09D0012384F83D30002079
:10E9800084F83C0010BD0BB1102BF5D1194620685E
:10E99000FFF75EFDF0E7702B0ED0B3F5005FEBD113
:10E9A000CB684A6889680068FFF7B0FF22689368FF
:10E9B00043F480439360DFE7CB684A688968006866
:10E9C000FFF7A4FF2268936843F077039360D3E7CF
:10E9D000CA6849680068FFF7F5FC60212068FFF706
:10E9E00037FDC9E7CA6849680068FFF7BFFC4021E6
:10E9F0002068FFF72DFDBFE70220704710B50468BF
:10EA0000A26822F070024B68134323F007030A68E0
:10EA10001343A3604B68602B2CD00CD8402B14D030
:10EA2000502B06D10A6989680068FFF79FFC002017
:10EA300028E0002026E0702B23D10B698A68C96882
:10EA40000068FFF763FF00201CE00B68052B1AD05D
:10EA500003681C6A1A6A22F001021A62026893694A
:10EA600023F0F003096943EA0113936103681C6210
:10EA7000002007E00A6989680068FFF7A3FC00200E
:10EA800000E0002010BD0120FCE790F83C30012B95
:10EA900022D010B50446012380F83C30022380F8D0
:10EAA0003D30FFF7ABFF80B92268D36823F0400305
:10EAB000D3602268D36823F48043D360012384F8B1
:10EAC0003D30002384F83C3010BD012084F83D0027
:10EAD000002384F83C30F7E70220704710B401F0BF
:10EAE0001F01012303FA01F4036A23EA040303620A
:10EAF000036A02FA01F10B43036210BC7047000085
:10EB000010B50446084651BB94F83E30DBB2013BD9
:10EB100018BF0123002B5BD1002839D1022384F8D0
:10EB20003E30012201462068FFF7D8FF23682A4AB9
:10EB300093423DD02368284A93423ED0B3F1804FA0
:10EB40003BD0A2F59432934237D002F580629342D3
:10EB500033D01A6842F001021A60002039E004291B
:10EB600008D008290DD094F84130DBB2013B18BF22
:10EB70000123CFE794F83F30DBB2013B18BF0123FC
:10EB8000C8E794F84030DBB2013B18BF0123C1E76E
:10EB9000042805D0082807D0022384F84130C0E7B4
:10EBA000022384F83F30BCE7022384F84030B8E702
:10EBB0005A6C42F400425A64BCE79A6802F00702B9
:10EBC000062A07D01A6842F001021A60002000E00D
:10EBD000012010BD0020FCE7002C014090F83C30E3
:10EBE000012B2BD030B4012380F83C30022380F875
:10EBF0003D3003685C689D6824F070040A68224315
:10EC00005A6003680E4A93420AD0B3F1804F07D08E
:10EC1000A2F59432934203D002F58062934204D16C
:10EC200025F080054A6815439D60012380F83D303A
:10EC3000002380F83C30184630BC704702207047F3
:10EC4000002C01400268D36823F0C003D360202366
:10EC500080F83D3070470268D36823F49073D36026
:10EC60000268536923F001035361036B012B05D044
:10EC7000202380F83E300023036370470268D36886
:10EC800023F01003D360F3E790F83D30DBB2212B83
:10EC900001D0022070478368B3F5805F17D0036A04
:10ECA0005A1C02621A7803685A60C38C9BB2013BFB
:10ECB0009BB2C3844BB90268D36823F08003D3604E
:10ECC0000268D36843F04003D360002070470369B3
:10ECD000002BE4D1036A1B880268C3F30803536066
:10ECE000036A02330362E0E710B504460268136961
:10ECF00023F44053C1680B431361836802691343D3
:10ED000042691A430168CB6823F4B05323F00C0323
:10ED10001343CB600268536923F4407381690B434A
:10ED200053610268124B9A421FD0FEF783FF00EB3B
:10ED3000800303EB830362689200B3FBF2F20D4899
:10ED4000A0FB02314909642303FB11231B01323369
:10ED5000A0FB03235B0903F0F00202EB011203F0B6
:10ED60000F03216813448B6010BDFEF773FFDEE7CD
:10ED7000003801401F85EB512DE9F84305460F4649
:10ED800016469946DDF820802C68246837EA04038B
:10ED90000CBF01240024B4421FD1B8F1FF3FF3D0CF
:10EDA000B8F1000F05D0FDF761F8A0EB0900404570
:10EDB000EAD92A68D36823F4D073D3602A685369E8
:10EDC00023F001035361202385F83D3085F83E3060
:10EDD000002385F83C30032000E00020BDE8F883E4
:10EDE00058B310B5044690F83D300BB3242384F893
:10EDF0003D302268D36823F40053D3602046FFF7E8
:10EE000073FF2268136923F49043136122685369E6
:10EE100023F02A0353612268D36843F40053D3607C
:10EE200000202064202384F83D3084F83E3010BD5B
:10EE300080F83C30FBF772F8D8E7012070472DE9E5
:10EE4000F04182B01E4690F83D30DBB2202B54D109
:10EE500004460D469046002953D0002A53D090F81E
:10EE60003C30012B51D0012380F83C300023036457
:10EE7000212380F83D30FCF7F9FF0746A4F82480F1
:10EE8000A4F82680A368B3F5805F05D04FF0000892
:10EE9000002384F83C3012E0236913B14FF00008DE
:10EEA000F6E7A8460025F3E738F8023B2268C3F3EB
:10EEB00008035360E28C92B2013A92B2E284E38C8E
:10EEC0009BB273B100963B46002280212046FFF79B
:10EED00053FFE0B9002DE7D015F8012B23685A60E5
:10EEE000E8E700963B46002240212046FFF744FF1A
:10EEF00078B9202384F83D3000E0022002B0BDE85C
:10EF0000F0810120FAE70120F8E70220F6E703206C
:10EF1000F4E70320F2E72DE9F04182B01E4690F8B5
:10EF20003E30DBB2202B5CD104460D4690460029D2
:10EF30005BD0002A5BD090F83C30012B59D00123E4
:10EF400080F83C3000230364222280F83E200363D3
:10EF5000FCF78CFF0746A4F82C80A4F82E80A36849
:10EF6000B3F5805F05D04FF00008002384F83C30F3
:10EF700017E0236913B14FF00008F6E7A846002513
:10EF8000F3E723685B68C3F3080328F8023B03E058
:10EF900023685B682B700135E28D92B2013A92B220
:10EFA000E285E38D9BB2BBB100963B460022202157
:10EFB0002046FFF7E1FEF0B9002DE2D0A368B3F5DB
:10EFC000805FE5D013B92369002BE1D023685B682B
:10EFD00003F07F032B70DEE7202384F83E3000200F
:10EFE00000E0022002B0BDE8F0810120FAE7012034
:10EFF000F8E70220F6E70320F4E710B504460168BD
:10F000004A6990F83D30DBB2212B0AD021684A6969
:10F0100002F0400294F83E30DBB2222B11D00020E7
:10F0200010BD02F08002002AF0D04B6923F080036B
:10F030004B61406B08B1FDF7D9FE2046FFF702FE99
:10F04000E4E7002AEBD04B6923F040034B61A06B4F
:10F0500008B1FDF7CBFE2046FFF7FDFDDFE7704767
:10F0600008B50168CA6822F04002CA60202280F810
:10F070003D20FFF7F4FF002008BD70477047704740
:10F0800010B5446A23685A6994F83D30DBB2212BED
:10F0900010D023685A6902F0400294F83E30DBB287
:10F0A000222B11D0236C43F0100323642046FFF77A
:10F0B000E6FF10BD02F08002002AEAD00023E384BC
:10F0C0002046FFF7BFFDE4E7002AEBD00023E385ED
:10F0D0002046FFF7C0FDE5E708B5406A0023C38579
:10F0E000C384FFF7CCFF08BD704790F83E30DBB219
:10F0F000222B60D18368B3F5805F46D0826AB3F576
:10F10000805F04D0002B4DD10369002B4AD10368E6
:10F110005B681370836A01338362C38D9BB2013BCA
:10F120009BB2C385002B48D100B583B00268D36879
:10F1300023F02003D3600268D36823F48073D36084
:10F140000268536923F001035361202380F83E30A5
:10F15000036B012B2CD1002303630268D36823F0D7
:10F160001003D36003681A6812F0100F06D0002253
:10F1700001921A6801925B680193019B818DFFF7F0
:10F18000B3FF002003B05DF804FB0269002AB5D18B
:10F19000826A03685B68C3F308031380836A0233DF
:10F1A0008362BAE703685B6803F07F031370B1E71B
:10F1B000FFF763FFE5E7022070470020704700007B
:10F1C00030B583B0044602681368D068516913F003
:10F1D0000F0505D113F0200F02D010F0200F19D128
:10F1E0002DB111F0010119D110F4907F16D1216BCE
:10F1F000012975D013F0800F03D010F0800F40F07C
:10F20000D78013F0400F03D010F0400F40F0D480AF
:10F2100003B030BD2046FFF768FFF9E713F0010F98
:10F2200006D010F4807F03D0226C42F001022264E9
:10F2300013F0040F04D019B1226C42F002022264D0
:10F2400013F0020F04D019B1226C42F004022264C0
:10F2500013F0080F07D010F0200F00D119B1226C65
:10F2600042F008022264226C002AD1D013F0200F51
:10F2700002D010F0200F21D123685B6903F0400316
:10F28000226C12F0080F00D123B32046FFF7E3FCF5
:10F2900023685A6912F0400F18D05A6922F04002D0
:10F2A0005A61A36B73B1464A5A63A06BFDF7C0FD68
:10F2B0000028ADD0A06B436B9847A9E72046FFF725
:10F2C00014FFD9E72046FFF7DAFEA1E72046FFF753
:10F2D000D6FE9DE72046FFF7D2FE0023236497E782
:10F2E00013F0100F86D010F0100F83D0002301937D
:10F2F0001368019353680193019B536913F0400F06
:10F3000032D0A16B0B685B689BB2002B80D0A08DC4
:10F3100098427FF67DAFE3858B69202B08D1A18DC4
:10F32000E38D9BB2C91A89B22046FFF7DDFE6FE775
:10F33000D36823F48073D3602268536923F00103F8
:10F3400053612268536923F040035361202384F8FA
:10F350003E30002323632268D36823F01003D36078
:10F36000A06BFDF743FDDAE7A18DE38D9BB2C91ACF
:10F3700089B2E38D9BB2002B3FF44AAF00293FF4E2
:10F3800047AFD36823F49073D3602268536923F0A6
:10F3900001035361202384F83E3000232363226855
:10F3A000D36823F01003D3602046FFF79DFE2FE7BC
:10F3B0002046FFF769FC2BE72046FFF751FE27E7C1
:10F3C000D9F0000808B5406A036B012B02D0FFF7A3
:10F3D00055FE08BD818D4908FFF786FEF9E708B59F
:10F3E0000346406A1B681B6813F0200F16D10023E8
:10F3F000C3850268D36823F48073D36002685369BD
:10F4000023F0010353610268536923F04003536101
:10F41000202380F83E30036B012B05D0036B012BBA
:10F4200008D0FFF72AFE08BD0268D36823F0100356
:10F43000D360F3E7818DFFF757FEF4E730B583B073
:10F44000044613468162828500250564222280F8E5
:10F450003E20826B14489062A26B1448D062A26B6B
:10F4600013481063A26B556320680A46011DA06B08
:10F47000FDF782FC019523681A6801925A6801928F
:10F48000019A84F83C50DA6842F48072DA602268AB
:10F49000536943F0010353612268536943F0400309
:10F4A0005361284603B030BDDFF30008C5F3000800
:10F4B00081F0000808B590F83E30DBB2202B0DD16A
:10F4C00071B17AB190F83C30012B0DD0012380F856
:10F4D0003C3000230363FFF7B1FF00E0022008BDCA
:10F4E0000120FCE70120FAE70220F8E7014B185C55
:10F4F000704700BF300E0020014B1954704700BF09
:10F50000300E002008B54FF4806202490248F9F736
:10F5100051FB08BD00FC0108300E002030B587B05B
:10F5200000230193029301230393124A049205934B
:10F53000FDF7B2FD08B107B030BD0F4B3422DA60E1
:10F5400001A902A8FDF772FE80B90A4C00250B4BF9
:10F550009C420BD80A4B2B44D3E9002321460320BD
:10F56000FDF7F2FD10B908340835F0E7FDF7AEFD00
:10F57000E1E700BF00FC010800200240FFFF010896
:10F58000300E002030B587B00546FDF785FD00241C
:10F59000AB68A34216D9002302932B6803EB8423A4
:10F5A00004930123059301A902A8FDF73FFE4FF044
:10F5B000FF30FDF795FD054A136923F0020313613F
:10F5C0000134E5E7FDF782FD07B030BD00200240C1
:10F5D00010B50446FDF760FD2368E36010BD08B573
:10F5E000FDF774FD08BDF8B51646C26803689A4277
:10F5F00019D305460F4602EB460241680B449A4276
:10F6000011D8002400E00134B4420CD237F81420A1
:10F610000023E9680120FDF797FD0028F3D1EB688E
:10F620000233EB60EFE7F8BD054B196808331B6840
:10F630001944044B588840EA0140090C704700BF48
:10F64000E8F7FF1FECF7FF1F08B5054B1860054BE7
:10F650001868002302221946806803F0A3FB08BD46
:10F66000301200205C000020022801D801207047E1
:10F6700008B502F087FA09230360002008BD0000E6
:10F68000013801280AD810B514464FF0FF3392B262
:10F6900004480068FFF7D3FB204610BD4FF0FF3051
:10F6A000704700BF30120020022801D800207047A8
:10F6B00008B502F067FA092303604FF0FF3008BD78
:10F6C00008B502F05FFA092303604FF0FF3008BD70
:10F6D00008B548B94FF0FF33012208480068FFF72A
:10F6E0001AFC40B9012008BD02F04CFA092303605E
:10F6F0004FF0FF30F7E70520F5E700BF301200209C
:10F7000008B5022804D84FF400534B60002008BD10
:10F7100002F038FA09230360F8E7000008B5012970
:10F7200003D002290BD0002008BD4FF480510848B7
:10F73000FDF75CFF012814BF00200120F4E704213D
:10F740000348FDF753FF012814BF00200120EBE719
:10F75000000C014008B5026812680179904780F0FA
:10F760000100C0B208BD000008B50248FFF730FF35
:10F7700008BD00BF0C00002008B50248FFF72FFFAE
:10F7800008BD00BF0C00002008B50248FFF7FAFED4
:10F7900008BD00BF0C00002000B583B0ADF8061016
:10F7A00001220DF106010348FFF71DFF03B05DF8CC
:10F7B00004FB00BF0C000020024B986800F0010021
:10F7C000704700BF000C0140024B9868C0F3C010A6
:10F7D000704700BF00080140014B586A00B27047F3
:10F7E0000004004029B1064A136823F01003136097
:10F7F0007047034A136843F010031360704700BF5B
:10F8000000040040F0B591B005460C4690F8283051
:10F81000012B7AD085F82840002C74D0012C72D1AD
:10F8200000240A94474EB36943F00403B361B369FB
:10F8300003F004030193019B0123079308940994A7
:10F8400007A94148FDF744FDB36943F00403B361E0
:10F85000B36903F004030293029B802307933B4B9D
:10F86000089309943A4F07A93846FDF731FD172050
:10F87000FDF7EEF9B36943F00403B361B36903F034
:10F8800004030393039B402307930894099407A957
:10F890003846FDF71DFD0B940C940D940E940F94B7
:10F8A00005940694F36943F00203F361F36903F0EE
:10F8B00002030493049B2748274B03604460846041
:10F8C0004FF6FF73C36004618461FEF77BFE80BB6B
:10F8D00007230B9350230C9300230D9304230F93C2
:10F8E0000BA91C48FFF7D1F830BB00230593069302
:10F8F00005A91848FFF772F908BB1648FEF7B0FDD6
:10F90000281DFCF762F911B0F0BD114E8021304680
:10F91000FDF7EEFD1720FDF7A9F901210A48FDF7D3
:10F92000E7FD0C48FEF7CAFD40213046FDF7E0FD3B
:10F9300070E7F9F777FFCBE7F9F774FFD5E7F9F749
:10F9400071FFDAE700100240000C014000003110A6
:10F9500000080140240C00200004004008B51346B4
:10F960000A4611B1012908D008BD03B901224FF49C
:10F9700000510648FDF741FEF6E703B100224FF4BF
:10F9800080410248FDF739FEEEE700BF001001405C
:10F9900008B5F9F7A5FF08BD30B587B0ADF80E1072
:10F9A000094C4FF4004565614FF0FF33009301238C
:10F9B0000DF116020DF10E010448FEF736FB25612C
:10F9C000BDF8160007B030BD00080140380B00201C
:10F9D000034B1B68890819649208DA63704700BFFB
:10F9E000DC0B002039B1084B202119613AB1064BDC
:10F9F00010221A617047044B20215961F6E7024B2F
:10FA000010225A61704700BF0008014039B1084B0D
:10FA1000082119613AB1064B04221A617047044B60
:10FA200008215961F6E7024B04225A61704700BF72
:10FA30000008014030B587B0002402940394049478
:10FA40000594134B9A6942F004029A619A6902F094
:10FA500004020092009A9A6942F008029A619B6936
:10FA600003F008030193019B0A4D22463C212846DE
:10FA7000FDF7C3FD3C230293012303930494032366
:10FA8000059302A92846FDF723FC07B030BD00BF4F
:10FA9000001002400008014008B5FAF7EFF908BD70
:10FAA00008B5022802D0032803D008BDFDF7F0F8FE
:10FAB000FBE7074BD3F840315A7922B10549CA60B8
:10FAC00000221A71F1E7034A127B1A71EDE700BFB9
:10FAD0002C1600203412002008B5022802D003287A
:10FAE00024D008BD144BD3F840014379013B062BC9
:10FAF000F7D801A252F823F025FB00081DFB0008EF
:10FB000015FB0008E3FA000825FB00081DFB0008B0
:10FB100015FB00080021FAF7E5FFE2E70021FAF7FC
:10FB20009FFFDEE70021FAF737FFDAE7024BD3F851
:10FB30004001FAF7E4FFD4E72C160020012800D09A
:10FB400070472DE9F84F4FF6FF73994201D0BDE899
:10FB5000F88FAD4D4FF0C80AC5F800A04FF4807380
:10FB60006B604FF448439846AB60002405F12409CC
:10FB700064222146484602F01FFE44F62063C5F881
:10FB800088303223C5F88C30C5F8904005F18806DE
:10FB9000C5F89460C5F89840C5F89C40C5F8A040E9
:10FBA000C5F8A440C5F8A860C5F8AC40C5F8B04099
:10FBB000C5F8B440C5F8B840C5F8BC40C5F8C06049
:10FBC000C5F8C440C5F8C8400023C5F8CC30C5F816
:10FBD000D040C5F8D440C5F8D840C5F8DC40C5F8D9
:10FBE000E040C5F8E440C5F8E840C5F8EC60C5F869
:10FBF000F040C5F8F440C5F8F840C5F8FC40C5F839
:10FC00000041C5F80441C5F80841C5F80C61C5F8C4
:10FC10001041C5F81441C5F81841C5F81CA185F874
:10FC20002041C5F82441C5F82841C5F82C41C5F844
:10FC30003041C5F83441C5F83841C5F83C4105F5B7
:10FC4000A873C5F84031C5F84441C5F84841C5F826
:10FC50004C41C5F8504185F8564185F85741C5F8E3
:10FC60005C41C5F86041C5F86441C5F86841C5F814
:10FC70006C41C5F87041C5F87441C5F87841C5F8C4
:10FC80007C41C5F88041C5F88441C5F88841C5F874
:10FC90008C4185F8904185F89141C5F89441C5F8AB
:10FCA0009841C5F89C4185F8A04185F8A14185F8A7
:10FCB000A241C5F8A441C5F8A841C5F8AC4185F8F2
:10FCC000B041C5F8585185F8544185F85541EC606C
:10FCD0004FF4FA632B614FF47A776F612B624346DE
:10FCE0004FF01E0808FB03F2AA6107FB03F3EB6168
:10FCF00085F884404FF0300B5A462146484602F0C2
:10FD00005BFD0523AB62C5F82C805A46214605F100
:10FD1000540002F051FDC5F854A05023AB654FF4D8
:10FD20009673EB65FA232B6605F10C013046FAF762
:10FD300016FD4946D5F84001FAF7B5FF334B5B6035
:10FD400010221A815C811C735C739C731C825C8220
:10FD50009C829C61DC611C629C8483F8264083F851
:10FD6000274083F828402A4A1A602A4B5C601C818D
:10FD7000C3F80A40DC81284A1A60284B5C601C8169
:10FD80004FF48042DA601C619C82254A9A61254AC0
:10FD90001A60254E3475F4822022214606F118009F
:10FDA00002F00AFD4FF4C9784246214606F13800B8
:10FDB00002F002FD4246214606F5E57002F0FCFC29
:10FDC000B5603471347374733461C6F85C43C6F83B
:10FDD0006043C6F86443154B3360154B01221A711A
:10FDE0005C719C60DC601F615C61124A1A60124B9E
:10FDF000022119715C719C60DC6040F6B8311961B8
:10FE00005C611A60A3E600BF2C16002000160020DB
:10FE100004BA0108081800209CBA0108E017002065
:10FE2000007C010868BA010898120020BCB90108DA
:10FE30006812002070B90108801200200000000044
:10FE4000F0B583B0FFF7F0FB02460B46AEA1D1E957
:10FE500000018B4208BF824243D0994208BF9042C2
:10FE600018D3ABA1D1E900018B4208BF82423AD03E
:10FE7000A9A1D1E900018B4208BF824201D101262C
:10FE800017E0A7A1D1E900018B4208BF82422CD123
:10FE900003260EE0A4A1D1E900018B4208BF8242F3
:10FEA00025D0A3A1D1E900018B4208BF824220D115
:10FEB000042601238DF80630FFF724FB01238DF87B
:10FEC00004303427844C0025AFB12846FFF70EFBE1
:10FED000234603F8010B013FBFB20135ADB21C460A
:10FEE000F2E70526E5E70226E3E70026E1E7062636
:10FEF000DFE70026DDE7784B1B78012B5FD1764DDD
:10FF0000AB68764CE3602B6963616B69A361A96997
:10FF1000E16104F1A400FAF7BAF9A96904F1B800A3
:10FF2000FAF712FAEB6923612B6A63656B6AA365C2
:10FF3000AB6AE365EB6A236695F8313084F8843068
:10FF400067492046FAF723FC66492046FAF71CFC6D
:10FF500065492046FAF71EFCD4F84001FAF746FE40
:10FF6000D4F8480103681B689847D4F84401036833
:10FF70001B6898474021D4F84C01FBF754FE5B4CBA
:10FF80005B492046FBF7AAFD5A495B48FBF7A6FDF3
:10FF90006420FBF771FF5948FEF7A4FA5848FEF7B2
:10FFA000A1FA2046FFF7D6FB002869D05248FFF798
:10FFB000D1FB002864D0534B01221A7160E0474BFB
:10FFC0009B681E2000FB03F0642101FB03F1424B00
:10FFD00001241C705E6000229A60DC604FF47A7429
:10FFE0001C61586199614FF4FA61D961C8211962A5
:10FFF000502159624FF496719962FA21D96283F8BF
:020000040801F1
:10000000302083F831209DF804306BB13E46342512
:10001000314C7DB114F8011B3046FFF76DFA013DFC
:10002000ADB20136B6B2F4E7FFF76CFA01238DF8F2
:100030000430EBE79DF80630002B3FF460AFFFF78C
:100040006DFA5CE7244B01221A709DF804301BB155
:100050003E463425204C0EE0FFF754FA01238DF87C
:100060000430F5E714F8011B3046FFF745FA013D6F
:10007000ADB20136B6B2002DF4D19DF80630CBB941
:100080002048FBF74FFB144B1B78022BDAD0002BD8
:10009000F6D19DF8043083B13E4634250E4C95B11F
:1000A00014F8011B3046FFF727FA013DADB20136C7
:1000B000B6B2F4E7FFF732FAE2E7FFF723FA0123DB
:1000C0008DF80430E8E79DF8063013B9FCF7E0FD41
:1000D000D6E7FFF723FAF9E7341200202C160020A8
:1000E00008180020E01700200016002068120020E9
:1000F000A1FA0008D9FA000880120020940B002011
:100100006C0C00209812002038486C7564000000C8
:100110003848698D5900000038486975640000004E
:100120003848827959000000384880766400000021
:10013000384841796400000008B50B4B1B686FF02C
:1001400001021A610A210948FBF7A2FC0A210848AA
:10015000FBF79EFC074BD3F840319A790A210648F9
:10016000FBF766FD08BD00BF940B0020681200205D
:10017000801200202C1600201C00002008B5084B1F
:100180001B686FF001021A61064B1B791BB1054811
:10019000FBF7DEF808BD0448FBF7AAF8FAE700BF52
:1001A0006C0C0020981200202C16002008B5024884
:1001B000FBF70BFD08BD00BF04160020704708B513
:1001C0004FF6FF710120FFF7B9FC08BD2DE9F041A2
:1001D00082B00C4601387E2800F28A80DFE810F0F9
:1001E0007F008D009100AA00CB001001540188000F
:1001F00088008800880088008800880088008800BF
:100200009E01AA01BD01E001060216022702350285
:10021000430251025F02880088008800880088003D
:1002200073029402B502D702880088008800880013
:10023000880088008800880088008800880088007E
:10024000880088008800880088008800880088006E
:10025000880088008800880088008800880088005E
:10026000880088008800880088008800880088004E
:10027000880088008800880088008800880088003E
:10028000880088008800880088008800880088002E
:10029000880088008800880088008800880088001E
:1002A000880088008800880088008800880088000E
:1002B00088008800880088008800880088008800FE
:1002C00088008800880088008800880088008800EE
:1002D00088008800880088008800ED02F102AA4B9F
:1002E0001B68012B07D00022A84BD3F840311A71AC
:1002F00002B0BDE8F0810222F6E7A54B01221A7197
:10030000F6E7A24BD3F840014379032B0ED19F4B64
:10031000D3F840419C4B18689E49F7F701FBF7F76B
:10032000DBFC01462046FAF7DDFBE1E70321FAF7A3
:1003300031FBECE7954BD3F840014379022B12D106
:10034000924BD3F84041904A15689868F7F794FAB1
:1003500001462846F7F7E4FAF7F7BEFC01462046C7
:10036000FAF77EFBC4E78C4B5A69884B9A610221ED
:10037000FAF710FBE4E7854BD3F840014379012BF2
:1003800023D1824BD3F840517F4A16689868F7F71B
:1003900073FA01463046F7F7C3FAF7F79DFC0146BA
:1003A0002846FAF7F9FA2379002BA1D00021774BE0
:1003B000D3F84001FAF75DFB01900023032B0CDC1E
:1003C00001AAD25CE2540133F8E7734B5A696F4BD0
:1003D0009A610121FAF7DEFAD3E76C4BD3F840318A
:1003E0009B79012B00D0002323716B4B5B68DB01F1
:1003F00043F02303694803602146F9F717F977E7CB
:10040000624BD3F840014379012B26D15F4BD3F8DF
:1004100040615D4D2F689868F7F72EFA014638461F
:10042000F7F77EFA6D68F7F757FC01462A46304623
:10043000FAF7B8FA2379002B3FF45AAF0021534B57
:10044000D3F84001FAF715FB01900023032B08DCD9
:1004500001AAD25CE2540133F8E70121FAF79AFAD3
:10046000D4E74A4BD3F840319B79012B00D00023CD
:100470002371494B5B68DB0143F02303474803606A
:100480002146F9F7D3F833E7404BD3F840014379DD
:10049000012B22D13C4FD7F804803C4DA868F7F7D8
:1004A000EBF9064601464046F7F73AFAF7F714FC2F
:1004B000A861D5F8408139683046F7F731FAF7F787
:1004C0000BFC01464046FAF767FA0021D5F84001D7
:1004D000FAF7CFFA019000230BE02F4B5A692B4B10
:1004E0009A610121FAF756FAD4E701AAD25CE254E4
:1004F0000133032BF9DD254BD3F840319B79012BD8
:1005000000D000232371244B5B68DB0143F02303FD
:10051000224803602146F9F789F8E9E61A4B1A6880
:100520001D4B5A600B79002B3FF4E2AE1A4B0222AE
:100530001A70DDE6144B18681649F7F7F1F9F7F76A
:10054000CBFB124B5861144B18612379002B3FF4FD
:10055000CFAE114B02221A70CAE60B4B1E680B4D30
:10056000A868F7F789F901463046F7F7D9F9F7F7A0
:10057000B3FBA861084B58612379002B3FF4B8AE58
:10058000054B02221A70B3E6D00A00202C16002078
:100590009812002000007A44341200203800002015
:1005A000894B1E68894DA868F7F766F90146304601
:1005B000F7F7B6F90190F7F78FFB0146E86105F10F
:1005C000A400F9F764FE0198F7F786FB014605F1F0
:1005D000B800F9F7B9FEEA697D4B9A612379002BDF
:1005E0003FF486AE7A4B02221A7081E6774CD4F83B
:1005F0004001FAF74DFBE168A26891FBF2F302FBC0
:100600001313734A93600223137071E66E4B1B68D9
:10061000012B14BF002301236D4A82F830300B797F
:10062000002B3FF465AE134602221A7060E6664B5B
:100630001B68664A5365664A13620B79002B3FF4C8
:1006400057AE134602221A7052E65F4B1B685F4A90
:1006500093655F4A53620B79002B3FF449AE134612
:1006600002221A7044E6584B1B68584AD365584A10
:1006700093620B79002B3FF43BAE134602221A70B3
:1006800036E6514B1B68514A1366514AD3620B79C7
:10069000002B3FF42DAE134602221A7028E64A4B77
:1006A0001B68012B14BF00230123484A82F88430C1
:1006B000474A82F831300B79002B3FF419AE1346CC
:1006C00002221A7014E6414BD3F84001FAF700FAFF
:1006D0000190002303E001AAD25CE2540133032B12
:1006E000F9DD3A4BD3F840319B79012B00D0002340
:1006F0002371374B5B68DB0143F02103354803600E
:100700002146F8F793FFF3E5304BD3F84001FAF7B1
:10071000D0F90190002303E001AAD25CE254013336
:10072000032BF9DD294BD3F840319B79012B00D005
:1007300000232371264B5B68DB0143F0220325482D
:1007400003602146F8F772FFD2E500211F4BD3F872
:100750004001FAF78EF90190002303E001AAD25C70
:10076000E2540133032BF9DD184BD3F840319B7968
:10077000012B00D000232371154B5B68DB0143F094
:100780002303144803602146F8F750FFB0E50F4BF0
:10079000DB680093002303E01DF80320E2540133DB
:1007A000032BF9DD0A4B5B68DB0143F024030948A6
:1007B00003602146F8F73AFF9AE5054B00221A70CC
:1007C00096E5FCF765FA93E5D00A00202C16002088
:1007D000341200203800002010B584B00378702B4C
:1007E00053D0762B27D0632B01D004B010BD03AAC1
:1007F000384902F015FC002815DD0128F5D1364BEB
:10080000D3F840014379032B11D1334BD3F8404146
:1008100032490398F7F784F8F7F75EFA0146204665
:10082000FAF760F9E1E72E4802F0AAF8DDE70321C4
:10083000FAF7B0F8E9E701AA2A4902F0F1FB00282B
:1008400017DD0128D1D1244BD3F840014379022B85
:1008500013D1214BD3F840419868F7F70DF801996F
:10086000F7F75EF8F7F738FA01462046FAF7F8F896
:10087000BBE71B4802F084F8B7E71B4B5A69164BDD
:100880009A610221FAF786F8E3E702AA174902F013
:10089000C7FB002819DD0128A7D10F4BD3F8403141
:1008A0005A79012A01D001221A710B4BD3F8404129
:1008B0009868F6F7E1FF0299F7F732F8F7F70CFAC4
:1008C00001462046FAF768F88FE7054802F058F825
:1008D0008BE700BFC4BA01082C16002000007A4440
:1008E000CCBA0108ECBA010834120020F4BA0108AD
:1008F0000C480D490D4A002302E0D458C45004337B
:10090000C4188C42F9D30A4A0A4C002301E0136050
:100910000432A242FBD3F9F739F901F08BFBF8F767
:10092000C3FF7047000000200C0A0020C4CE01085D
:10093000100A002094180020FEE7000070B5102374
:100940000024066884B01546CDE9023412686B466F
:10095000B66900948DF80440B0479DF8043003F068
:100960000603062B09BF01202046009B2B6004B024
:1009700070BD00BF0098904214BF01200620704750
:1009800010B50446024B036000F0E8F8204610BDA5
:1009900034BB010810B50446044B036000F0DEF8D8
:1009A0002046082100F04AF8204610BD34BB01085B
:1009B0002DE9F041069F089990468F421D46044656
:1009C000099E0CD02946204600F0CCF820B1012326
:1009D000376086F80480B3710020BDE8F081079984
:1009E00000F0C0F80028EDD0002086F80580BDE8B2
:1009F000F08100BF38B515461C4600F0B3F800B9C9
:100A000038BD082206232560E260237138BD00BF8F
:100A10002DE9F04116461D4607460C4600F0A2F8A7
:100A200048B9032D07D82368324639462046BDE829
:100A3000F0415B691847BDE8F08100BF00F0A8B83D
:100A400010B50446024B0360FFF79AFF204610BD25
:100A500094BB010810B50446044B0360FFF790FFF8
:100A600020460C21FFF7EAFF204610BD94BB010889
:100A700070B582B0069E0D469642044609D0A06825
:100A8000294604680696246AA44602B0BDE8704070
:100A9000604719460192009300F064F8DDE90032E6
:100AA0000028ECD0062002B070BD00BF2DE9F04F49
:100AB0000D4681B01946DDE90A8BDDE90CA91C461B
:100AC0001646074600F04EF880B9D04527D0B868E2
:100AD00023460468CDE90CA9CDE90A8BE4693246C6
:100AE0002946A44601B0BDE8F04F6047002DC9F883
:100AF000008089F804600CDB4544AA450CBF4FF028
:100B0000060A4FF0010A89F806A0002001B0BDE8EE
:100B1000F08F0235F9D1012389F80630F5E75946FF
:100B2000384600F01FF80028D1D089F80560ECE7BE
:100B30002DE9F04106460F4614461D46FFF75AFFC1
:100B400048B9B0682B4605682246AC693946A446C8
:100B5000BDE8F0416047BDE8F08100BF704700BFCD
:100B600000207047814211D008B5406803782A2BD5
:100B70000AD049680B782A2B08BF0131F8F790F8A2
:100B8000B0FA80F0400908BD002008BD0120704780
:100B900001F084BA08B5804700F0ECFF00F02AFAB3
:100BA00000F0E8FF0D46044600F064FA013502D17A
:100BB000204600F0AFF900F0AFF800BF08B5034BD6
:100BC0001868BFF35B8FFFF7E5FF00BF54000020FC
:100BD00008B58047FFF7F2FF08B5034B1868BFF36D
:100BE0005B8FFFF7F5FF00BF50000020024B186835
:100BF000BFF35B8F704700BF54000020024B1868A2
:100C0000BFF35B8F704700BF5000002070B53B4BB7
:100C100082B01A78002A41D101241C7000F04AFEEB
:100C2000002831D000224FF0FF3544681146237868
:100C300001952A2B08BF013401AB2046F6F7D0F806
:100C40002F4D06462B683022DB6801212D4801F02C
:100C5000E1F9019B93B12B682046D96801F008F8AF
:100C60002B680222DB680121274801F0D3F9019BA0
:100C700013B9304601F012FA00F0E4FD2B6830465B
:100C8000D96800F0F5FFEBE71D4B21461B682D22CC
:100C9000DB681E4801F0BEF900F06CFF184B1D2206
:100CA0001B680121DB681A4801F0B4F900F062FF0B
:100CB00001290C4619D100F09DF903689B689847FB
:100CC0002B68064621460B22DB68124801F0A2F988
:100CD0002B683046D96800F0CBFF2B680A20D96812
:100CE00000F056FF00F0C6F9D6E700F083F900F0F7
:100CF000C1F9D1E700F0BEF900F00EF81818002095
:100D00005C000020F0BB010824BC010828BC0108DD
:100D1000D0BB010858BC01081EB400F095F81EBCF9
:100D2000F7F762FDF0B502780C46472A1D4683B0FE
:100D300019D00023294E0193336830469B689847A9
:100D400060B901272368314620461E6901AA0123A4
:100D5000B04760BB0746384603B0F0BD019B022791
:100D60001B680193EEE743784E2BE2D18378552B35
:100D7000DFD1C378432BDCD10379462B21D0037913
:100D8000432BD6D143792B2BD3D183792B2BD0D1A5
:100D9000C379012BCDD80FD050F8206C5830336870
:100DA00001909B68304698470028CAD0D6E738465D
:100DB000019B2B6003B0F0BD50F8200C50F8786C0C
:100DC000EDE743794F2BDAD18379522BD7D1C37911
:100DD000002BD4D1024E0193AEE700BF0CC5010831
:100DE00004C5010810B5044600F09AF9224612F82D
:100DF0002039472B04D0836823BB8260012010BDBB
:100E000063784E2BF7D1A378552BF4D1E378432B9D
:100E1000F1D12379432BEED163792B2BEBD1A3793D
:100E20002B2BE8D1E379012BE5D854F8043C0133AE
:100E3000012B44F8043CE1D1836844F8083C82600B
:100E4000012010BDFFF7BAFE08B500F069F983680C
:100E500083B393F82020472A04D00022826003F154
:100E6000200008BD93F821204E2AF6D193F82220C5
:100E7000552AF2D193F82320432AEED193F8242067
:100E8000432AEAD193F825202B2AE6D193F826208D
:100E90002B2AE2D193F82720012ADED8DA69013A19
:100EA000DA61002ADBD10022996981609A6103F13D
:100EB000200008BDFFF782FE0378472B01D00020F9
:100EC000704743784E2BFAD18378552BF7D1C378EE
:100ED000432BF4D10379432BF1D143792B2BEED162
:100EE00083792B2BEBD1C07901288CBF0020012006
:100EF000704700BF10B530B1044600F07BF82046C3
:100F0000FFF7DAFF08B9FFF759FE54F8140CFFF7A2
:100F100041FE00BF2DE9F04F85B00246FFF7CCFF40
:100F200038B152E90684D2E90C750026D2F828902F
:100F300005E00446012680460546074681461046E0
:100F400000F058F80EB1FFF747FE4046FFF740FEAD
:100F500000F050F80EB1FFF731FE00F0DDF84FF071
:100F600000080368DFF888A093F8272003F1200B1E
:100F7000012A0CBF1A6803F17802029227F00302DB
:100F80000192C1451DDD2F6807B12F44002239466B
:100F9000584602ABFFF7C6FE08B100F053FC3B68B1
:100FA00051461B6903909C4638460123674603AAB5
:100FB000B847019B002818BF064608F101081D44E8
:100FC000DFE746B1042000F0EBFC074B074A084975
:100FD000036000F01BFC2046FFF7DCFD00F04AF840
:100FE00000F048F8FFF798FE98C50108FD100108C9
:100FF00014C5010838B5044600F092F8214611F8EE
:1010000020390568472B03D08DBB0160284638BDC9
:1010100063784E2BF8D1A378552BF5D1E378432B89
:10102000F2D12379432BEFD163792B2BECD1A37928
:101030002B2BE9D1E379012BE6D854F80C3C002B9B
:1010400012DB013342688D4202F1FF3244F80C3C5E
:10105000426018BF44F8105C656A18BF0160204602
:10106000F7F71AF8284638BDC3F10103EAE7FFF79E
:10107000A5FD00BF08B500F04FF80246006870B348
:1010800090F82010472906D0BDE808400021203004
:101090001160F7F703B890F821104E29F4D190F8B9
:1010A00022105529F0D190F823104329ECD190F863
:1010B00024104329E8D190F825102B29E4D190F889
:1010C00026102B29E0D190F827100129DCD841699E
:1010D000002905DB013908D04B1C0DD0416108BD4A
:1010E0000131FBD103691360F8E70169BDE80840ED
:1010F00020301160F6F7D2BFFFF760FD704700BFE8
:1011000000487047F0C4010810B504460421FFF7F9
:1011100095FC204610BD00BF004870471C180020F9
:10112000004870471C180020502821D0F8B504460C
:1011300000F00F000C2859D8DFE800F007482A0714
:1011400022585858582E26072200104650F804CB33
:10115000BCF1000F09D004F07005102D08BF114636
:1011600022068C4448BFDCF800C0C3F800C0F8BDBC
:10117000D01C20F0030050F804CBC3F800C0704727
:10118000104650F808CBE3E7104630F902CBDFE712
:10119000104630F802CBDBE74FF0000C10466646F5
:1011A00010F8017B07F07F05B5404CEA050C3D06C1
:1011B00006F10706F4D41F2ECAD87D06C8D54FF015
:1011C000FF3505FA06F64CEA060CC4E74FF0000CB2
:1011D0001046664610F8017B07F07F05B5403F06D4
:1011E0004CEA050C06F10706F4D4B1E700F0C2FCA6
:1011F000FF2808B5034619D003F07002302A0846CC
:1012000016D005D8202A09D1BDE8084000F0AFBCAF
:10121000402A09D1BDE80840F7F7BCBC02D813F05A
:10122000600F03D000F0A6FC502AFBD1002008BDBF
:10123000BDE8084000F098BCF8B50C4615460646D7
:1012400008B1F7F7A7FC286014F8017BFF2F29D11C
:101250006860204610F8013BFF2B2B7533D000242B
:10126000102322462B7510F8011B01F07F039340D9
:10127000090644EA030402F10702F4D40444EC60D2
:101280000024224610F8013B6B7510F8011B01F099
:101290007F0393401C430B0602F10702F5D404447C
:1012A0002C61F8BD31463846FFF7A2FF22460146C1
:1012B0002B1D3846FFF738FF0446204610F8013B47
:1012C000FF2B2B75CBD10023EB60D9E700232DE951
:1012D000F04F00F0030493B0012C884617460893A2
:1012E00000F0A480022C0AD139464046F7F73EFCB4
:1012F000002840F08F80082013B0BDE8F08F002C4C
:1013000040F030820207EFD401230DF1300A02933E
:1013100000230C2219463846CDF800A0CDF83080C5
:10132000F6F7E6FE3846F7F73BFC83460028DBD0AD
:10133000524601463846FFF77FFF394605469DF87D
:101340004400FFF755FF002304460DF12C09194610
:101350000F223846CDF800900E94F6F7A5FE0B9BB1
:10136000109A23F00103954203F1FF3680F0EC81DF
:101370009DF8454000212046FFF73AFF2A460146E6
:1013800009AB2046FFF7D0FE9DF8455004460021EA
:101390002846FFF72DFF224601460AAB2846FFF7F5
:1013A000C3FE9DF84550044600212846FFF720FF64
:1013B000224601464B462846FFF7B6FE0024054666
:1013C000224615F8011B01F07F0393401C430B06D6
:1013D00002F10702F5D40C9B099A1344B3421DD9BC
:1013E000029BDA0734D50024039400230D2219460A
:1013F0003846CDF80090089DF6F756FE0B9B039AF1
:101400000620C8E90954C8F82CB0C8F83020C8F83C
:10141000203071E7092013B0BDE8F08F0A9A134419
:10142000B34270D8109BAB42A2D8D9E70DF1300A75
:1014300010F00804CDF800A012D044F002041946C0
:101440000C2238460294CDF83080F6F751FE69E759
:10145000029B1E0701D5FFF7B1FB4046FFF74AFD8F
:1014600023460D2221463846D8F82050F6F71CFEB8
:101470000C9B9D4202D00223029349E7234621465A
:101480000C223846CDF800A0CDF83080F6F730FEBB
:10149000D8F830300393002BDFD0D8E90A4B0DF198
:1014A0002C09002C45DB0325002338461A46194633
:1014B000CDF80090CDF82C80F6F71AFE002301221B
:1014C00019463846CDF800900B94F6F711FE00232C
:1014D0000F2219463846CDF80090F6F7E5FD0023B7
:1014E0000B9A039C02F001021443384619460F225E
:1014F000CDF800900B94F6F7FBFD022D14D00720D9
:1015000013B0BDE8F08F0B9B002B3FF4EDAE0D9AAE
:10151000134403938CBB002B3FF4E6AE029BD90728
:101520003FF5E2AE0225BFE74046FFF75BFC072030
:10153000E2E66FF040431B1B1E46524659463846B2
:10154000FFF77AFE39469DF84400FFF751FE054645
:101550000F980E9550F8263000EB860033B1024606
:10156000002352F8041F01330029FAD10422C8E9EC
:101570000A35C8E90C20032596E7109E039B013C21
:101580002644002B3FF4B0AE029B002E00F0E18019
:1015900013F00803049300F0CD8047254E24552016
:1015A00043214FF0460C4FF04F0E5222002388F893
:1015B000005088F8014088F8020088F8031088F885
:1015C00004C088F805E088F8062088F80730002372
:1015D000CDF818B09B460597CDF81CA000242246F4
:1015E00016F8011B01F07F039340080644EA030448
:1015F00002F10702F4D41F2A05D84B0603D50123B4
:1016000093405B421C43002530462A4610F8011BDC
:1016100001F07F0393400F0645EA030502F107023C
:10162000F4D41F2A05D8490603D5012393405B4211
:101630001D43002C12D014DCB8F1000F02D0049B23
:10164000002B46D06FF0404A0F9BAAEB040A53F8D8
:101650002A303BB3002D61D02E44BFE74FF0010B81
:10166000F8E79DF84400FF284CD000F00703042B56
:1016700078D8DFE803F003772B032800A3005B4250
:101680000F9A0E991A444B46FFF74EFD0B9949B13C
:10169000B8F1000FDED00022404608ABFFF742FB56
:1016A0000028D7D0029BDDF81CA0DB07DDE9057B15
:1016B0003FF59BAE049B002B3FF4F3AE002CBFF62E
:1016C000F2AEFFF789FAE3005B42D9E763005B42C1
:1016D000D6E76FF0404A0F9FAAEB040A57F82A108A
:1016E000089B07EB8A070B9319B90DE057F8041F05
:1016F00051B14B46002240463944FFF713FB002806
:10170000F4D0A7E70023BBE7029B5646DDE9057B43
:10171000DA07DDF81CA03FF568AE0EE75B46059FD3
:10172000002B3FF4E1AD029BDB073FF5DDAD00246C
:101730000225B9E698F80730012B0CBF58F8203C79
:1017400008F15803089342E7029BD8073FF54BAED8
:101750007FE613F001047FF4C7AD029B1D073FF540
:10176000E1AEE4E700F006FAFFF744FC73E600BFE1
:10177000012810B51AD8BFF35B8FA1F1280353E8F5
:10178000002F013A43E800200028F8D1BFF35B8F17
:101790005AB951F81C3C01F158040BB12046984746
:1017A0002046BDE8104000F013B910BD51F8140CEC
:1017B000FFF7F0F9F8B5002540E91E1240F8805C0B
:1017C0000446FFF71BFA44F8700CFFF70FFA4721A5
:1017D00043222B234E27552604F8581C0A4904F8A7
:1017E000515C04F8577C04F8566C04F8552C04F846
:1017F000542C04F8533C04F8523C44F86C0C44F864
:10180000501CA4F18000F8BD71170108F8B5054619
:101810000E461746FFF784FC034644683A460134F7
:1018200031465C602846FFF7C5FF0123044644F8B3
:10183000283B2046F6F7C6FF2046FFF7DBFBFFF705
:10184000BDF900BF10B5FFF76BFCD0E900420132D3
:10185000426064B194F82020472A0AD00022026036
:1018600020342046F6F7D2FF2046FFF7C3FBFFF7F0
:10187000A5F994F821204E2AF0D194F82220552A77
:10188000ECD194F82320432AE8D194F82420432A69
:10189000E4D194F825202B2AE0D194F826202B2A95
:1018A000DCD194F82720012AD8D8626952426261BB
:1018B000D6E700BF08B5FFF733FC006830B190F8F9
:1018C0002730012B04BF00687838006808BD00BFCE
:1018D000F0B41E4CA0F10806636833B350F8087CDE
:1018E000F519AB4221D81BD05A6804342AB90CE050
:1018F00051681C1D09B313460A469542F8D322D1FC
:10190000D5E900215960236817441A6899188E4256
:1019100010D05B6840E9027323685E60F0BC7047DA
:10192000D3E90023174440F8087C40F8043C666083
:10193000F0BC704717441F60FAE75B681A68991893
:101940008E42E6D1F6E72368DFE700BF28180020C3
:10195000124900F108024868082A38BF0822D8B1A5
:10196000073222F00702043102E0011D4068A0B1F5
:1019700003689A42F9D89B1A072B0AD930B44568F4
:10198000841865608350086802600C60083030BCC1
:101990007047436808300B60704770472818002074
:1019A00010B500F18004204600F070FB034630B112
:1019B00080220021184600F0FFFE803010BD204636
:1019C000FFF7C6FF03460028F2D1FFF7F7F800BF84
:1019D000064A80389368984205D9D26813449842E1
:1019E00001D2FFF775BF00F059BB00BF28180020D7
:1019F00038B54FF41E65074C2846E56000F046FBFD
:101A0000A06020B100236060C0E9005338BDE060F1
:101A1000606038BD28180020F0B58BB0044600F097
:101A20004DF8244B054693F900707B1C0AD02146E3
:101A30002046F6F73BF9064620B900212046F6F786
:101A40000DF910B928460BB0F0BD01221A4B204603
:101A5000CDE900230896F5F79BFB00220023CDE992
:101A60000401CDE90201AFB110461946F5F712FDA8
:101A7000022FCDE906010FD100F084F82123036085
:101A8000089B8BB9DDE90601F5F7ECFD0546284614
:101A90000BB0F0BDCDE90623684600F063F80028DE
:101AA000EAD0089B002BEDD000F06CF8089B036097
:101AB000E8E700BF58000020A4C5010820F000425C
:101AC000B2F1FF4FF8B504462FD26AB3002803469F
:101AD0003DDB10F0FF4F4FEAE0542DD00026E20727
:101AE000A4F17F0031464FF019044FF08072C3F328
:101AF000160343F4000358BF5B0047105B008D18CA
:101B00009D4202DC5B1BA9181644013C4FEA4303CB
:101B10004FEA5202F3D113B1013626F001067010DC
:101B200000F17C5000EBC750F8BD0146F5F7F8FE18
:101B30002146F5F7EDFDF8BD10F400020ED15B0073
:101B40001802114602F10102F9D5641AC6E70146EE
:101B5000F5F7DCFD0146F5F797FFF8BD4FF0FF31D3
:101B6000F3E700BF0020704708B500F003F808B5A0
:101B7000FFF7FAFF062008B501F010FA0120F7F789
:101B8000E1FF00BF014B1868704700BF5C000020F8
:101B9000144B70B51E6805460C460EB1B36B9BB175
:101BA000636ED80702D4A389990516D52946224623
:101BB000304600F05DFE636E0546DA0702D4A38965
:101BC0009B0505D5284670BD304605F0C7FDE7E703
:101BD000A06D00F059FA284670BDA06D00F052FAD1
:101BE000E4E700BF5C00002030B5054687B008463A
:101BF0001446019101F088FA012201ABCDE90332CC
